{
  "_format": "hh-sol-artifact-1",
  "contractName": "BuniCornRouter02",
  "sourceName": "contracts/periphery/BuniCornRouter02.sol",
  "abi": [
    {
      "inputs": [
        {
          "internalType": "address",
          "name": "_factory",
          "type": "address"
        },
        {
          "internalType": "contract IWBNB",
          "name": "_wbnb",
          "type": "address"
        }
      ],
      "stateMutability": "nonpayable",
      "type": "constructor"
    },
    {
      "anonymous": false,
      "inputs": [
        {
          "indexed": true,
          "internalType": "address",
          "name": "previousOwner",
          "type": "address"
        },
        {
          "indexed": true,
          "internalType": "address",
          "name": "newOwner",
          "type": "address"
        }
      ],
      "name": "OwnershipTransferred",
      "type": "event"
    },
    {
      "inputs": [
        {
          "internalType": "contract IERC20",
          "name": "tokenA",
          "type": "address"
        },
        {
          "internalType": "contract IERC20",
          "name": "tokenB",
          "type": "address"
        },
        {
          "internalType": "address",
          "name": "pool",
          "type": "address"
        },
        {
          "internalType": "uint256",
          "name": "amountADesired",
          "type": "uint256"
        },
        {
          "internalType": "uint256",
          "name": "amountBDesired",
          "type": "uint256"
        },
        {
          "internalType": "uint256",
          "name": "amountAMin",
          "type": "uint256"
        },
        {
          "internalType": "uint256",
          "name": "amountBMin",
          "type": "uint256"
        },
        {
          "internalType": "address",
          "name": "to",
          "type": "address"
        },
        {
          "internalType": "uint256",
          "name": "deadline",
          "type": "uint256"
        }
      ],
      "name": "addLiquidity",
      "outputs": [
        {
          "internalType": "uint256",
          "name": "amountA",
          "type": "uint256"
        },
        {
          "internalType": "uint256",
          "name": "amountB",
          "type": "uint256"
        },
        {
          "internalType": "uint256",
          "name": "liquidity",
          "type": "uint256"
        }
      ],
      "stateMutability": "nonpayable",
      "type": "function"
    },
    {
      "inputs": [
        {
          "internalType": "contract IERC20",
          "name": "token",
          "type": "address"
        },
        {
          "internalType": "address",
          "name": "pool",
          "type": "address"
        },
        {
          "internalType": "uint256",
          "name": "amountTokenDesired",
          "type": "uint256"
        },
        {
          "internalType": "uint256",
          "name": "amountTokenMin",
          "type": "uint256"
        },
        {
          "internalType": "uint256",
          "name": "amountBNBMin",
          "type": "uint256"
        },
        {
          "internalType": "address",
          "name": "to",
          "type": "address"
        },
        {
          "internalType": "uint256",
          "name": "deadline",
          "type": "uint256"
        }
      ],
      "name": "addLiquidityBNB",
      "outputs": [
        {
          "internalType": "uint256",
          "name": "amountToken",
          "type": "uint256"
        },
        {
          "internalType": "uint256",
          "name": "amountBNB",
          "type": "uint256"
        },
        {
          "internalType": "uint256",
          "name": "liquidity",
          "type": "uint256"
        }
      ],
      "stateMutability": "payable",
      "type": "function"
    },
    {
      "inputs": [
        {
          "internalType": "contract IERC20",
          "name": "tokenA",
          "type": "address"
        },
        {
          "internalType": "contract IERC20",
          "name": "tokenB",
          "type": "address"
        },
        {
          "internalType": "uint32",
          "name": "ampBps",
          "type": "uint32"
        },
        {
          "internalType": "uint256",
          "name": "amountADesired",
          "type": "uint256"
        },
        {
          "internalType": "uint256",
          "name": "amountBDesired",
          "type": "uint256"
        },
        {
          "internalType": "uint256",
          "name": "amountAMin",
          "type": "uint256"
        },
        {
          "internalType": "uint256",
          "name": "amountBMin",
          "type": "uint256"
        },
        {
          "internalType": "address",
          "name": "to",
          "type": "address"
        },
        {
          "internalType": "uint256",
          "name": "deadline",
          "type": "uint256"
        }
      ],
      "name": "addLiquidityNewPool",
      "outputs": [
        {
          "internalType": "uint256",
          "name": "amountA",
          "type": "uint256"
        },
        {
          "internalType": "uint256",
          "name": "amountB",
          "type": "uint256"
        },
        {
          "internalType": "uint256",
          "name": "liquidity",
          "type": "uint256"
        }
      ],
      "stateMutability": "nonpayable",
      "type": "function"
    },
    {
      "inputs": [
        {
          "internalType": "contract IERC20",
          "name": "token",
          "type": "address"
        },
        {
          "internalType": "uint32",
          "name": "ampBps",
          "type": "uint32"
        },
        {
          "internalType": "uint256",
          "name": "amountTokenDesired",
          "type": "uint256"
        },
        {
          "internalType": "uint256",
          "name": "amountTokenMin",
          "type": "uint256"
        },
        {
          "internalType": "uint256",
          "name": "amountBNBMin",
          "type": "uint256"
        },
        {
          "internalType": "address",
          "name": "to",
          "type": "address"
        },
        {
          "internalType": "uint256",
          "name": "deadline",
          "type": "uint256"
        }
      ],
      "name": "addLiquidityNewPoolBNB",
      "outputs": [
        {
          "internalType": "uint256",
          "name": "amountToken",
          "type": "uint256"
        },
        {
          "internalType": "uint256",
          "name": "amountBNB",
          "type": "uint256"
        },
        {
          "internalType": "uint256",
          "name": "liquidity",
          "type": "uint256"
        }
      ],
      "stateMutability": "payable",
      "type": "function"
    },
    {
      "inputs": [],
      "name": "factory",
      "outputs": [
        {
          "internalType": "address",
          "name": "",
          "type": "address"
        }
      ],
      "stateMutability": "view",
      "type": "function"
    },
    {
      "inputs": [
        {
          "internalType": "uint256",
          "name": "amountOut",
          "type": "uint256"
        },
        {
          "internalType": "address[]",
          "name": "poolsPath",
          "type": "address[]"
        },
        {
          "internalType": "contract IERC20[]",
          "name": "path",
          "type": "address[]"
        }
      ],
      "name": "getAmountsIn",
      "outputs": [
        {
          "internalType": "uint256[]",
          "name": "amounts",
          "type": "uint256[]"
        }
      ],
      "stateMutability": "view",
      "type": "function"
    },
    {
      "inputs": [
        {
          "internalType": "uint256",
          "name": "amountIn",
          "type": "uint256"
        },
        {
          "internalType": "address[]",
          "name": "poolsPath",
          "type": "address[]"
        },
        {
          "internalType": "contract IERC20[]",
          "name": "path",
          "type": "address[]"
        }
      ],
      "name": "getAmountsOut",
      "outputs": [
        {
          "internalType": "uint256[]",
          "name": "amounts",
          "type": "uint256[]"
        }
      ],
      "stateMutability": "view",
      "type": "function"
    },
    {
      "inputs": [],
      "name": "owner",
      "outputs": [
        {
          "internalType": "address",
          "name": "",
          "type": "address"
        }
      ],
      "stateMutability": "view",
      "type": "function"
    },
    {
      "inputs": [
        {
          "internalType": "uint256",
          "name": "amountA",
          "type": "uint256"
        },
        {
          "internalType": "uint256",
          "name": "reserveA",
          "type": "uint256"
        },
        {
          "internalType": "uint256",
          "name": "reserveB",
          "type": "uint256"
        }
      ],
      "name": "quote",
      "outputs": [
        {
          "internalType": "uint256",
          "name": "amountB",
          "type": "uint256"
        }
      ],
      "stateMutability": "pure",
      "type": "function"
    },
    {
      "inputs": [
        {
          "internalType": "contract IERC20",
          "name": "tokenA",
          "type": "address"
        },
        {
          "internalType": "contract IERC20",
          "name": "tokenB",
          "type": "address"
        },
        {
          "internalType": "address",
          "name": "pool",
          "type": "address"
        },
        {
          "internalType": "uint256",
          "name": "liquidity",
          "type": "uint256"
        },
        {
          "internalType": "uint256",
          "name": "amountAMin",
          "type": "uint256"
        },
        {
          "internalType": "uint256",
          "name": "amountBMin",
          "type": "uint256"
        },
        {
          "internalType": "address",
          "name": "to",
          "type": "address"
        },
        {
          "internalType": "uint256",
          "name": "deadline",
          "type": "uint256"
        }
      ],
      "name": "removeLiquidity",
      "outputs": [
        {
          "internalType": "uint256",
          "name": "amountA",
          "type": "uint256"
        },
        {
          "internalType": "uint256",
          "name": "amountB",
          "type": "uint256"
        }
      ],
      "stateMutability": "nonpayable",
      "type": "function"
    },
    {
      "inputs": [
        {
          "internalType": "contract IERC20",
          "name": "token",
          "type": "address"
        },
        {
          "internalType": "address",
          "name": "pool",
          "type": "address"
        },
        {
          "internalType": "uint256",
          "name": "liquidity",
          "type": "uint256"
        },
        {
          "internalType": "uint256",
          "name": "amountTokenMin",
          "type": "uint256"
        },
        {
          "internalType": "uint256",
          "name": "amountBNBMin",
          "type": "uint256"
        },
        {
          "internalType": "address",
          "name": "to",
          "type": "address"
        },
        {
          "internalType": "uint256",
          "name": "deadline",
          "type": "uint256"
        }
      ],
      "name": "removeLiquidityBNB",
      "outputs": [
        {
          "internalType": "uint256",
          "name": "amountToken",
          "type": "uint256"
        },
        {
          "internalType": "uint256",
          "name": "amountBNB",
          "type": "uint256"
        }
      ],
      "stateMutability": "nonpayable",
      "type": "function"
    },
    {
      "inputs": [
        {
          "internalType": "contract IERC20",
          "name": "token",
          "type": "address"
        },
        {
          "internalType": "address",
          "name": "pool",
          "type": "address"
        },
        {
          "internalType": "uint256",
          "name": "liquidity",
          "type": "uint256"
        },
        {
          "internalType": "uint256",
          "name": "amountTokenMin",
          "type": "uint256"
        },
        {
          "internalType": "uint256",
          "name": "amountBNBMin",
          "type": "uint256"
        },
        {
          "internalType": "address",
          "name": "to",
          "type": "address"
        },
        {
          "internalType": "uint256",
          "name": "deadline",
          "type": "uint256"
        }
      ],
      "name": "removeLiquidityBNBSupportingFeeOnTransferTokens",
      "outputs": [
        {
          "internalType": "uint256",
          "name": "amountBNB",
          "type": "uint256"
        }
      ],
      "stateMutability": "nonpayable",
      "type": "function"
    },
    {
      "inputs": [
        {
          "internalType": "contract IERC20",
          "name": "token",
          "type": "address"
        },
        {
          "internalType": "address",
          "name": "pool",
          "type": "address"
        },
        {
          "internalType": "uint256",
          "name": "liquidity",
          "type": "uint256"
        },
        {
          "internalType": "uint256",
          "name": "amountTokenMin",
          "type": "uint256"
        },
        {
          "internalType": "uint256",
          "name": "amountBNBMin",
          "type": "uint256"
        },
        {
          "internalType": "address",
          "name": "to",
          "type": "address"
        },
        {
          "internalType": "uint256",
          "name": "deadline",
          "type": "uint256"
        },
        {
          "internalType": "bool",
          "name": "approveMax",
          "type": "bool"
        },
        {
          "internalType": "uint8",
          "name": "v",
          "type": "uint8"
        },
        {
          "internalType": "bytes32",
          "name": "r",
          "type": "bytes32"
        },
        {
          "internalType": "bytes32",
          "name": "s",
          "type": "bytes32"
        }
      ],
      "name": "removeLiquidityBNBWithPermit",
      "outputs": [
        {
          "internalType": "uint256",
          "name": "amountToken",
          "type": "uint256"
        },
        {
          "internalType": "uint256",
          "name": "amountBNB",
          "type": "uint256"
        }
      ],
      "stateMutability": "nonpayable",
      "type": "function"
    },
    {
      "inputs": [
        {
          "internalType": "contract IERC20",
          "name": "token",
          "type": "address"
        },
        {
          "internalType": "address",
          "name": "pool",
          "type": "address"
        },
        {
          "internalType": "uint256",
          "name": "liquidity",
          "type": "uint256"
        },
        {
          "internalType": "uint256",
          "name": "amountTokenMin",
          "type": "uint256"
        },
        {
          "internalType": "uint256",
          "name": "amountBNBMin",
          "type": "uint256"
        },
        {
          "internalType": "address",
          "name": "to",
          "type": "address"
        },
        {
          "internalType": "uint256",
          "name": "deadline",
          "type": "uint256"
        },
        {
          "internalType": "bool",
          "name": "approveMax",
          "type": "bool"
        },
        {
          "internalType": "uint8",
          "name": "v",
          "type": "uint8"
        },
        {
          "internalType": "bytes32",
          "name": "r",
          "type": "bytes32"
        },
        {
          "internalType": "bytes32",
          "name": "s",
          "type": "bytes32"
        }
      ],
      "name": "removeLiquidityBNBWithPermitSupportingFeeOnTransferTokens",
      "outputs": [
        {
          "internalType": "uint256",
          "name": "amountBNB",
          "type": "uint256"
        }
      ],
      "stateMutability": "nonpayable",
      "type": "function"
    },
    {
      "inputs": [
        {
          "internalType": "contract IERC20",
          "name": "tokenA",
          "type": "address"
        },
        {
          "internalType": "contract IERC20",
          "name": "tokenB",
          "type": "address"
        },
        {
          "internalType": "address",
          "name": "pool",
          "type": "address"
        },
        {
          "internalType": "uint256",
          "name": "liquidity",
          "type": "uint256"
        },
        {
          "internalType": "uint256",
          "name": "amountAMin",
          "type": "uint256"
        },
        {
          "internalType": "uint256",
          "name": "amountBMin",
          "type": "uint256"
        },
        {
          "internalType": "address",
          "name": "to",
          "type": "address"
        },
        {
          "internalType": "uint256",
          "name": "deadline",
          "type": "uint256"
        },
        {
          "internalType": "bool",
          "name": "approveMax",
          "type": "bool"
        },
        {
          "internalType": "uint8",
          "name": "v",
          "type": "uint8"
        },
        {
          "internalType": "bytes32",
          "name": "r",
          "type": "bytes32"
        },
        {
          "internalType": "bytes32",
          "name": "s",
          "type": "bytes32"
        }
      ],
      "name": "removeLiquidityWithPermit",
      "outputs": [
        {
          "internalType": "uint256",
          "name": "amountA",
          "type": "uint256"
        },
        {
          "internalType": "uint256",
          "name": "amountB",
          "type": "uint256"
        }
      ],
      "stateMutability": "nonpayable",
      "type": "function"
    },
    {
      "inputs": [],
      "name": "renounceOwnership",
      "outputs": [],
      "stateMutability": "nonpayable",
      "type": "function"
    },
    {
      "inputs": [
        {
          "internalType": "uint256",
          "name": "amountOut",
          "type": "uint256"
        },
        {
          "internalType": "address[]",
          "name": "poolsPath",
          "type": "address[]"
        },
        {
          "internalType": "contract IERC20[]",
          "name": "path",
          "type": "address[]"
        },
        {
          "internalType": "address",
          "name": "to",
          "type": "address"
        },
        {
          "internalType": "uint256",
          "name": "deadline",
          "type": "uint256"
        }
      ],
      "name": "swapBNBForExactTokens",
      "outputs": [
        {
          "internalType": "uint256[]",
          "name": "amounts",
          "type": "uint256[]"
        }
      ],
      "stateMutability": "payable",
      "type": "function"
    },
    {
      "inputs": [
        {
          "internalType": "uint256",
          "name": "amountOutMin",
          "type": "uint256"
        },
        {
          "internalType": "address[]",
          "name": "poolsPath",
          "type": "address[]"
        },
        {
          "internalType": "contract IERC20[]",
          "name": "path",
          "type": "address[]"
        },
        {
          "internalType": "address",
          "name": "to",
          "type": "address"
        },
        {
          "internalType": "uint256",
          "name": "deadline",
          "type": "uint256"
        }
      ],
      "name": "swapExactBNBForTokens",
      "outputs": [
        {
          "internalType": "uint256[]",
          "name": "amounts",
          "type": "uint256[]"
        }
      ],
      "stateMutability": "payable",
      "type": "function"
    },
    {
      "inputs": [
        {
          "internalType": "uint256",
          "name": "amountOutMin",
          "type": "uint256"
        },
        {
          "internalType": "address[]",
          "name": "poolsPath",
          "type": "address[]"
        },
        {
          "internalType": "contract IERC20[]",
          "name": "path",
          "type": "address[]"
        },
        {
          "internalType": "address",
          "name": "to",
          "type": "address"
        },
        {
          "internalType": "uint256",
          "name": "deadline",
          "type": "uint256"
        }
      ],
      "name": "swapExactBNBForTokensSupportingFeeOnTransferTokens",
      "outputs": [],
      "stateMutability": "payable",
      "type": "function"
    },
    {
      "inputs": [
        {
          "internalType": "uint256",
          "name": "amountIn",
          "type": "uint256"
        },
        {
          "internalType": "uint256",
          "name": "amountOutMin",
          "type": "uint256"
        },
        {
          "internalType": "address[]",
          "name": "poolsPath",
          "type": "address[]"
        },
        {
          "internalType": "contract IERC20[]",
          "name": "path",
          "type": "address[]"
        },
        {
          "internalType": "address",
          "name": "to",
          "type": "address"
        },
        {
          "internalType": "uint256",
          "name": "deadline",
          "type": "uint256"
        }
      ],
      "name": "swapExactTokensForBNB",
      "outputs": [
        {
          "internalType": "uint256[]",
          "name": "amounts",
          "type": "uint256[]"
        }
      ],
      "stateMutability": "nonpayable",
      "type": "function"
    },
    {
      "inputs": [
        {
          "internalType": "uint256",
          "name": "amountIn",
          "type": "uint256"
        },
        {
          "internalType": "uint256",
          "name": "amountOutMin",
          "type": "uint256"
        },
        {
          "internalType": "address[]",
          "name": "poolsPath",
          "type": "address[]"
        },
        {
          "internalType": "contract IERC20[]",
          "name": "path",
          "type": "address[]"
        },
        {
          "internalType": "address",
          "name": "to",
          "type": "address"
        },
        {
          "internalType": "uint256",
          "name": "deadline",
          "type": "uint256"
        }
      ],
      "name": "swapExactTokensForBNBSupportingFeeOnTransferTokens",
      "outputs": [],
      "stateMutability": "nonpayable",
      "type": "function"
    },
    {
      "inputs": [
        {
          "internalType": "uint256",
          "name": "amountIn",
          "type": "uint256"
        },
        {
          "internalType": "uint256",
          "name": "amountOutMin",
          "type": "uint256"
        },
        {
          "internalType": "address[]",
          "name": "poolsPath",
          "type": "address[]"
        },
        {
          "internalType": "contract IERC20[]",
          "name": "path",
          "type": "address[]"
        },
        {
          "internalType": "address",
          "name": "to",
          "type": "address"
        },
        {
          "internalType": "uint256",
          "name": "deadline",
          "type": "uint256"
        }
      ],
      "name": "swapExactTokensForTokens",
      "outputs": [
        {
          "internalType": "uint256[]",
          "name": "amounts",
          "type": "uint256[]"
        }
      ],
      "stateMutability": "nonpayable",
      "type": "function"
    },
    {
      "inputs": [
        {
          "internalType": "uint256",
          "name": "amountIn",
          "type": "uint256"
        },
        {
          "internalType": "uint256",
          "name": "amountOutMin",
          "type": "uint256"
        },
        {
          "internalType": "address[]",
          "name": "poolsPath",
          "type": "address[]"
        },
        {
          "internalType": "contract IERC20[]",
          "name": "path",
          "type": "address[]"
        },
        {
          "internalType": "address",
          "name": "to",
          "type": "address"
        },
        {
          "internalType": "uint256",
          "name": "deadline",
          "type": "uint256"
        }
      ],
      "name": "swapExactTokensForTokensSupportingFeeOnTransferTokens",
      "outputs": [],
      "stateMutability": "nonpayable",
      "type": "function"
    },
    {
      "inputs": [
        {
          "internalType": "uint256",
          "name": "amountOut",
          "type": "uint256"
        },
        {
          "internalType": "uint256",
          "name": "amountInMax",
          "type": "uint256"
        },
        {
          "internalType": "address[]",
          "name": "poolsPath",
          "type": "address[]"
        },
        {
          "internalType": "contract IERC20[]",
          "name": "path",
          "type": "address[]"
        },
        {
          "internalType": "address",
          "name": "to",
          "type": "address"
        },
        {
          "internalType": "uint256",
          "name": "deadline",
          "type": "uint256"
        }
      ],
      "name": "swapTokensForExactBNB",
      "outputs": [
        {
          "internalType": "uint256[]",
          "name": "amounts",
          "type": "uint256[]"
        }
      ],
      "stateMutability": "nonpayable",
      "type": "function"
    },
    {
      "inputs": [
        {
          "internalType": "uint256",
          "name": "amountOut",
          "type": "uint256"
        },
        {
          "internalType": "uint256",
          "name": "amountInMax",
          "type": "uint256"
        },
        {
          "internalType": "address[]",
          "name": "poolsPath",
          "type": "address[]"
        },
        {
          "internalType": "contract IERC20[]",
          "name": "path",
          "type": "address[]"
        },
        {
          "internalType": "address",
          "name": "to",
          "type": "address"
        },
        {
          "internalType": "uint256",
          "name": "deadline",
          "type": "uint256"
        }
      ],
      "name": "swapTokensForExactTokens",
      "outputs": [
        {
          "internalType": "uint256[]",
          "name": "amounts",
          "type": "uint256[]"
        }
      ],
      "stateMutability": "nonpayable",
      "type": "function"
    },
    {
      "inputs": [
        {
          "internalType": "address",
          "name": "newOwner",
          "type": "address"
        }
      ],
      "name": "transferOwnership",
      "outputs": [],
      "stateMutability": "nonpayable",
      "type": "function"
    },
    {
      "inputs": [],
      "name": "wbnb",
      "outputs": [
        {
          "internalType": "contract IWBNB",
          "name": "",
          "type": "address"
        }
      ],
      "stateMutability": "view",
      "type": "function"
    },
    {
      "stateMutability": "payable",
      "type": "receive"
    }
  ],
  "bytecode": "0x60c06040523480156200001157600080fd5b50604051620053dc380380620053dc833981810160405260408110156200003757600080fd5b50805160209091015160006200004c620000b5565b600080546001600160a01b0319166001600160a01b0383169081178255604051929350917f8be0079c531659141344cd1fd0a4f28419497f9722a3daafe3b4186f6b6457e0908290a3506001600160601b0319606092831b8116608052911b1660a052620000b9565b3390565b60805160601c60a05160601c61526362000179600039806101b0528061147f528061151452806115a95280611824528061186952806119445280611b045280611bc15280611eed5280611fc8528061219152806121bc5280612201528061227f52806123995280612630528061273f528061286a528061294452806129cc5280612a455280612c0852806136985280613751528061393752508061129c52806113575280611ebd5280611f98528061300e528061434452506152636000f3fe6080604052600436106101a05760003560e01c80639691c51f116100ec578063dc15716d1161008a578063f2fde38b11610064578063f2fde38b1461103e578063f86bd92d14611071578063fbf45135146110ce578063ff52f0f01461113b576101d9565b8063dc15716d14610e12578063e1f4a78414610e90578063e8898b5f14610ef4576101d9565b8063ad615dec116100c6578063ad615dec14610b21578063ae8290b714610b69578063c45a015514610cb3578063ceb757d514610cc8576101d9565b80639691c51f146108a95780639e269b681461097d578063a8312b1d14610a4f576101d9565b806359657f7d11610159578063760be14011610133578063760be140146106975780638ca16ac21461077d5780638d72647e146108635780638da5cb5b14610894576101d9565b806359657f7d146105de578063715018a614610632578063743aa03514610647576101d9565b80631c5d0a6b146101de5780632d5417b71461026d5780632db051211461034157806335bb61d3146103b7578063400acb2b146104db5780634c17fd7c14610559576101d9565b366101d957336001600160a01b037f000000000000000000000000000000000000000000000000000000000000000016146101d757fe5b005b600080fd5b3480156101ea57600080fd5b5061024f600480360361012081101561020257600080fd5b506001600160a01b038135811691602081013582169163ffffffff6040830135169160608101359160808201359160a08101359160c08201359160e0810135909116906101000135611221565b60408051938452602084019290925282820152519081900360600190f35b6101d7600480360360a081101561028357600080fd5b81359190810190604081016020820135600160201b8111156102a457600080fd5b8201836020820111156102b657600080fd5b803590602001918460208302840111600160201b831117156102d757600080fd5b919390929091602081019035600160201b8111156102f457600080fd5b82018360208201111561030657600080fd5b803590602001918460208302840111600160201b8311171561032757600080fd5b91935091506001600160a01b038135169060200135611439565b34801561034d57600080fd5b5061039e600480360360e081101561036457600080fd5b506001600160a01b038135811691602081013582169160408201359160608101359160808201359160a08101359091169060c001356117d7565b6040805192835260208301919091528051918290030190f35b61048b600480360360a08110156103cd57600080fd5b81359190810190604081016020820135600160201b8111156103ee57600080fd5b82018360208201111561040057600080fd5b803590602001918460208302840111600160201b8311171561042157600080fd5b919390929091602081019035600160201b81111561043e57600080fd5b82018360208201111561045057600080fd5b803590602001918460208302840111600160201b8311171561047157600080fd5b91935091506001600160a01b0381351690602001356118fc565b60408051602080825283518183015283519192839290830191858101910280838360005b838110156104c75781810151838201526020016104af565b505050509050019250505060405180910390f35b3480156104e757600080fd5b5061039e60048036036101608110156104ff57600080fd5b506001600160a01b038135811691602081013582169160408201359160608101359160808201359160a08101359091169060c08101359060e081013515159060ff6101008201351690610120810135906101400135611cb0565b34801561056557600080fd5b5061039e600480360361018081101561057d57600080fd5b506001600160a01b0381358116916020810135821691604082013581169160608101359160808201359160a08101359160c0820135169060e08101359061010081013515159060ff6101208201351690610140810135906101600135611d76565b61024f600480360360e08110156105f457600080fd5b506001600160a01b03813581169163ffffffff6020820135169160408201359160608101359160808201359160a08101359091169060c00135611e42565b34801561063e57600080fd5b506101d7612096565b61024f600480360360e081101561065d57600080fd5b506001600160a01b038135811691602081013582169160408201359160608101359160808201359160a08101359091169060c00135612142565b3480156106a357600080fd5b5061048b600480360360c08110156106ba57600080fd5b813591602081013591810190606081016040820135600160201b8111156106e057600080fd5b8201836020820111156106f257600080fd5b803590602001918460208302840111600160201b8311171561071357600080fd5b919390929091602081019035600160201b81111561073057600080fd5b82018360208201111561074257600080fd5b803590602001918460208302840111600160201b8311171561076357600080fd5b91935091506001600160a01b038135169060200135612349565b34801561078957600080fd5b506101d7600480360360c08110156107a057600080fd5b813591602081013591810190606081016040820135600160201b8111156107c657600080fd5b8201836020820111156107d857600080fd5b803590602001918460208302840111600160201b831117156107f957600080fd5b919390929091602081019035600160201b81111561081657600080fd5b82018360208201111561082857600080fd5b803590602001918460208302840111600160201b8311171561084957600080fd5b91935091506001600160a01b0381351690602001356126f1565b34801561086f57600080fd5b506108786129ca565b604080516001600160a01b039092168252519081900360200190f35b3480156108a057600080fd5b506108786129ee565b61048b600480360360a08110156108bf57600080fd5b81359190810190604081016020820135600160201b8111156108e057600080fd5b8201836020820111156108f257600080fd5b803590602001918460208302840111600160201b8311171561091357600080fd5b919390929091602081019035600160201b81111561093057600080fd5b82018360208201111561094257600080fd5b803590602001918460208302840111600160201b8311171561096357600080fd5b91935091506001600160a01b0381351690602001356129fd565b34801561098957600080fd5b5061048b600480360360608110156109a057600080fd5b81359190810190604081016020820135600160201b8111156109c157600080fd5b8201836020820111156109d357600080fd5b803590602001918460208302840111600160201b831117156109f457600080fd5b919390929091602081019035600160201b811115610a1157600080fd5b820183602082011115610a2357600080fd5b803590602001918460208302840111600160201b83111715610a4457600080fd5b509092509050612d0e565b348015610a5b57600080fd5b5061048b60048036036060811015610a7257600080fd5b81359190810190604081016020820135600160201b811115610a9357600080fd5b820183602082011115610aa557600080fd5b803590602001918460208302840111600160201b83111715610ac657600080fd5b919390929091602081019035600160201b811115610ae357600080fd5b820183602082011115610af557600080fd5b803590602001918460208302840111600160201b83111715610b1657600080fd5b509092509050612df5565b348015610b2d57600080fd5b50610b5760048036036060811015610b4457600080fd5b5080359060208101359060400135612ed2565b60408051918252519081900360200190f35b348015610b7557600080fd5b5061048b600480360360c0811015610b8c57600080fd5b813591602081013591810190606081016040820135600160201b811115610bb257600080fd5b820183602082011115610bc457600080fd5b803590602001918460208302840111600160201b83111715610be557600080fd5b9190808060200260200160405190810160405280939291908181526020018383602002808284376000920191909152509295949360208101935035915050600160201b811115610c3457600080fd5b820183602082011115610c4657600080fd5b803590602001918460208302840111600160201b83111715610c6757600080fd5b919080806020026020016040519081016040528093929190818152602001838360200280828437600092019190915250929550506001600160a01b038335169350505060200135612ee9565b348015610cbf57600080fd5b5061087861300c565b348015610cd457600080fd5b5061048b600480360360c0811015610ceb57600080fd5b813591602081013591810190606081016040820135600160201b811115610d1157600080fd5b820183602082011115610d2357600080fd5b803590602001918460208302840111600160201b83111715610d4457600080fd5b9190808060200260200160405190810160405280939291908181526020018383602002808284376000920191909152509295949360208101935035915050600160201b811115610d9357600080fd5b820183602082011115610da557600080fd5b803590602001918460208302840111600160201b83111715610dc657600080fd5b919080806020026020016040519081016040528093929190818152602001838360200280828437600092019190915250929550506001600160a01b038335169350505060200135613030565b348015610e1e57600080fd5b50610b576004803603610160811015610e3657600080fd5b506001600160a01b038135811691602081013582169160408201359160608101359160808201359160a08101359091169060c08101359060e081013515159060ff61010082013516906101208101359061014001356130e3565b348015610e9c57600080fd5b5061039e6004803603610100811015610eb457600080fd5b506001600160a01b0381358116916020810135821691604082013581169160608101359160808201359160a08101359160c0820135169060e001356131a3565b348015610f0057600080fd5b506101d7600480360360c0811015610f1757600080fd5b813591602081013591810190606081016040820135600160201b811115610f3d57600080fd5b820183602082011115610f4f57600080fd5b803590602001918460208302840111600160201b83111715610f7057600080fd5b9190808060200260200160405190810160405280939291908181526020018383602002808284376000920191909152509295949360208101935035915050600160201b811115610fbf57600080fd5b820183602082011115610fd157600080fd5b803590602001918460208302840111600160201b83111715610ff257600080fd5b919080806020026020016040519081016040528093929190818152602001838360200280828437600092019190915250929550506001600160a01b038335169350505060200135613359565b34801561104a57600080fd5b506101d76004803603602081101561106157600080fd5b50356001600160a01b031661354a565b34801561107d57600080fd5b50610b57600480360360e081101561109457600080fd5b506001600160a01b038135811691602081013582169160408201359160608101359160808201359160a08101359091169060c0013561364c565b3480156110da57600080fd5b5061024f60048036036101208110156110f257600080fd5b506001600160a01b0381358116916020810135821691604082013581169160608101359160808201359160a08101359160c08201359160e08101359091169061010001356137d7565b34801561114757600080fd5b5061048b600480360360c081101561115e57600080fd5b813591602081013591810190606081016040820135600160201b81111561118457600080fd5b82018360208201111561119657600080fd5b803590602001918460208302840111600160201b831117156111b757600080fd5b919390929091602081019035600160201b8111156111d457600080fd5b8201836020820111156111e657600080fd5b803590602001918460208302840111600160201b8311171561120757600080fd5b91935091506001600160a01b0381351690602001356138e7565b600080600061122e613af3565b6001600160a01b031661123f6129ee565b6001600160a01b031614611288576040805162461bcd60e51b81526020600482018190526024820152600080516020615137833981519152604482015290519081900360640190fd5b60006127108b63ffffffff161415611347577f00000000000000000000000000000000000000000000000000000000000000006001600160a01b0316633d82497e8e8e6040518363ffffffff1660e01b815260040180836001600160a01b03168152602001826001600160a01b031681526020019250505060206040518083038186803b15801561131857600080fd5b505afa15801561132c573d6000803e3d6000fd5b505050506040513d602081101561134257600080fd5b505190505b6001600160a01b038116611412577f00000000000000000000000000000000000000000000000000000000000000006001600160a01b0316638fd648408e8e8e6040518463ffffffff1660e01b815260040180846001600160a01b03168152602001836001600160a01b031681526020018263ffffffff1681526020019350505050602060405180830381600087803b1580156113e357600080fd5b505af11580156113f7573d6000803e3d6000fd5b505050506040513d602081101561140d57600080fd5b505190505b6114238d8d838d8d8d8d8d8d6137d7565b919f909e50909c509a5050505050505050505050565b804281101561147d576040805162461bcd60e51b8152602060048201526013602482015260008051602061517d833981519152604482015290519081900360640190fd5b7f00000000000000000000000000000000000000000000000000000000000000006001600160a01b0316858560008181106114b457fe5b905060200201356001600160a01b03166001600160a01b03161461150d576040805162461bcd60e51b81526020600482015260186024820152600080516020615091833981519152604482015290519081900360640190fd5b60003490507f00000000000000000000000000000000000000000000000000000000000000006001600160a01b031663d0e30db0826040518263ffffffff1660e01b81526004016000604051808303818588803b15801561156d57600080fd5b505af1158015611581573d6000803e3d6000fd5b50505050506115e08888600081811061159657fe5b905060200201356001600160a01b0316827f00000000000000000000000000000000000000000000000000000000000000006001600160a01b0316613af79092919063ffffffff16565b6000868660001981018181106115f257fe5b905060200201356001600160a01b03166001600160a01b03166370a08231866040518263ffffffff1660e01b815260040180826001600160a01b0316815260200191505060206040518083038186803b15801561164e57600080fd5b505afa158015611662573d6000803e3d6000fd5b505050506040513d602081101561167857600080fd5b50516040805160208b810282810182019093528b82529293506116eb9290918c918c91829185019084908082843760009201919091525050604080516020808d0282810182019093528c82529093508c92508b9182918501908490808284376000920191909152508a9250613b4e915050565b8961178e828989600019810181811061170057fe5b905060200201356001600160a01b03166001600160a01b03166370a08231896040518263ffffffff1660e01b815260040180826001600160a01b0316815260200191505060206040518083038186803b15801561175c57600080fd5b505afa158015611770573d6000803e3d6000fd5b505050506040513d602081101561178657600080fd5b505190613dbe565b10156117cb5760405162461bcd60e51b81526004018080602001828103825260268152602001806151576026913960400191505060405180910390fd5b50505050505050505050565b600080824281101561181e576040805162461bcd60e51b8152602060048201526013602482015260008051602061517d833981519152604482015290519081900360640190fd5b61184e8a7f00000000000000000000000000000000000000000000000000000000000000008b8b8b8b308b6131a3565b90935091506118676001600160a01b038b168685613af7565b7f00000000000000000000000000000000000000000000000000000000000000006001600160a01b0316632e1a7d4d836040518263ffffffff1660e01b815260040180828152602001915050600060405180830381600087803b1580156118cd57600080fd5b505af11580156118e1573d6000803e3d6000fd5b505050506118ef8583613e20565b5097509795505050505050565b60608142811015611942576040805162461bcd60e51b8152602060048201526013602482015260008051602061517d833981519152604482015290519081900360640190fd5b7f00000000000000000000000000000000000000000000000000000000000000006001600160a01b03168686600081811061197957fe5b905060200201356001600160a01b03166001600160a01b0316146119d2576040805162461bcd60e51b81526020600482015260186024820152600080516020615091833981519152604482015290519081900360640190fd5b611a3f88888080602002602001604051908101604052809392919081815260200183836020028082843760009201919091525050604080516020808c0282810182019093528b82529093508b92508a918291850190849080828437600092019190915250613f1392505050565b611aad8989898080602002602001604051908101604052809392919081815260200183836020028082843760009201919091525050604080516020808d0282810182019093528c82529093508c92508b91829185019084908082843760009201919091525061400c92505050565b91503482600081518110611abd57fe5b60200260200101511115611b025760405162461bcd60e51b81526004018080602001828103825260228152602001806151e26022913960400191505060405180910390fd5b7f00000000000000000000000000000000000000000000000000000000000000006001600160a01b031663d0e30db083600081518110611b3e57fe5b60200260200101516040518263ffffffff1660e01b81526004016000604051808303818588803b158015611b7157600080fd5b505af1158015611b85573d6000803e3d6000fd5b5050505050611bf888886000818110611b9a57fe5b905060200201356001600160a01b031683600081518110611bb757fe5b60200260200101517f00000000000000000000000000000000000000000000000000000000000000006001600160a01b0316613af79092919063ffffffff16565b611c688289898080602002602001604051908101604052809392919081815260200183836020028082843760009201919091525050604080516020808d0282810182019093528c82529093508c92508b9182918501908490808284376000920191909152508a925061412d915050565b81600081518110611c7557fe5b6020026020010151341115611ca457611ca43383600081518110611c9557fe5b60200260200101513403613e20565b50979650505050505050565b600080600086611cc0578b611cc4565b6000195b6040805163d505accf60e01b815233600482015230602482015260448101839052606481018b905260ff8916608482015260a4810188905260c4810187905290519192506001600160a01b038f169163d505accf9160e48082019260009290919082900301818387803b158015611d3a57600080fd5b505af1158015611d4e573d6000803e3d6000fd5b50505050611d618e8e8e8e8e8e8e6117d7565b909f909e509c50505050505050505050505050565b600080600086611d86578b611d8a565b6000195b6040805163d505accf60e01b815233600482015230602482015260448101839052606481018b905260ff8916608482015260a4810188905260c4810187905290519192506001600160a01b038f169163d505accf9160e48082019260009290919082900301818387803b158015611e0057600080fd5b505af1158015611e14573d6000803e3d6000fd5b50505050611e288f8f8f8f8f8f8f8f6131a3565b8093508194505050509c509c9a5050505050505050505050565b6000806000611e4f613af3565b6001600160a01b0316611e606129ee565b6001600160a01b031614611ea9576040805162461bcd60e51b81526020600482018190526024820152600080516020615137833981519152604482015290519081900360640190fd5b60006127108a63ffffffff161415611f88577f00000000000000000000000000000000000000000000000000000000000000006001600160a01b0316633d82497e8c7f00000000000000000000000000000000000000000000000000000000000000006040518363ffffffff1660e01b815260040180836001600160a01b03168152602001826001600160a01b031681526020019250505060206040518083038186803b158015611f5957600080fd5b505afa158015611f6d573d6000803e3d6000fd5b505050506040513d6020811015611f8357600080fd5b505190505b6001600160a01b038116612073577f00000000000000000000000000000000000000000000000000000000000000006001600160a01b0316638fd648408c7f00000000000000000000000000000000000000000000000000000000000000008d6040518463ffffffff1660e01b815260040180846001600160a01b03168152602001836001600160a01b031681526020018263ffffffff1681526020019350505050602060405180830381600087803b15801561204457600080fd5b505af1158015612058573d6000803e3d6000fd5b505050506040513d602081101561206e57600080fd5b505190505b6120828b828b8b8b8b8b612142565b919d909c50909a5098505050505050505050565b61209e613af3565b6001600160a01b03166120af6129ee565b6001600160a01b0316146120f8576040805162461bcd60e51b81526020600482018190526024820152600080516020615137833981519152604482015290519081900360640190fd5b600080546040516001600160a01b03909116907f8be0079c531659141344cd1fd0a4f28419497f9722a3daafe3b4186f6b6457e0908390a3600080546001600160a01b0319169055565b6000806000834281101561218b576040805162461bcd60e51b8152602060048201526013602482015260008051602061517d833981519152604482015290519081900360640190fd5b6121b68b7f00000000000000000000000000000000000000000000000000000000000000008c614342565b6121e58b7f00000000000000000000000000000000000000000000000000000000000000008c8c348d8d61444e565b90945092506121ff6001600160a01b038c16338c8761454f565b7f00000000000000000000000000000000000000000000000000000000000000006001600160a01b031663d0e30db0846040518263ffffffff1660e01b81526004016000604051808303818588803b15801561225a57600080fd5b505af115801561226e573d6000803e3d6000fd5b506122aa9350506001600160a01b037f00000000000000000000000000000000000000000000000000000000000000001691508c905085613af7565b896001600160a01b0316636a627842876040518263ffffffff1660e01b815260040180826001600160a01b03168152602001915050602060405180830381600087803b1580156122f957600080fd5b505af115801561230d573d6000803e3d6000fd5b505050506040513d602081101561232357600080fd5b505191503483101561233b5761233b33843403613e20565b509750975097945050505050565b6060814281101561238f576040805162461bcd60e51b8152602060048201526013602482015260008051602061517d833981519152604482015290519081900360640190fd5b6001600160a01b037f000000000000000000000000000000000000000000000000000000000000000016868660001981018181106123c957fe5b905060200201356001600160a01b03166001600160a01b031614612422576040805162461bcd60e51b81526020600482015260186024820152600080516020615091833981519152604482015290519081900360640190fd5b61248f88888080602002602001604051908101604052809392919081815260200183836020028082843760009201919091525050604080516020808c0282810182019093528b82529093508b92508a918291850190849080828437600092019190915250613f1392505050565b6124fd8a89898080602002602001604051908101604052809392919081815260200183836020028082843760009201919091525050604080516020808d0282810182019093528c82529093508c92508b91829185019084908082843760009201919091525061400c92505050565b9150888260008151811061250d57fe5b602002602001015111156125525760405162461bcd60e51b81526004018080602001828103825260228152602001806151e26022913960400191505060405180910390fd5b6125be338989600081811061256357fe5b905060200201356001600160a01b03168460008151811061258057fe5b60200260200101518989600081811061259557fe5b905060200201356001600160a01b03166001600160a01b031661454f909392919063ffffffff16565b61262e8289898080602002602001604051908101604052809392919081815260200183836020028082843760009201919091525050604080516020808d0282810182019093528c82529093508c92508b91829185019084908082843760009201919091525030925061412d915050565b7f00000000000000000000000000000000000000000000000000000000000000006001600160a01b0316632e1a7d4d8360018551038151811061266d57fe5b60200260200101516040518263ffffffff1660e01b815260040180828152602001915050600060405180830381600087803b1580156126ab57600080fd5b505af11580156126bf573d6000803e3d6000fd5b505050506126e484836001855103815181106126d757fe5b6020026020010151613e20565b5098975050505050505050565b8042811015612735576040805162461bcd60e51b8152602060048201526013602482015260008051602061517d833981519152604482015290519081900360640190fd5b6001600160a01b037f0000000000000000000000000000000000000000000000000000000000000000168585600019810181811061276f57fe5b905060200201356001600160a01b03166001600160a01b0316146127c8576040805162461bcd60e51b81526020600482015260186024820152600080516020615091833981519152604482015290519081900360640190fd5b6127f733888860008181106127d957fe5b905060200201356001600160a01b03168b8888600081811061259557fe5b61286687878080602002602001604051908101604052809392919081815260200183836020028082843760009201919091525050604080516020808b0282810182019093528a82529093508a925089918291850190849080828437600092019190915250309250613b4e915050565b60007f00000000000000000000000000000000000000000000000000000000000000006001600160a01b03166370a08231306040518263ffffffff1660e01b815260040180826001600160a01b0316815260200191505060206040518083038186803b1580156128d557600080fd5b505afa1580156128e9573d6000803e3d6000fd5b505050506040513d60208110156128ff57600080fd5b50519050888110156129425760405162461bcd60e51b81526004018080602001828103825260268152602001806151576026913960400191505060405180910390fd5b7f00000000000000000000000000000000000000000000000000000000000000006001600160a01b0316632e1a7d4d826040518263ffffffff1660e01b815260040180828152602001915050600060405180830381600087803b1580156129a857600080fd5b505af11580156129bc573d6000803e3d6000fd5b505050506117cb8482613e20565b7f000000000000000000000000000000000000000000000000000000000000000081565b6000546001600160a01b031690565b60608142811015612a43576040805162461bcd60e51b8152602060048201526013602482015260008051602061517d833981519152604482015290519081900360640190fd5b7f00000000000000000000000000000000000000000000000000000000000000006001600160a01b031686866000818110612a7a57fe5b905060200201356001600160a01b03166001600160a01b031614612ad3576040805162461bcd60e51b81526020600482015260186024820152600080516020615091833981519152604482015290519081900360640190fd5b612b4088888080602002602001604051908101604052809392919081815260200183836020028082843760009201919091525050604080516020808c0282810182019093528b82529093508b92508a918291850190849080828437600092019190915250613f1392505050565b612bae3489898080602002602001604051908101604052809392919081815260200183836020028082843760009201919091525050604080516020808d0282810182019093528c82529093508c92508b9182918501908490808284376000920191909152506145a992505050565b91508882600184510381518110612bc157fe5b60200260200101511015612c065760405162461bcd60e51b81526004018080602001828103825260268152602001806151576026913960400191505060405180910390fd5b7f00000000000000000000000000000000000000000000000000000000000000006001600160a01b031663d0e30db083600081518110612c4257fe5b60200260200101516040518263ffffffff1660e01b81526004016000604051808303818588803b158015612c7557600080fd5b505af1158015612c89573d6000803e3d6000fd5b5050505050612c9e88886000818110611b9a57fe5b611ca48289898080602002602001604051908101604052809392919081815260200183836020028082843760009201919091525050604080516020808d0282810182019093528c82529093508c92508b9182918501908490808284376000920191909152508a925061412d915050565b6060612d7d85858080602002602001604051908101604052809392919081815260200183836020028082843760009201919091525050604080516020808902828101820190935288825290935088925087918291850190849080828437600092019190915250613f1392505050565b612deb8686868080602002602001604051908101604052809392919081815260200183836020028082843760009201919091525050604080516020808a0282810182019093528982529093508992508891829185019084908082843760009201919091525061400c92505050565b9695505050505050565b6060612e6485858080602002602001604051908101604052809392919081815260200183836020028082843760009201919091525050604080516020808902828101820190935288825290935088925087918291850190849080828437600092019190915250613f1392505050565b612deb8686868080602002602001604051908101604052809392919081815260200183836020028082843760009201919091525050604080516020808a028281018201909352898252909350899250889182918501908490808284376000920191909152506145a992505050565b6000612edf8484846146b1565b90505b9392505050565b60608142811015612f2f576040805162461bcd60e51b8152602060048201526013602482015260008051602061517d833981519152604482015290519081900360640190fd5b612f398686613f13565b612f4488878761400c565b91508682600081518110612f5457fe5b60200260200101511115612f995760405162461bcd60e51b81526004018080602001828103825260228152602001806151e26022913960400191505060405180910390fd5b612ff53387600081518110612faa57fe5b602002602001015184600081518110612fbf57fe5b602002602001015188600081518110612fd457fe5b60200260200101516001600160a01b031661454f909392919063ffffffff16565b6130018287878761412d565b509695505050505050565b7f000000000000000000000000000000000000000000000000000000000000000081565b60608142811015613076576040805162461bcd60e51b8152602060048201526013602482015260008051602061517d833981519152604482015290519081900360640190fd5b6130808686613f13565b61308b8887876145a9565b9150868260018451038151811061309e57fe5b60200260200101511015612f995760405162461bcd60e51b81526004018080602001828103825260268152602001806151576026913960400191505060405180910390fd5b600080856130f1578a6130f5565b6000195b6040805163d505accf60e01b815233600482015230602482015260448101839052606481018a905260ff8816608482015260a4810187905260c4810186905290519192506001600160a01b038e169163d505accf9160e48082019260009290919082900301818387803b15801561316b57600080fd5b505af115801561317f573d6000803e3d6000fd5b505050506131928d8d8d8d8d8d8d61364c565b9d9c50505050505050505050505050565b60008082428110156131ea576040805162461bcd60e51b8152602060048201526013602482015260008051602061517d833981519152604482015290519081900360640190fd5b6131f58b8b8b614342565b61320a6001600160a01b038a16338b8b61454f565b6000808a6001600160a01b03166389afcb44886040518263ffffffff1660e01b815260040180826001600160a01b031681526020019150506040805180830381600087803b15801561325b57600080fd5b505af115801561326f573d6000803e3d6000fd5b505050506040513d604081101561328557600080fd5b5080516020909101519092509050600061329f8e8e614771565b509050806001600160a01b03168e6001600160a01b0316146132c25781836132c5565b82825b9096509450898610156133095760405162461bcd60e51b81526004018080602001828103825260218152602001806150b16021913960400191505060405180910390fd5b888510156133485760405162461bcd60e51b81526004018080602001828103825260218152602001806150f56021913960400191505060405180910390fd5b505050509850989650505050505050565b804281101561339d576040805162461bcd60e51b8152602060048201526013602482015260008051602061517d833981519152604482015290519081900360640190fd5b6133c433866000815181106133ae57fe5b60200260200101518987600081518110612fd457fe5b6000846001865103815181106133d657fe5b60200260200101516001600160a01b03166370a08231856040518263ffffffff1660e01b815260040180826001600160a01b0316815260200191505060206040518083038186803b15801561342a57600080fd5b505afa15801561343e573d6000803e3d6000fd5b505050506040513d602081101561345457600080fd5b50519050613463868686613b4e565b60008560018751038151811061347557fe5b60200260200101516001600160a01b03166370a08231866040518263ffffffff1660e01b815260040180826001600160a01b0316815260200191505060206040518083038186803b1580156134c957600080fd5b505afa1580156134dd573d6000803e3d6000fd5b505050506040513d60208110156134f357600080fd5b50519050613501828961485d565b81101561353f5760405162461bcd60e51b81526004018080602001828103825260268152602001806151576026913960400191505060405180910390fd5b505050505050505050565b613552613af3565b6001600160a01b03166135636129ee565b6001600160a01b0316146135ac576040805162461bcd60e51b81526020600482018190526024820152600080516020615137833981519152604482015290519081900360640190fd5b6001600160a01b0381166135f15760405162461bcd60e51b81526004018080602001828103825260268152602001806150256026913960400191505060405180910390fd5b600080546040516001600160a01b03808516939216917f8be0079c531659141344cd1fd0a4f28419497f9722a3daafe3b4186f6b6457e091a3600080546001600160a01b0319166001600160a01b0392909216919091179055565b60008142811015613692576040805162461bcd60e51b8152602060048201526013602482015260008051602061517d833981519152604482015290519081900360640190fd5b6136c2897f00000000000000000000000000000000000000000000000000000000000000008a8a8a8a308a6131a3565b604080516370a0823160e01b8152306004820152905191945061374f925086916001600160a01b038d16916370a08231916024808301926020929190829003018186803b15801561371257600080fd5b505afa158015613726573d6000803e3d6000fd5b505050506040513d602081101561373c57600080fd5b50516001600160a01b038c169190613af7565b7f00000000000000000000000000000000000000000000000000000000000000006001600160a01b0316632e1a7d4d836040518263ffffffff1660e01b815260040180828152602001915050600060405180830381600087803b1580156137b557600080fd5b505af11580156137c9573d6000803e3d6000fd5b50505050611ca48483613e20565b60008060008342811015613820576040805162461bcd60e51b8152602060048201526013602482015260008051602061517d833981519152604482015290519081900360640190fd5b61382b8d8d8d614342565b61383a8d8d8d8d8d8d8d61444e565b909450925061384b8d338d8761454f565b6138578c338d8661454f565b8a6001600160a01b0316636a627842876040518263ffffffff1660e01b815260040180826001600160a01b03168152602001915050602060405180830381600087803b1580156138a657600080fd5b505af11580156138ba573d6000803e3d6000fd5b505050506040513d60208110156138d057600080fd5b5051939d929c50929a509098505050505050505050565b6060814281101561392d576040805162461bcd60e51b8152602060048201526013602482015260008051602061517d833981519152604482015290519081900360640190fd5b6001600160a01b037f0000000000000000000000000000000000000000000000000000000000000000168686600019810181811061396757fe5b905060200201356001600160a01b03166001600160a01b0316146139c0576040805162461bcd60e51b81526020600482015260186024820152600080516020615091833981519152604482015290519081900360640190fd5b613a2d88888080602002602001604051908101604052809392919081815260200183836020028082843760009201919091525050604080516020808c0282810182019093528b82529093508b92508a918291850190849080828437600092019190915250613f1392505050565b613a9b8a89898080602002602001604051908101604052809392919081815260200183836020028082843760009201919091525050604080516020808d0282810182019093528c82529093508c92508b9182918501908490808284376000920191909152506145a992505050565b91508882600184510381518110613aae57fe5b602002602001015110156125525760405162461bcd60e51b81526004018080602001828103825260268152602001806151576026913960400191505060405180910390fd5b3390565b604080516001600160a01b038416602482015260448082018490528251808303909101815260649091019091526020810180516001600160e01b031663a9059cbb60e01b179052613b499084906148b7565b505050565b613b588383613f13565b60005b6001835103811015613db857600080848381518110613b7657fe5b6020026020010151858460010181518110613b8d57fe5b6020026020010151915091506000613ba58383614771565b5090506000878581518110613bb657fe5b60200260200101519050600080600080600080613be78e8c81518110613bd857fe5b60200260200101518b8b614968565b945094509450945094506000613c44868c6001600160a01b03166370a082318b6040518263ffffffff1660e01b815260040180826001600160a01b0316815260200191505060206040518083038186803b15801561175c57600080fd5b9050613c54818787878787614a5b565b9650505050505050600080846001600160a01b0316876001600160a01b031614613c8057826000613c84565b6000835b91509150600060028b51038910613c9b5789613cb3565b8b8960010181518110613caa57fe5b60200260200101515b604080516000808252602082019283905263022c0d9f60e01b835260248201878152604483018790526001600160a01b038086166064850152608060848501908152845160a48601819052969750908b169563022c0d9f958a958a958a9591949193919260c486019290918190849084905b83811015613d3d578181015183820152602001613d25565b50505050905090810190601f168015613d6a5780820380516001836020036101000a031916815260200191505b5095505050505050600060405180830381600087803b158015613d8c57600080fd5b505af1158015613da0573d6000803e3d6000fd5b50506001909a019950613b5b98505050505050505050565b50505050565b600082821115613e15576040805162461bcd60e51b815260206004820152601e60248201527f536166654d6174683a207375627472616374696f6e206f766572666c6f770000604482015290519081900360640190fd5b508082035b92915050565b604080516000808252602082019092526001600160a01b0384169083906040518082805190602001908083835b60208310613e6c5780518252601f199092019160209182019101613e4d565b6001836020036101000a03801982511681845116808217855250505050505090500191505060006040518083038185875af1925050503d8060008114613ece576040519150601f19603f3d011682016040523d82523d6000602084013e613ed3565b606091505b5050905080613b495760405162461bcd60e51b81526004018080602001828103825260238152602001806151bf6023913960400191505060405180910390fd5b600281511015613f58576040805162461bcd60e51b81526020600482015260186024820152600080516020615091833981519152604482015290519081900360640190fd5b6001815103825114613fb1576040805162461bcd60e51b815260206004820152601e60248201527f42554e49524f555445523a20494e56414c49445f504f4f4c535f504154480000604482015290519081900360640190fd5b60005b8251811015613b4957614004828281518110613fcc57fe5b6020026020010151838360010181518110613fe357fe5b6020026020010151858481518110613ff757fe5b6020026020010151614342565b600101613fb4565b6060815167ffffffffffffffff8111801561402657600080fd5b50604051908082528060200260200182016040528015614050578160200160208202803683370190505b509050838160018351038151811061406457fe5b60209081029190910101528151600019015b80156141255760008060008060006140ce89600188038151811061409657fe5b60200260200101518960018903815181106140ad57fe5b60200260200101518a89815181106140c157fe5b6020026020010151614968565b945094509450945094506140f98787815181106140e757fe5b60200260200101518686868686614b8b565b87600188038151811061410857fe5b602090810291909101015250506000199093019250614076915050565b509392505050565b60005b600183510381101561433b5760008084838151811061414b57fe5b602002602001015185846001018151811061416257fe5b602002602001015191509150600061417a8383614771565b509050600088856001018151811061418e57fe5b60200260200101519050600080836001600160a01b0316866001600160a01b0316146141bc578260006141c0565b6000835b91509150600060028a510388106141d757886141ef565b8a88600101815181106141e657fe5b60200260200101515b90508a88815181106141fd57fe5b60200260200101516001600160a01b031663022c0d9f848484600067ffffffffffffffff8111801561422e57600080fd5b506040519080825280601f01601f191660200182016040528015614259576020820181803683370190505b506040518563ffffffff1660e01b815260040180858152602001848152602001836001600160a01b0316815260200180602001828103825283818151815260200191508051906020019080838360005b838110156142c15781810151838201526020016142a9565b50505050905090810190601f1680156142ee5780820380516001836020036101000a031916815260200191505b5095505050505050600060405180830381600087803b15801561431057600080fd5b505af1158015614324573d6000803e3d6000fd5b505060019099019850614130975050505050505050565b5050505050565b7f00000000000000000000000000000000000000000000000000000000000000006001600160a01b031663eb787f618484846040518463ffffffff1660e01b815260040180846001600160a01b03168152602001836001600160a01b03168152602001826001600160a01b03168152602001935050505060206040518083038186803b1580156143d157600080fd5b505afa1580156143e5573d6000803e3d6000fd5b505050506040513d60208110156143fb57600080fd5b5051613b49576040805162461bcd60e51b815260206004820152601860248201527f42554e49524f555445523a20494e56414c49445f504f4f4c0000000000000000604482015290519081900360640190fd5b60008060008061445f898c8c614c93565b91509150816000148015614471575080155b1561448157879350869250614541565b600061448e8984846146b1565b90508781116144e157858110156144d65760405162461bcd60e51b81526004018080602001828103825260218152602001806150f56021913960400191505060405180910390fd5b88945092508261453f565b60006144ee8984866146b1565b9050898111156144fa57fe5b878110156145395760405162461bcd60e51b81526004018080602001828103825260218152602001806150b16021913960400191505060405180910390fd5b94508793505b505b505097509795505050505050565b604080516001600160a01b0380861660248301528416604482015260648082018490528251808303909101815260849091019091526020810180516001600160e01b03166323b872dd60e01b179052613db89085906148b7565b6060815167ffffffffffffffff811180156145c357600080fd5b506040519080825280602002602001820160405280156145ed578160200160208202803683370190505b50905083816000815181106145fe57fe5b60200260200101818152505060005b600183510381101561412557600080600080600061465b89878151811061463057fe5b602002602001015189888151811061464457fe5b60200260200101518a89600101815181106140c157fe5b9450945094509450945061468687878151811061467457fe5b60200260200101518686868686614a5b565b87876001018151811061469557fe5b602090810291909101015250506001909301925061460d915050565b6000808411614707576040805162461bcd60e51b815260206004820152601c60248201527f42554e494c49423a20494e53554646494349454e545f414d4f554e5400000000604482015290519081900360640190fd5b6000831180156147175750600082115b614756576040805162461bcd60e51b815260206004820152601f602482015260008051602061504b833981519152604482015290519081900360640190fd5b826147618584614d4f565b8161476857fe5b04949350505050565b600080826001600160a01b0316846001600160a01b031614156147db576040805162461bcd60e51b815260206004820152601c60248201527f42554e494c49423a204944454e544943414c5f41444452455353455300000000604482015290519081900360640190fd5b826001600160a01b0316846001600160a01b0316106147fb5782846147fe565b83835b90925090506001600160a01b038216614856576040805162461bcd60e51b815260206004820152601560248201527442554e494c49423a205a45524f5f4144445245535360581b604482015290519081900360640190fd5b9250929050565b600082820183811015612ee2576040805162461bcd60e51b815260206004820152601b60248201527f536166654d6174683a206164646974696f6e206f766572666c6f770000000000604482015290519081900360640190fd5b606061490c826040518060400160405280602081526020017f5361666545524332303a206c6f772d6c6576656c2063616c6c206661696c6564815250856001600160a01b0316614da89092919063ffffffff16565b805190915015613b495780806020019051602081101561492b57600080fd5b5051613b495760405162461bcd60e51b815260040180806020018281038252602a815260200180615204602a913960400191505060405180910390fd5b60008060008060008061497b8888614771565b5090506000806000808c6001600160a01b031663d66940276040518163ffffffff1660e01b815260040160a06040518083038186803b1580156149bd57600080fd5b505afa1580156149d1573d6000803e3d6000fd5b505050506040513d60a08110156149e757600080fd5b50805160208201516040830151606084015160809094015199506001600160701b0392831697509082169550811693501690506001600160a01b038c811690861614614a365782848284614a3b565b838383835b809a50819b50829c50839d50505050505050505050939792965093509350565b6000808711614a9b5760405162461bcd60e51b815260040180806020018281038252602281526020018061519d6022913960400191505060405180910390fd5b600086118015614aab5750600085115b614aea576040805162461bcd60e51b815260206004820152601f602482015260008051602061504b833981519152604482015290519081900360640190fd5b6000614b12670de0b6b3a7640000614b0c614b058287613dbe565b8b90614d4f565b90614db7565b90506000614b208286614d4f565b90506000614b2e878461485d565b9050614b3a8282614db7565b9350838811614b7e576040805162461bcd60e51b815260206004820152601f602482015260008051602061504b833981519152604482015290519081900360640190fd5b5050509695505050505050565b6000808711614bcb5760405162461bcd60e51b81526004018080602001828103825260238152602001806150d26023913960400191505060405180910390fd5b600086118015614bda57508685115b614c19576040805162461bcd60e51b815260206004820152601f602482015260008051602061504b833981519152604482015290519081900360640190fd5b6000614c258589614d4f565b90506000614c33858a613dbe565b9050614c4a6001614c448484614db7565b9061485d565b9250614c5e83670de0b6b3a7640000614d4f565b9150614c72670de0b6b3a764000085613dbe565b9050614c8681614b0c84600019830161485d565b9998505050505050505050565b6000806000614ca28585614771565b509050600080876001600160a01b0316630902f1ac6040518163ffffffff1660e01b8152600401604080518083038186803b158015614ce057600080fd5b505afa158015614cf4573d6000803e3d6000fd5b505050506040513d6040811015614d0a57600080fd5b5080516020909101516001600160701b0391821693501690506001600160a01b0387811690841614614d3d578082614d40565b81815b90999098509650505050505050565b600082614d5e57506000613e1a565b82820282848281614d6b57fe5b0414612ee25760405162461bcd60e51b81526004018080602001828103825260218152602001806151166021913960400191505060405180910390fd5b6060612edf8484600085614e1e565b6000808211614e0d576040805162461bcd60e51b815260206004820152601a60248201527f536166654d6174683a206469766973696f6e206279207a65726f000000000000604482015290519081900360640190fd5b818381614e1657fe5b049392505050565b606082471015614e5f5760405162461bcd60e51b815260040180806020018281038252602681526020018061506b6026913960400191505060405180910390fd5b614e6885614f7a565b614eb9576040805162461bcd60e51b815260206004820152601d60248201527f416464726573733a2063616c6c20746f206e6f6e2d636f6e7472616374000000604482015290519081900360640190fd5b60006060866001600160a01b031685876040518082805190602001908083835b60208310614ef85780518252601f199092019160209182019101614ed9565b6001836020036101000a03801982511681845116808217855250505050505090500191505060006040518083038185875af1925050503d8060008114614f5a576040519150601f19603f3d011682016040523d82523d6000602084013e614f5f565b606091505b5091509150614f6f828286614f80565b979650505050505050565b3b151590565b60608315614f8f575081612ee2565b825115614f9f5782518084602001fd5b8160405162461bcd60e51b81526004018080602001828103825283818151815260200191508051906020019080838360005b83811015614fe9578181015183820152602001614fd1565b50505050905090810190601f1680156150165780820380516001836020036101000a031916815260200191505b509250505060405180910390fdfe4f776e61626c653a206e6577206f776e657220697320746865207a65726f206164647265737342554e494c49423a20494e53554646494349454e545f4c495155494449545900416464726573733a20696e73756666696369656e742062616c616e636520666f722063616c6c42554e49524f555445523a20494e56414c49445f50415448000000000000000042554e49524f555445523a20494e53554646494349454e545f415f414d4f554e5442554e494c49423a20494e53554646494349454e545f4f55545055545f414d4f554e5442554e49524f555445523a20494e53554646494349454e545f425f414d4f554e54536166654d6174683a206d756c7469706c69636174696f6e206f766572666c6f774f776e61626c653a2063616c6c6572206973206e6f7420746865206f776e657242554e49524f555445523a20494e53554646494349454e545f4f55545055545f414d4f554e5442554e49524f555445523a20455850495245440000000000000000000000000042554e494c49423a20494e53554646494349454e545f494e5055545f414d4f554e545472616e7366657248656c7065723a204554485f5452414e534645525f4641494c454442554e49524f555445523a204558434553534956455f494e5055545f414d4f554e545361666545524332303a204552433230206f7065726174696f6e20646964206e6f742073756363656564a26469706673582212207963d3fd73d224fae2aa3a67879c486eb5b5a11150ecf1e03dc5e46f00e42b7c64736f6c634300060c0033",
  "linkReferences": {},
  "deployedLinkReferences": {}
}