{
  "_format": "hh-sol-artifact-1",
  "contractName": "BuniCornRouter02",
  "sourceName": "contracts/periphery/BuniCornRouter02.sol",
  "abi": [
    {
      "inputs": [
        {
          "internalType": "address",
          "name": "_factory",
          "type": "address"
        }
      ],
      "stateMutability": "nonpayable",
      "type": "constructor"
    },
    {
      "anonymous": false,
      "inputs": [
        {
          "indexed": true,
          "internalType": "address",
          "name": "previousOwner",
          "type": "address"
        },
        {
          "indexed": true,
          "internalType": "address",
          "name": "newOwner",
          "type": "address"
        }
      ],
      "name": "OwnershipTransferred",
      "type": "event"
    },
    {
      "inputs": [
        {
          "internalType": "contract IERC20",
          "name": "tokenA",
          "type": "address"
        },
        {
          "internalType": "contract IERC20",
          "name": "tokenB",
          "type": "address"
        },
        {
          "internalType": "address",
          "name": "pool",
          "type": "address"
        },
        {
          "internalType": "uint256",
          "name": "amountADesired",
          "type": "uint256"
        },
        {
          "internalType": "uint256",
          "name": "amountBDesired",
          "type": "uint256"
        },
        {
          "internalType": "uint256",
          "name": "amountAMin",
          "type": "uint256"
        },
        {
          "internalType": "uint256",
          "name": "amountBMin",
          "type": "uint256"
        },
        {
          "internalType": "uint256[2]",
          "name": "vReserveRatioBounds",
          "type": "uint256[2]"
        },
        {
          "internalType": "address",
          "name": "to",
          "type": "address"
        },
        {
          "internalType": "uint256",
          "name": "deadline",
          "type": "uint256"
        }
      ],
      "name": "addLiquidity",
      "outputs": [
        {
          "internalType": "uint256",
          "name": "amountA",
          "type": "uint256"
        },
        {
          "internalType": "uint256",
          "name": "amountB",
          "type": "uint256"
        },
        {
          "internalType": "uint256",
          "name": "liquidity",
          "type": "uint256"
        }
      ],
      "stateMutability": "nonpayable",
      "type": "function"
    },
    {
      "inputs": [
        {
          "internalType": "contract IERC20",
          "name": "tokenA",
          "type": "address"
        },
        {
          "internalType": "contract IERC20",
          "name": "tokenB",
          "type": "address"
        },
        {
          "internalType": "uint32",
          "name": "ampBps",
          "type": "uint32"
        },
        {
          "internalType": "uint256",
          "name": "amountADesired",
          "type": "uint256"
        },
        {
          "internalType": "uint256",
          "name": "amountBDesired",
          "type": "uint256"
        },
        {
          "internalType": "uint256",
          "name": "amountAMin",
          "type": "uint256"
        },
        {
          "internalType": "uint256",
          "name": "amountBMin",
          "type": "uint256"
        },
        {
          "internalType": "address",
          "name": "to",
          "type": "address"
        },
        {
          "internalType": "uint256",
          "name": "deadline",
          "type": "uint256"
        }
      ],
      "name": "addLiquidityNewPool",
      "outputs": [
        {
          "internalType": "uint256",
          "name": "amountA",
          "type": "uint256"
        },
        {
          "internalType": "uint256",
          "name": "amountB",
          "type": "uint256"
        },
        {
          "internalType": "uint256",
          "name": "liquidity",
          "type": "uint256"
        }
      ],
      "stateMutability": "nonpayable",
      "type": "function"
    },
    {
      "inputs": [],
      "name": "factory",
      "outputs": [
        {
          "internalType": "address",
          "name": "",
          "type": "address"
        }
      ],
      "stateMutability": "view",
      "type": "function"
    },
    {
      "inputs": [
        {
          "internalType": "uint256",
          "name": "amountOut",
          "type": "uint256"
        },
        {
          "internalType": "address[]",
          "name": "poolsPath",
          "type": "address[]"
        },
        {
          "internalType": "contract IERC20[]",
          "name": "path",
          "type": "address[]"
        }
      ],
      "name": "getAmountsIn",
      "outputs": [
        {
          "internalType": "uint256[]",
          "name": "amounts",
          "type": "uint256[]"
        }
      ],
      "stateMutability": "view",
      "type": "function"
    },
    {
      "inputs": [
        {
          "internalType": "uint256",
          "name": "amountIn",
          "type": "uint256"
        },
        {
          "internalType": "address[]",
          "name": "poolsPath",
          "type": "address[]"
        },
        {
          "internalType": "contract IERC20[]",
          "name": "path",
          "type": "address[]"
        }
      ],
      "name": "getAmountsOut",
      "outputs": [
        {
          "internalType": "uint256[]",
          "name": "amounts",
          "type": "uint256[]"
        }
      ],
      "stateMutability": "view",
      "type": "function"
    },
    {
      "inputs": [],
      "name": "owner",
      "outputs": [
        {
          "internalType": "address",
          "name": "",
          "type": "address"
        }
      ],
      "stateMutability": "view",
      "type": "function"
    },
    {
      "inputs": [
        {
          "internalType": "uint256",
          "name": "amountA",
          "type": "uint256"
        },
        {
          "internalType": "uint256",
          "name": "reserveA",
          "type": "uint256"
        },
        {
          "internalType": "uint256",
          "name": "reserveB",
          "type": "uint256"
        }
      ],
      "name": "quote",
      "outputs": [
        {
          "internalType": "uint256",
          "name": "amountB",
          "type": "uint256"
        }
      ],
      "stateMutability": "pure",
      "type": "function"
    },
    {
      "inputs": [
        {
          "internalType": "contract IERC20",
          "name": "tokenA",
          "type": "address"
        },
        {
          "internalType": "contract IERC20",
          "name": "tokenB",
          "type": "address"
        },
        {
          "internalType": "address",
          "name": "pool",
          "type": "address"
        },
        {
          "internalType": "uint256",
          "name": "liquidity",
          "type": "uint256"
        },
        {
          "internalType": "uint256",
          "name": "amountAMin",
          "type": "uint256"
        },
        {
          "internalType": "uint256",
          "name": "amountBMin",
          "type": "uint256"
        },
        {
          "internalType": "address",
          "name": "to",
          "type": "address"
        },
        {
          "internalType": "uint256",
          "name": "deadline",
          "type": "uint256"
        }
      ],
      "name": "removeLiquidity",
      "outputs": [
        {
          "internalType": "uint256",
          "name": "amountA",
          "type": "uint256"
        },
        {
          "internalType": "uint256",
          "name": "amountB",
          "type": "uint256"
        }
      ],
      "stateMutability": "nonpayable",
      "type": "function"
    },
    {
      "inputs": [
        {
          "internalType": "contract IERC20",
          "name": "tokenA",
          "type": "address"
        },
        {
          "internalType": "contract IERC20",
          "name": "tokenB",
          "type": "address"
        },
        {
          "internalType": "address",
          "name": "pool",
          "type": "address"
        },
        {
          "internalType": "uint256",
          "name": "liquidity",
          "type": "uint256"
        },
        {
          "internalType": "uint256",
          "name": "amountAMin",
          "type": "uint256"
        },
        {
          "internalType": "uint256",
          "name": "amountBMin",
          "type": "uint256"
        },
        {
          "internalType": "address",
          "name": "to",
          "type": "address"
        },
        {
          "internalType": "uint256",
          "name": "deadline",
          "type": "uint256"
        },
        {
          "internalType": "bool",
          "name": "approveMax",
          "type": "bool"
        },
        {
          "internalType": "uint8",
          "name": "v",
          "type": "uint8"
        },
        {
          "internalType": "bytes32",
          "name": "r",
          "type": "bytes32"
        },
        {
          "internalType": "bytes32",
          "name": "s",
          "type": "bytes32"
        }
      ],
      "name": "removeLiquidityWithPermit",
      "outputs": [
        {
          "internalType": "uint256",
          "name": "amountA",
          "type": "uint256"
        },
        {
          "internalType": "uint256",
          "name": "amountB",
          "type": "uint256"
        }
      ],
      "stateMutability": "nonpayable",
      "type": "function"
    },
    {
      "inputs": [],
      "name": "renounceOwnership",
      "outputs": [],
      "stateMutability": "nonpayable",
      "type": "function"
    },
    {
      "inputs": [
        {
          "internalType": "uint256",
          "name": "amountIn",
          "type": "uint256"
        },
        {
          "internalType": "uint256",
          "name": "amountOutMin",
          "type": "uint256"
        },
        {
          "internalType": "address[]",
          "name": "poolsPath",
          "type": "address[]"
        },
        {
          "internalType": "contract IERC20[]",
          "name": "path",
          "type": "address[]"
        },
        {
          "internalType": "address",
          "name": "to",
          "type": "address"
        },
        {
          "internalType": "uint256",
          "name": "deadline",
          "type": "uint256"
        }
      ],
      "name": "swapExactTokensForTokens",
      "outputs": [
        {
          "internalType": "uint256[]",
          "name": "amounts",
          "type": "uint256[]"
        }
      ],
      "stateMutability": "nonpayable",
      "type": "function"
    },
    {
      "inputs": [
        {
          "internalType": "uint256",
          "name": "amountIn",
          "type": "uint256"
        },
        {
          "internalType": "uint256",
          "name": "amountOutMin",
          "type": "uint256"
        },
        {
          "internalType": "address[]",
          "name": "poolsPath",
          "type": "address[]"
        },
        {
          "internalType": "contract IERC20[]",
          "name": "path",
          "type": "address[]"
        },
        {
          "internalType": "address",
          "name": "to",
          "type": "address"
        },
        {
          "internalType": "uint256",
          "name": "deadline",
          "type": "uint256"
        }
      ],
      "name": "swapExactTokensForTokensSupportingFeeOnTransferTokens",
      "outputs": [],
      "stateMutability": "nonpayable",
      "type": "function"
    },
    {
      "inputs": [
        {
          "internalType": "uint256",
          "name": "amountOut",
          "type": "uint256"
        },
        {
          "internalType": "uint256",
          "name": "amountInMax",
          "type": "uint256"
        },
        {
          "internalType": "address[]",
          "name": "poolsPath",
          "type": "address[]"
        },
        {
          "internalType": "contract IERC20[]",
          "name": "path",
          "type": "address[]"
        },
        {
          "internalType": "address",
          "name": "to",
          "type": "address"
        },
        {
          "internalType": "uint256",
          "name": "deadline",
          "type": "uint256"
        }
      ],
      "name": "swapTokensForExactTokens",
      "outputs": [
        {
          "internalType": "uint256[]",
          "name": "amounts",
          "type": "uint256[]"
        }
      ],
      "stateMutability": "nonpayable",
      "type": "function"
    },
    {
      "inputs": [
        {
          "internalType": "address",
          "name": "newOwner",
          "type": "address"
        }
      ],
      "name": "transferOwnership",
      "outputs": [],
      "stateMutability": "nonpayable",
      "type": "function"
    }
  ],
  "bytecode": "0x60a06040523480156200001157600080fd5b5060405162002d8d38038062002d8d833981810160405260208110156200003757600080fd5b5051600062000045620000a5565b600080546001600160a01b0319166001600160a01b0383169081178255604051929350917f8be0079c531659141344cd1fd0a4f28419497f9722a3daafe3b4186f6b6457e0908290a35060601b6001600160601b031916608052620000a9565b3390565b60805160601c612cb7620000d6600039806109a45280610a5f528061112352806116d15250612cb76000f3fe608060405234801561001057600080fd5b50600436106100ea5760003560e01c8063ad615dec1161008c578063ceb757d511610066578063ceb757d514610620578063e1f4a7841461075d578063e8898b5f146107b4578063f2fde38b146108f1576100ea565b8063ad615dec146104a0578063ae8290b7146104db578063c45a015514610618576100ea565b8063715018a6116100c8578063715018a6146102985780638da5cb5b146102a25780639e269b68146102c6578063a8312b1d146103db576100ea565b80631c5d0a6b146100ef57806324341934146101715780634c17fd7c14610207575b600080fd5b610153600480360361012081101561010657600080fd5b506001600160a01b038135811691602081013582169163ffffffff6040830135169160608101359160808201359160a08101359160c08201359160e0810135909116906101000135610917565b60408051938452602084019290925282820152519081900360600190f35b610153600480360361016081101561018857600080fd5b6040805180820182526001600160a01b0384358116946020810135821694848201359092169360608201359360808301359360a08401359360c0810135939181019290916101208301919060e08401906002908390839080828437600092019190915250919450506001600160a01b0382351692505060200135610b68565b61027f600480360361018081101561021e57600080fd5b506001600160a01b0381358116916020810135821691604082013581169160608101359160808201359160a08101359160c0820135169060e08101359061010081013515159060ff6101208201351690610140810135906101600135610c82565b6040805192835260208301919091528051918290030190f35b6102a0610d4e565b005b6102aa610e0c565b604080516001600160a01b039092168252519081900360200190f35b61038b600480360360608110156102dc57600080fd5b81359190810190604081016020820135600160201b8111156102fd57600080fd5b82018360208201111561030f57600080fd5b803590602001918460208302840111600160201b8311171561033057600080fd5b919390929091602081019035600160201b81111561034d57600080fd5b82018360208201111561035f57600080fd5b803590602001918460208302840111600160201b8311171561038057600080fd5b509092509050610e1b565b60408051602080825283518183015283519192839290830191858101910280838360005b838110156103c75781810151838201526020016103af565b505050509050019250505060405180910390f35b61038b600480360360608110156103f157600080fd5b81359190810190604081016020820135600160201b81111561041257600080fd5b82018360208201111561042457600080fd5b803590602001918460208302840111600160201b8311171561044557600080fd5b919390929091602081019035600160201b81111561046257600080fd5b82018360208201111561047457600080fd5b803590602001918460208302840111600160201b8311171561049557600080fd5b509092509050610f02565b6104c9600480360360608110156104b657600080fd5b5080359060208101359060400135610fdf565b60408051918252519081900360200190f35b61038b600480360360c08110156104f157600080fd5b813591602081013591810190606081016040820135600160201b81111561051757600080fd5b82018360208201111561052957600080fd5b803590602001918460208302840111600160201b8311171561054a57600080fd5b9190808060200260200160405190810160405280939291908181526020018383602002808284376000920191909152509295949360208101935035915050600160201b81111561059957600080fd5b8201836020820111156105ab57600080fd5b803590602001918460208302840111600160201b831117156105cc57600080fd5b919080806020026020016040519081016040528093929190818152602001838360200280828437600092019190915250929550506001600160a01b038335169350505060200135610ff6565b6102aa611121565b61038b600480360360c081101561063657600080fd5b813591602081013591810190606081016040820135600160201b81111561065c57600080fd5b82018360208201111561066e57600080fd5b803590602001918460208302840111600160201b8311171561068f57600080fd5b9190808060200260200160405190810160405280939291908181526020018383602002808284376000920191909152509295949360208101935035915050600160201b8111156106de57600080fd5b8201836020820111156106f057600080fd5b803590602001918460208302840111600160201b8311171561071157600080fd5b919080806020026020016040519081016040528093929190818152602001838360200280828437600092019190915250929550506001600160a01b038335169350505060200135611145565b61027f600480360361010081101561077457600080fd5b506001600160a01b0381358116916020810135821691604082013581169160608101359160808201359160a08101359160c0820135169060e00135611200565b6102a0600480360360c08110156107ca57600080fd5b813591602081013591810190606081016040820135600160201b8111156107f057600080fd5b82018360208201111561080257600080fd5b803590602001918460208302840111600160201b8311171561082357600080fd5b9190808060200260200160405190810160405280939291908181526020018383602002808284376000920191909152509295949360208101935035915050600160201b81111561087257600080fd5b82018360208201111561088457600080fd5b803590602001918460208302840111600160201b831117156108a557600080fd5b919080806020026020016040519081016040528093929190818152602001838360200280828437600092019190915250929550506001600160a01b0383351693505050602001356113be565b6102a06004803603602081101561090757600080fd5b50356001600160a01b03166115b7565b60008060006109246116cb565b6001600160a01b0316610935610e0c565b6001600160a01b031614610990576040805162461bcd60e51b815260206004820181905260248201527f4f776e61626c653a2063616c6c6572206973206e6f7420746865206f776e6572604482015290519081900360640190fd5b60006127108b63ffffffff161415610a4f577f00000000000000000000000000000000000000000000000000000000000000006001600160a01b0316633d82497e8e8e6040518363ffffffff1660e01b815260040180836001600160a01b03168152602001826001600160a01b031681526020019250505060206040518083038186803b158015610a2057600080fd5b505afa158015610a34573d6000803e3d6000fd5b505050506040513d6020811015610a4a57600080fd5b505190505b6001600160a01b038116610b1a577f00000000000000000000000000000000000000000000000000000000000000006001600160a01b0316638fd648408e8e8e6040518463ffffffff1660e01b815260040180846001600160a01b03168152602001836001600160a01b031681526020018263ffffffff1681526020019350505050602060405180830381600087803b158015610aeb57600080fd5b505af1158015610aff573d6000803e3d6000fd5b505050506040513d6020811015610b1557600080fd5b505190505b610b22612abb565b5060408051808201909152600081526000196020820152610b4b8e8e848e8e8e8e888f8f610b68565b809550819650829750505050505099509950999650505050505050565b60008060008342811015610bb9576040805162461bcd60e51b8152602060048201526013602482015272109553925493d55511548e8811561412549151606a1b604482015290519081900360640190fd5b610bc48e8e8e6116cf565b610bd48e8e8e8e8e8e8e8e6117e0565b9094509250610be58e338e87611952565b610bf18d338e86611952565b8b6001600160a01b0316636a627842876040518263ffffffff1660e01b815260040180826001600160a01b03168152602001915050602060405180830381600087803b158015610c4057600080fd5b505af1158015610c54573d6000803e3d6000fd5b505050506040513d6020811015610c6a57600080fd5b5051939e929d50929b50909950505050505050505050565b600080600086610c92578b610c96565b6000195b6040805163d505accf60e01b815233600482015230602482015260448101839052606481018b905260ff8916608482015260a4810188905260c4810187905290519192506001600160a01b038f169163d505accf9160e48082019260009290919082900301818387803b158015610d0c57600080fd5b505af1158015610d20573d6000803e3d6000fd5b50505050610d348f8f8f8f8f8f8f8f611200565b8093508194505050509c509c9a5050505050505050505050565b610d566116cb565b6001600160a01b0316610d67610e0c565b6001600160a01b031614610dc2576040805162461bcd60e51b815260206004820181905260248201527f4f776e61626c653a2063616c6c6572206973206e6f7420746865206f776e6572604482015290519081900360640190fd5b600080546040516001600160a01b03909116907f8be0079c531659141344cd1fd0a4f28419497f9722a3daafe3b4186f6b6457e0908390a3600080546001600160a01b0319169055565b6000546001600160a01b031690565b6060610e8a858580806020026020016040519081016040528093929190818152602001838360200280828437600092019190915250506040805160208089028281018201909352888252909350889250879182918501908490808284376000920191909152506119b292505050565b610ef88686868080602002602001604051908101604052809392919081815260200183836020028082843760009201919091525050604080516020808a02828101820190935289825290935089925088918291850190849080828437600092019190915250611abd92505050565b9695505050505050565b6060610f71858580806020026020016040519081016040528093929190818152602001838360200280828437600092019190915250506040805160208089028281018201909352888252909350889250879182918501908490808284376000920191909152506119b292505050565b610ef88686868080602002602001604051908101604052809392919081815260200183836020028082843760009201919091525050604080516020808a02828101820190935289825290935089925088918291850190849080828437600092019190915250611bde92505050565b6000610fec848484611ce6565b90505b9392505050565b60608142811015611044576040805162461bcd60e51b8152602060048201526013602482015272109553925493d55511548e8811561412549151606a1b604482015290519081900360640190fd5b61104e86866119b2565b611059888787611abd565b9150868260008151811061106957fe5b602002602001015111156110ae5760405162461bcd60e51b8152600401808060200182810382526022815260200180612c366022913960400191505060405180910390fd5b61110a33876000815181106110bf57fe5b6020026020010151846000815181106110d457fe5b6020026020010151886000815181106110e957fe5b60200260200101516001600160a01b0316611952909392919063ffffffff16565b61111682878787611da6565b509695505050505050565b7f000000000000000000000000000000000000000000000000000000000000000081565b60608142811015611193576040805162461bcd60e51b8152602060048201526013602482015272109553925493d55511548e8811561412549151606a1b604482015290519081900360640190fd5b61119d86866119b2565b6111a8888787611bde565b915086826001845103815181106111bb57fe5b602002602001015110156110ae5760405162461bcd60e51b8152600401808060200182810382526026815260200180612bee6026913960400191505060405180910390fd5b600080824281101561124f576040805162461bcd60e51b8152602060048201526013602482015272109553925493d55511548e8811561412549151606a1b604482015290519081900360640190fd5b61125a8b8b8b6116cf565b61126f6001600160a01b038a16338b8b611952565b6000808a6001600160a01b03166389afcb44886040518263ffffffff1660e01b815260040180826001600160a01b031681526020019150506040805180830381600087803b1580156112c057600080fd5b505af11580156112d4573d6000803e3d6000fd5b505050506040513d60408110156112ea57600080fd5b508051602090910151909250905060006113048e8e611fbb565b509050806001600160a01b03168e6001600160a01b03161461132757818361132a565b82825b90965094508986101561136e5760405162461bcd60e51b8152600401808060200182810382526021815260200180612b686021913960400191505060405180910390fd5b888510156113ad5760405162461bcd60e51b8152600401808060200182810382526021815260200180612bac6021913960400191505060405180910390fd5b505050509850989650505050505050565b804281101561140a576040805162461bcd60e51b8152602060048201526013602482015272109553925493d55511548e8811561412549151606a1b604482015290519081900360640190fd5b611431338660008151811061141b57fe5b602002602001015189876000815181106110e957fe5b60008460018651038151811061144357fe5b60200260200101516001600160a01b03166370a08231856040518263ffffffff1660e01b815260040180826001600160a01b0316815260200191505060206040518083038186803b15801561149757600080fd5b505afa1580156114ab573d6000803e3d6000fd5b505050506040513d60208110156114c157600080fd5b505190506114d08686866120a7565b6000856001875103815181106114e257fe5b60200260200101516001600160a01b03166370a08231866040518263ffffffff1660e01b815260040180826001600160a01b0316815260200191505060206040518083038186803b15801561153657600080fd5b505afa15801561154a573d6000803e3d6000fd5b505050506040513d602081101561156057600080fd5b5051905061156e8289612343565b8110156115ac5760405162461bcd60e51b8152600401808060200182810382526026815260200180612bee6026913960400191505060405180910390fd5b505050505050505050565b6115bf6116cb565b6001600160a01b03166115d0610e0c565b6001600160a01b03161461162b576040805162461bcd60e51b815260206004820181905260248201527f4f776e61626c653a2063616c6c6572206973206e6f7420746865206f776e6572604482015290519081900360640190fd5b6001600160a01b0381166116705760405162461bcd60e51b8152600401808060200182810382526026815260200180612ada6026913960400191505060405180910390fd5b600080546040516001600160a01b03808516939216917f8be0079c531659141344cd1fd0a4f28419497f9722a3daafe3b4186f6b6457e091a3600080546001600160a01b0319166001600160a01b0392909216919091179055565b3390565b7f00000000000000000000000000000000000000000000000000000000000000006001600160a01b031663eb787f618484846040518463ffffffff1660e01b815260040180846001600160a01b03168152602001836001600160a01b03168152602001826001600160a01b03168152602001935050505060206040518083038186803b15801561175e57600080fd5b505afa158015611772573d6000803e3d6000fd5b505050506040513d602081101561178857600080fd5b50516117db576040805162461bcd60e51b815260206004820152601860248201527f42554e49524f555445523a20494e56414c49445f504f4f4c0000000000000000604482015290519081900360640190fd5b505050565b6000806000806000806117f48c8f8f6123a6565b50935093509350935083600014801561180b575082155b1561181b578a95508994506113ad565b60006118288c8686611ce6565b90508a811161187b57888110156118705760405162461bcd60e51b8152600401808060200182810382526021815260200180612bac6021913960400191505060405180910390fd5b8b96509450846118d9565b60006118888c8688611ce6565b90508c81111561189457fe5b8a8110156118d35760405162461bcd60e51b8152600401808060200182810382526021815260200180612b686021913960400191505060405180910390fd5b96508a95505b600083600160701b8402816118ea57fe5b8a5191900491508110801590611904575060208901518111155b61193f5760405162461bcd60e51b8152600401808060200182810382526022815260200180612b006022913960400191505060405180910390fd5b5050505050509850989650505050505050565b604080516001600160a01b0380861660248301528416604482015260648082018490528251808303909101815260849091019091526020810180516001600160e01b03166323b872dd60e01b1790526119ac9085906124a0565b50505050565b600281511015611a09576040805162461bcd60e51b815260206004820152601860248201527f42554e49524f555445523a20494e56414c49445f504154480000000000000000604482015290519081900360640190fd5b6001815103825114611a62576040805162461bcd60e51b815260206004820152601e60248201527f42554e49524f555445523a20494e56414c49445f504f4f4c535f504154480000604482015290519081900360640190fd5b60005b82518110156117db57611ab5828281518110611a7d57fe5b6020026020010151838360010181518110611a9457fe5b6020026020010151858481518110611aa857fe5b60200260200101516116cf565b600101611a65565b6060815167ffffffffffffffff81118015611ad757600080fd5b50604051908082528060200260200182016040528015611b01578160200160208202803683370190505b5090508381600183510381518110611b1557fe5b60209081029190910101528151600019015b8015611bd6576000806000806000611b7f896001880381518110611b4757fe5b6020026020010151896001890381518110611b5e57fe5b60200260200101518a8981518110611b7257fe5b60200260200101516123a6565b94509450945094509450611baa878781518110611b9857fe5b60200260200101518686868686612551565b876001880381518110611bb957fe5b602090810291909101015250506000199093019250611b27915050565b509392505050565b6060815167ffffffffffffffff81118015611bf857600080fd5b50604051908082528060200260200182016040528015611c22578160200160208202803683370190505b5090508381600081518110611c3357fe5b60200260200101818152505060005b6001835103811015611bd6576000806000806000611c90898781518110611c6557fe5b6020026020010151898881518110611c7957fe5b60200260200101518a8960010181518110611b7257fe5b94509450945094509450611cbb878781518110611ca957fe5b6020026020010151868686868661265f565b878760010181518110611cca57fe5b6020908102919091010152505060019093019250611c42915050565b6000808411611d3c576040805162461bcd60e51b815260206004820152601c60248201527f42554e494c49423a20494e53554646494349454e545f414d4f554e5400000000604482015290519081900360640190fd5b600083118015611d4c5750600082115b611d8b576040805162461bcd60e51b815260206004820152601f6024820152600080516020612b22833981519152604482015290519081900360640190fd5b82611d968584612789565b81611d9d57fe5b04949350505050565b60005b6001835103811015611fb457600080848381518110611dc457fe5b6020026020010151858460010181518110611ddb57fe5b6020026020010151915091506000611df38383611fbb565b5090506000888560010181518110611e0757fe5b60200260200101519050600080836001600160a01b0316866001600160a01b031614611e3557826000611e39565b6000835b91509150600060028a51038810611e505788611e68565b8a8860010181518110611e5f57fe5b60200260200101515b90508a8881518110611e7657fe5b60200260200101516001600160a01b031663022c0d9f848484600067ffffffffffffffff81118015611ea757600080fd5b506040519080825280601f01601f191660200182016040528015611ed2576020820181803683370190505b506040518563ffffffff1660e01b815260040180858152602001848152602001836001600160a01b0316815260200180602001828103825283818151815260200191508051906020019080838360005b83811015611f3a578181015183820152602001611f22565b50505050905090810190601f168015611f675780820380516001836020036101000a031916815260200191505b5095505050505050600060405180830381600087803b158015611f8957600080fd5b505af1158015611f9d573d6000803e3d6000fd5b505060019099019850611da9975050505050505050565b5050505050565b600080826001600160a01b0316846001600160a01b03161415612025576040805162461bcd60e51b815260206004820152601c60248201527f42554e494c49423a204944454e544943414c5f41444452455353455300000000604482015290519081900360640190fd5b826001600160a01b0316846001600160a01b031610612045578284612048565b83835b90925090506001600160a01b0382166120a0576040805162461bcd60e51b815260206004820152601560248201527442554e494c49423a205a45524f5f4144445245535360581b604482015290519081900360640190fd5b9250929050565b6120b183836119b2565b60005b60018351038110156119ac576000808483815181106120cf57fe5b60200260200101518584600101815181106120e657fe5b60200260200101519150915060006120fe8383611fbb565b509050600087858151811061210f57fe5b602002602001015190506000806000806000806121408e8c8151811061213157fe5b60200260200101518b8b6123a6565b9450945094509450945060006121cf868c6001600160a01b03166370a082318b6040518263ffffffff1660e01b815260040180826001600160a01b0316815260200191505060206040518083038186803b15801561219d57600080fd5b505afa1580156121b1573d6000803e3d6000fd5b505050506040513d60208110156121c757600080fd5b5051906127e2565b90506121df81878787878761265f565b9650505050505050600080846001600160a01b0316876001600160a01b03161461220b5782600061220f565b6000835b91509150600060028b51038910612226578961223e565b8b896001018151811061223557fe5b60200260200101515b604080516000808252602082019283905263022c0d9f60e01b835260248201878152604483018790526001600160a01b038086166064850152608060848501908152845160a48601819052969750908b169563022c0d9f958a958a958a9591949193919260c486019290918190849084905b838110156122c85781810151838201526020016122b0565b50505050905090810190601f1680156122f55780820380516001836020036101000a031916815260200191505b5095505050505050600060405180830381600087803b15801561231757600080fd5b505af115801561232b573d6000803e3d6000fd5b50506001909a0199506120b498505050505050505050565b60008282018381101561239d576040805162461bcd60e51b815260206004820152601b60248201527f536166654d6174683a206164646974696f6e206f766572666c6f770000000000604482015290519081900360640190fd5b90505b92915050565b6000806000806000806123b98888611fbb565b5090506000806000808c6001600160a01b031663d66940276040518163ffffffff1660e01b815260040160a06040518083038186803b1580156123fb57600080fd5b505afa15801561240f573d6000803e3d6000fd5b505050506040513d60a081101561242557600080fd5b50805160208201516040830151606084015160809094015199506dffffffffffffffffffffffffffff92831697509082169550811693501690506001600160a01b038c81169086161461247b5782848284612480565b838383835b809a50819b50829c50839d50505050505050505050939792965093509350565b60606124f5826040518060400160405280602081526020017f5361666545524332303a206c6f772d6c6576656c2063616c6c206661696c6564815250856001600160a01b031661283f9092919063ffffffff16565b8051909150156117db5780806020019051602081101561251457600080fd5b50516117db5760405162461bcd60e51b815260040180806020018281038252602a815260200180612c58602a913960400191505060405180910390fd5b60008087116125915760405162461bcd60e51b8152600401808060200182810382526023815260200180612b896023913960400191505060405180910390fd5b6000861180156125a057508685115b6125df576040805162461bcd60e51b815260206004820152601f6024820152600080516020612b22833981519152604482015290519081900360640190fd5b60006125eb8589612789565b905060006125f9858a6127e2565b9050612610600161260a848461284e565b90612343565b925061262483670de0b6b3a7640000612789565b9150612638670de0b6b3a7640000856127e2565b90506126528161264c846000198301612343565b9061284e565b9998505050505050505050565b600080871161269f5760405162461bcd60e51b8152600401808060200182810382526022815260200180612c146022913960400191505060405180910390fd5b6000861180156126af5750600085115b6126ee576040805162461bcd60e51b815260206004820152601f6024820152600080516020612b22833981519152604482015290519081900360640190fd5b6000612710670de0b6b3a764000061264c61270982876127e2565b8b90612789565b9050600061271e8286612789565b9050600061272c8784612343565b9050612738828261284e565b935083881161277c576040805162461bcd60e51b815260206004820152601f6024820152600080516020612b22833981519152604482015290519081900360640190fd5b5050509695505050505050565b600082612798575060006123a0565b828202828482816127a557fe5b041461239d5760405162461bcd60e51b8152600401808060200182810382526021815260200180612bcd6021913960400191505060405180910390fd5b600082821115612839576040805162461bcd60e51b815260206004820152601e60248201527f536166654d6174683a207375627472616374696f6e206f766572666c6f770000604482015290519081900360640190fd5b50900390565b6060610fec84846000856128b5565b60008082116128a4576040805162461bcd60e51b815260206004820152601a60248201527f536166654d6174683a206469766973696f6e206279207a65726f000000000000604482015290519081900360640190fd5b8183816128ad57fe5b049392505050565b6060824710156128f65760405162461bcd60e51b8152600401808060200182810382526026815260200180612b426026913960400191505060405180910390fd5b6128ff85612a11565b612950576040805162461bcd60e51b815260206004820152601d60248201527f416464726573733a2063616c6c20746f206e6f6e2d636f6e7472616374000000604482015290519081900360640190fd5b60006060866001600160a01b031685876040518082805190602001908083835b6020831061298f5780518252601f199092019160209182019101612970565b6001836020036101000a03801982511681845116808217855250505050505090500191505060006040518083038185875af1925050503d80600081146129f1576040519150601f19603f3d011682016040523d82523d6000602084013e6129f6565b606091505b5091509150612a06828286612a17565b979650505050505050565b3b151590565b60608315612a26575081610fef565b825115612a365782518084602001fd5b8160405162461bcd60e51b81526004018080602001828103825283818151815260200191508051906020019080838360005b83811015612a80578181015183820152602001612a68565b50505050905090810190601f168015612aad5780820380516001836020036101000a031916815260200191505b509250505060405180910390fd5b6040518060400160405280600290602082028036833750919291505056fe4f776e61626c653a206e6577206f776e657220697320746865207a65726f206164647265737342554e49524f555445523a204f55545f4f465f424f554e44535f565245534552564542554e494c49423a20494e53554646494349454e545f4c495155494449545900416464726573733a20696e73756666696369656e742062616c616e636520666f722063616c6c42554e49524f555445523a20494e53554646494349454e545f415f414d4f554e5442554e494c49423a20494e53554646494349454e545f4f55545055545f414d4f554e5442554e49524f555445523a20494e53554646494349454e545f425f414d4f554e54536166654d6174683a206d756c7469706c69636174696f6e206f766572666c6f7742554e49524f555445523a20494e53554646494349454e545f4f55545055545f414d4f554e5442554e494c49423a20494e53554646494349454e545f494e5055545f414d4f554e5442554e49524f555445523a204558434553534956455f494e5055545f414d4f554e545361666545524332303a204552433230206f7065726174696f6e20646964206e6f742073756363656564a264697066735822122015fb44761b63ad5818f97081d36b0741f69d00df869c90130f3e73e8b7fd98e764736f6c634300060c0033",
  "linkReferences": {},
  "deployedLinkReferences": {}
}