{
  "_format": "hh-sol-artifact-1",
  "contractName": "GameNFTStakingRewardsUpgradeable",
  "sourceName": "contracts/GameNFTStakingRewardsUpgradeable.sol",
  "abi": [
    {
      "anonymous": false,
      "inputs": [],
      "name": "FailsafeModeEnabled",
      "type": "event"
    },
    {
      "anonymous": false,
      "inputs": [
        {
          "indexed": true,
          "internalType": "address",
          "name": "previousOwner",
          "type": "address"
        },
        {
          "indexed": true,
          "internalType": "address",
          "name": "newOwner",
          "type": "address"
        }
      ],
      "name": "OwnershipTransferred",
      "type": "event"
    },
    {
      "anonymous": false,
      "inputs": [
        {
          "indexed": false,
          "internalType": "address",
          "name": "account",
          "type": "address"
        }
      ],
      "name": "Paused",
      "type": "event"
    },
    {
      "anonymous": false,
      "inputs": [
        {
          "indexed": false,
          "internalType": "uint256",
          "name": "reward",
          "type": "uint256"
        },
        {
          "indexed": false,
          "internalType": "uint256",
          "name": "rewardsDuration",
          "type": "uint256"
        }
      ],
      "name": "RewardAdded",
      "type": "event"
    },
    {
      "anonymous": false,
      "inputs": [
        {
          "indexed": true,
          "internalType": "address",
          "name": "user",
          "type": "address"
        },
        {
          "indexed": false,
          "internalType": "uint256",
          "name": "reward",
          "type": "uint256"
        }
      ],
      "name": "RewardPaid",
      "type": "event"
    },
    {
      "anonymous": false,
      "inputs": [
        {
          "indexed": false,
          "internalType": "uint256",
          "name": "newDuration",
          "type": "uint256"
        }
      ],
      "name": "RewardsDurationUpdated",
      "type": "event"
    },
    {
      "anonymous": false,
      "inputs": [
        {
          "indexed": true,
          "internalType": "address",
          "name": "user",
          "type": "address"
        },
        {
          "indexed": true,
          "internalType": "uint256",
          "name": "tokenId",
          "type": "uint256"
        },
        {
          "indexed": false,
          "internalType": "uint256",
          "name": "weight",
          "type": "uint256"
        }
      ],
      "name": "Staked",
      "type": "event"
    },
    {
      "anonymous": false,
      "inputs": [
        {
          "indexed": false,
          "internalType": "address",
          "name": "account",
          "type": "address"
        }
      ],
      "name": "Unpaused",
      "type": "event"
    },
    {
      "anonymous": false,
      "inputs": [
        {
          "indexed": true,
          "internalType": "address",
          "name": "user",
          "type": "address"
        },
        {
          "indexed": true,
          "internalType": "uint256",
          "name": "tokenId",
          "type": "uint256"
        },
        {
          "indexed": false,
          "internalType": "uint256",
          "name": "weight",
          "type": "uint256"
        }
      ],
      "name": "Unstaked",
      "type": "event"
    },
    {
      "inputs": [
        {
          "internalType": "address",
          "name": "account",
          "type": "address"
        }
      ],
      "name": "balanceOf",
      "outputs": [
        {
          "internalType": "uint256",
          "name": "",
          "type": "uint256"
        }
      ],
      "stateMutability": "view",
      "type": "function"
    },
    {
      "inputs": [
        {
          "internalType": "uint256",
          "name": "passedBlock",
          "type": "uint256"
        }
      ],
      "name": "burnNft",
      "outputs": [],
      "stateMutability": "nonpayable",
      "type": "function"
    },
    {
      "inputs": [],
      "name": "canUnstake",
      "outputs": [
        {
          "internalType": "bool",
          "name": "",
          "type": "bool"
        }
      ],
      "stateMutability": "view",
      "type": "function"
    },
    {
      "inputs": [
        {
          "internalType": "address",
          "name": "account",
          "type": "address"
        }
      ],
      "name": "earned",
      "outputs": [
        {
          "internalType": "uint256",
          "name": "",
          "type": "uint256"
        }
      ],
      "stateMutability": "view",
      "type": "function"
    },
    {
      "inputs": [],
      "name": "enableFailsafeMode",
      "outputs": [],
      "stateMutability": "nonpayable",
      "type": "function"
    },
    {
      "inputs": [],
      "name": "failsafeModeActive",
      "outputs": [
        {
          "internalType": "bool",
          "name": "",
          "type": "bool"
        }
      ],
      "stateMutability": "view",
      "type": "function"
    },
    {
      "inputs": [],
      "name": "getReward",
      "outputs": [],
      "stateMutability": "nonpayable",
      "type": "function"
    },
    {
      "inputs": [],
      "name": "getRewardForDuration",
      "outputs": [
        {
          "internalType": "uint256",
          "name": "",
          "type": "uint256"
        }
      ],
      "stateMutability": "view",
      "type": "function"
    },
    {
      "inputs": [
        {
          "internalType": "uint256",
          "name": "tokenId",
          "type": "uint256"
        }
      ],
      "name": "getTokenInfo",
      "outputs": [
        {
          "internalType": "address",
          "name": "",
          "type": "address"
        },
        {
          "internalType": "uint256",
          "name": "",
          "type": "uint256"
        },
        {
          "internalType": "uint256",
          "name": "",
          "type": "uint256"
        },
        {
          "internalType": "uint256",
          "name": "",
          "type": "uint256"
        }
      ],
      "stateMutability": "view",
      "type": "function"
    },
    {
      "inputs": [
        {
          "internalType": "address",
          "name": "account",
          "type": "address"
        },
        {
          "internalType": "uint256",
          "name": "tokenIndex",
          "type": "uint256"
        }
      ],
      "name": "getTokenInfoOfUser",
      "outputs": [
        {
          "internalType": "address",
          "name": "",
          "type": "address"
        },
        {
          "internalType": "uint256",
          "name": "",
          "type": "uint256"
        },
        {
          "internalType": "uint256",
          "name": "",
          "type": "uint256"
        },
        {
          "internalType": "uint256",
          "name": "",
          "type": "uint256"
        }
      ],
      "stateMutability": "view",
      "type": "function"
    },
    {
      "inputs": [
        {
          "internalType": "address",
          "name": "account",
          "type": "address"
        }
      ],
      "name": "getUserTokens",
      "outputs": [
        {
          "internalType": "uint256[]",
          "name": "",
          "type": "uint256[]"
        }
      ],
      "stateMutability": "view",
      "type": "function"
    },
    {
      "inputs": [
        {
          "internalType": "address",
          "name": "_rewardsDistribution",
          "type": "address"
        },
        {
          "internalType": "address",
          "name": "_rewardsToken",
          "type": "address"
        },
        {
          "internalType": "address",
          "name": "_stakingToken",
          "type": "address"
        },
        {
          "internalType": "uint256",
          "name": "_rewardsDuration",
          "type": "uint256"
        },
        {
          "internalType": "uint256",
          "name": "_minHashrate",
          "type": "uint256"
        }
      ],
      "name": "initialize",
      "outputs": [],
      "stateMutability": "nonpayable",
      "type": "function"
    },
    {
      "inputs": [],
      "name": "lastTimeRewardApplicable",
      "outputs": [
        {
          "internalType": "uint256",
          "name": "",
          "type": "uint256"
        }
      ],
      "stateMutability": "view",
      "type": "function"
    },
    {
      "inputs": [],
      "name": "lastUpdateTime",
      "outputs": [
        {
          "internalType": "uint256",
          "name": "",
          "type": "uint256"
        }
      ],
      "stateMutability": "view",
      "type": "function"
    },
    {
      "inputs": [],
      "name": "minHashrate",
      "outputs": [
        {
          "internalType": "uint256",
          "name": "",
          "type": "uint256"
        }
      ],
      "stateMutability": "view",
      "type": "function"
    },
    {
      "inputs": [
        {
          "internalType": "uint256",
          "name": "reward",
          "type": "uint256"
        }
      ],
      "name": "notifyRewardAmount",
      "outputs": [],
      "stateMutability": "nonpayable",
      "type": "function"
    },
    {
      "inputs": [
        {
          "internalType": "address",
          "name": "",
          "type": "address"
        },
        {
          "internalType": "address",
          "name": "from",
          "type": "address"
        },
        {
          "internalType": "uint256",
          "name": "tokenId",
          "type": "uint256"
        },
        {
          "internalType": "bytes",
          "name": "",
          "type": "bytes"
        }
      ],
      "name": "onERC721Received",
      "outputs": [
        {
          "internalType": "bytes4",
          "name": "",
          "type": "bytes4"
        }
      ],
      "stateMutability": "nonpayable",
      "type": "function"
    },
    {
      "inputs": [],
      "name": "owner",
      "outputs": [
        {
          "internalType": "address",
          "name": "",
          "type": "address"
        }
      ],
      "stateMutability": "view",
      "type": "function"
    },
    {
      "inputs": [],
      "name": "pause",
      "outputs": [],
      "stateMutability": "nonpayable",
      "type": "function"
    },
    {
      "inputs": [],
      "name": "paused",
      "outputs": [
        {
          "internalType": "bool",
          "name": "",
          "type": "bool"
        }
      ],
      "stateMutability": "view",
      "type": "function"
    },
    {
      "inputs": [],
      "name": "periodFinish",
      "outputs": [
        {
          "internalType": "uint256",
          "name": "",
          "type": "uint256"
        }
      ],
      "stateMutability": "view",
      "type": "function"
    },
    {
      "inputs": [],
      "name": "recoverOwnedStakes",
      "outputs": [],
      "stateMutability": "nonpayable",
      "type": "function"
    },
    {
      "inputs": [],
      "name": "renounceOwnership",
      "outputs": [],
      "stateMutability": "nonpayable",
      "type": "function"
    },
    {
      "inputs": [],
      "name": "rewardPerToken",
      "outputs": [
        {
          "internalType": "uint256",
          "name": "",
          "type": "uint256"
        }
      ],
      "stateMutability": "view",
      "type": "function"
    },
    {
      "inputs": [],
      "name": "rewardPerTokenStored",
      "outputs": [
        {
          "internalType": "uint256",
          "name": "",
          "type": "uint256"
        }
      ],
      "stateMutability": "view",
      "type": "function"
    },
    {
      "inputs": [],
      "name": "rewardRate",
      "outputs": [
        {
          "internalType": "uint256",
          "name": "",
          "type": "uint256"
        }
      ],
      "stateMutability": "view",
      "type": "function"
    },
    {
      "inputs": [
        {
          "internalType": "address",
          "name": "",
          "type": "address"
        }
      ],
      "name": "rewards",
      "outputs": [
        {
          "internalType": "uint256",
          "name": "",
          "type": "uint256"
        }
      ],
      "stateMutability": "view",
      "type": "function"
    },
    {
      "inputs": [],
      "name": "rewardsDistribution",
      "outputs": [
        {
          "internalType": "address",
          "name": "",
          "type": "address"
        }
      ],
      "stateMutability": "view",
      "type": "function"
    },
    {
      "inputs": [],
      "name": "rewardsDuration",
      "outputs": [
        {
          "internalType": "uint256",
          "name": "",
          "type": "uint256"
        }
      ],
      "stateMutability": "view",
      "type": "function"
    },
    {
      "inputs": [],
      "name": "rewardsToken",
      "outputs": [
        {
          "internalType": "contract IERC20Upgradeable",
          "name": "",
          "type": "address"
        }
      ],
      "stateMutability": "view",
      "type": "function"
    },
    {
      "inputs": [
        {
          "internalType": "address",
          "name": "_rewardsDistribution",
          "type": "address"
        }
      ],
      "name": "setRewardsDistribution",
      "outputs": [],
      "stateMutability": "nonpayable",
      "type": "function"
    },
    {
      "inputs": [
        {
          "internalType": "uint256",
          "name": "_rewardsDuration",
          "type": "uint256"
        }
      ],
      "name": "setRewardsDuration",
      "outputs": [],
      "stateMutability": "nonpayable",
      "type": "function"
    },
    {
      "inputs": [],
      "name": "stakingToken",
      "outputs": [
        {
          "internalType": "contract IGameNFT",
          "name": "",
          "type": "address"
        }
      ],
      "stateMutability": "view",
      "type": "function"
    },
    {
      "inputs": [],
      "name": "totalHashrate",
      "outputs": [
        {
          "internalType": "uint256",
          "name": "",
          "type": "uint256"
        }
      ],
      "stateMutability": "view",
      "type": "function"
    },
    {
      "inputs": [],
      "name": "totalSupply",
      "outputs": [
        {
          "internalType": "uint256",
          "name": "",
          "type": "uint256"
        }
      ],
      "stateMutability": "view",
      "type": "function"
    },
    {
      "inputs": [
        {
          "internalType": "address",
          "name": "newOwner",
          "type": "address"
        }
      ],
      "name": "transferOwnership",
      "outputs": [],
      "stateMutability": "nonpayable",
      "type": "function"
    },
    {
      "inputs": [],
      "name": "unpause",
      "outputs": [],
      "stateMutability": "nonpayable",
      "type": "function"
    },
    {
      "inputs": [
        {
          "internalType": "uint256",
          "name": "tokenIndex",
          "type": "uint256"
        }
      ],
      "name": "unstakeNft",
      "outputs": [],
      "stateMutability": "nonpayable",
      "type": "function"
    },
    {
      "inputs": [
        {
          "internalType": "address",
          "name": "account",
          "type": "address"
        }
      ],
      "name": "userHashrate",
      "outputs": [
        {
          "internalType": "uint256",
          "name": "",
          "type": "uint256"
        }
      ],
      "stateMutability": "view",
      "type": "function"
    },
    {
      "inputs": [
        {
          "internalType": "address",
          "name": "",
          "type": "address"
        }
      ],
      "name": "userRewardPerTokenPaid",
      "outputs": [
        {
          "internalType": "uint256",
          "name": "",
          "type": "uint256"
        }
      ],
      "stateMutability": "view",
      "type": "function"
    },
    {
      "inputs": [],
      "name": "withdrawReward",
      "outputs": [],
      "stateMutability": "nonpayable",
      "type": "function"
    }
  ],
  "bytecode": "0x608060405234801561001057600080fd5b506130ee806100206000396000f3fe608060405234801561001057600080fd5b50600436106102525760003560e01c806372f702f311610146578063aa90cc16116100c3578063d1af0c7d11610087578063d1af0c7d14610671578063df136d6514610679578063e2adc23714610681578063ebe2b12b14610689578063f2fde38b14610691578063f51896f8146106b757610252565b8063aa90cc1614610634578063c885bc581461063c578063c8f33c9114610644578063cc1a378f1461064c578063cd3daf9d1461066957610252565b80638b8763471161010a5780638b8763471461054b5780638c7a63ae146105715780638da5cb5b146105be578063a5654e94146105c6578063a6b63eb8146105f257610252565b806372f702f31461050557806373776e051461050d5780637b0a47ee1461053357806380faa57d1461053b5780638456cb591461054357610252565b80633d18b912116101d45780635a5ccef0116101985780635a5ccef0146104aa5780635c975abb146104b25780636b426000146104ba57806370a08231146104d7578063715018a6146104fd57610252565b80633d18b912146103e35780633d5efefe146103eb5780633f4ba83a146104085780633fc6df6e14610410578063519dc8d21461043457610252565b8063197621431161021b57806319762143146103865780631c1f78eb146103ae5780631e72b581146103b6578063386a9525146103be5780633c6b16ab146103c657610252565b80628cc262146102575780630700037d1461028f5780631265cc97146102b5578063150b7a02146102d157806318160ddd1461037e575b600080fd5b61027d6004803603602081101561026d57600080fd5b50356001600160a01b03166106bf565b60408051918252519081900360200190f35b61027d600480360360208110156102a557600080fd5b50356001600160a01b031661073d565b6102bd61074f565b604080519115158252519081900360200190f35b610361600480360360808110156102e757600080fd5b6001600160a01b0382358116926020810135909116916040820135919081019060808101606082013564010000000081111561032257600080fd5b82018360208201111561033457600080fd5b8035906020019184600183028401116401000000008311171561035657600080fd5b509092509050610758565b604080516001600160e01b03199092168252519081900360200190f35b61027d6107c0565b6103ac6004803603602081101561039c57600080fd5b50356001600160a01b03166107c7565b005b61027d61084b565b61027d610869565b61027d61086f565b6103ac600480360360208110156103dc57600080fd5b5035610875565b6103ac610b1e565b6103ac6004803603602081101561040157600080fd5b5035610c90565b6103ac610db8565b610418610e74565b604080516001600160a01b039092168252519081900360200190f35b61045a6004803603602081101561044a57600080fd5b50356001600160a01b0316610e83565b60408051602080825283518183015283519192839290830191858101910280838360005b8381101561049657818101518382015260200161047e565b505050509050019250505060405180910390f35b61027d610f44565b6102bd610f4a565b6103ac600480360360208110156104d057600080fd5b5035610f58565b61027d600480360360208110156104ed57600080fd5b50356001600160a01b0316610ff0565b6103ac611011565b6104186110bd565b61027d6004803603602081101561052357600080fd5b50356001600160a01b03166110cc565b61027d6110e7565b61027d6110ed565b6103ac611105565b61027d6004803603602081101561056157600080fd5b50356001600160a01b03166111bc565b61058e6004803603602081101561058757600080fd5b50356111ce565b604080516001600160a01b0390951685526020850193909352838301919091526060830152519081900360800190f35b610418611234565b61058e600480360360408110156105dc57600080fd5b506001600160a01b038135169060200135611243565b6103ac600480360360a081101561060857600080fd5b506001600160a01b038135811691602081013582169160408201351690606081013590608001356112eb565b6103ac61141d565b6103ac61148b565b61027d61162f565b6103ac6004803603602081101561066257600080fd5b5035611635565b61027d61176b565b6104186117b9565b61027d6117c8565b6103ac6117ce565b61027d611889565b6103ac600480360360208110156106a757600080fd5b50356001600160a01b031661188f565b6102bd611992565b6001600160a01b038116600090815260d2602090815260408083205460d1909252822054610737919061073190670de0b6b3a76400009061072b9061070c9061070661176b565b9061199c565b6001600160a01b038816600090815260d76020526040902054906119f9565b90611a59565b90611ac0565b92915050565b60d26020526000908152604090205481565b60985460ff1681565b60cb546000906001600160a01b031633146107a45760405162461bcd60e51b81526004018080602001828103825260248152602001806130006024913960400191505060405180910390fd5b6107ae8486611b1a565b50630a85bd0160e11b95945050505050565b60d4545b90565b6107cf611e61565b6001600160a01b03166107e0611234565b6001600160a01b031614610829576040805162461bcd60e51b81526020600482018190526024820152600080516020613045833981519152604482015290519081900360640190fd5b606580546001600160a01b0319166001600160a01b0392909216919091179055565b600061086460ce5460cd546119f990919063ffffffff16565b905090565b60d85481565b60ce5481565b60985460ff16156108b75760405162461bcd60e51b8152600401808060200182810382526046815260200180612ef86046913960600191505060405180910390fd5b6065546001600160a01b031633146109005760405162461bcd60e51b815260040180806020018281038252602a815260200180613065602a913960400191505060405180910390fd5b60985460009060ff166109675761091561176b565b60d0556109206110ed565b60cf556001600160a01b038116156109675761093b816106bf565b6001600160a01b038216600090815260d2602090815260408083209390935560d05460d1909152919020555b60cc544210156109be576040805162461bcd60e51b815260206004820152601960248201527f5468697320706572696f64206973206e6f742066696e69736800000000000000604482015290519081900360640190fd5b60ce546109cc908390611a59565b60cd5560ca54604080516370a0823160e01b815230600482015290516000926001600160a01b0316916370a08231916024808301926020929190829003018186803b158015610a1a57600080fd5b505afa158015610a2e573d6000803e3d6000fd5b505050506040513d6020811015610a4457600080fd5b505160ce54909150610a57908290611a59565b60cd541115610aad576040805162461bcd60e51b815260206004820152601760248201527f50726f76696465642072657761726420746f2068696768000000000000000000604482015290519081900360640190fd5b4260cf81905560ce54610ac09190611ac0565b60cc5560db5460ff16610adb5760db805460ff191660011790555b60ce5460408051858152602081019290925280517f6c07ee05dcf262f13abf9d87b846ee789d2f90fe991d495acd7d7fc109ee1f559281900390910190a1505050565b60985460ff1615610b605760405162461bcd60e51b8152600401808060200182810382526046815260200180612ef86046913960600191505060405180910390fd5b60026066541415610ba6576040805162461bcd60e51b815260206004820152601f6024820152600080516020612ed8833981519152604482015290519081900360640190fd5b6002606655609854339060ff16610c1157610bbf61176b565b60d055610bca6110ed565b60cf556001600160a01b03811615610c1157610be5816106bf565b6001600160a01b038216600090815260d2602090815260408083209390935560d05460d1909152919020555b33600090815260d260205260409020548015610c875733600081815260d2602052604081205560ca54610c50916001600160a01b039091169083611e65565b60408051828152905133917fe2403640ba68fed3a2f88b7557551d1993f84b99bb10ff833f0cf8db0c5e0486919081900360200190a25b50506001606655565b610c98611e61565b6001600160a01b0316610ca9611234565b6001600160a01b031614610cf2576040805162461bcd60e51b81526020600482018190526024820152600080516020613045833981519152604482015290519081900360640190fd5b6000610cfe60d9611eb7565b9050600160005b828211610db2576000610d1960d983611ec2565b9050610d23612e84565b50600081815260d36020908152604091829020825160808101845281546001600160a01b031681526001820154928101929092526002810154928201929092526003909101546060820181905243038611610d9057610d8b8160000151826020015184611ece565b610d9e565b610d9b836001611ac0565b92505b610da9846001611ac0565b93505050610d05565b50505050565b610dc0611e61565b6001600160a01b0316610dd1611234565b6001600160a01b031614610e1a576040805162461bcd60e51b81526020600482018190526024820152600080516020613045833981519152604482015290519081900360640190fd5b610e22610f4a565b610e6a576040805162461bcd60e51b815260206004820152601460248201527314185d5cd8589b194e881b9bdd081c185d5cd95960621b604482015290519081900360640190fd5b610e726120a5565b565b6065546001600160a01b031681565b6001600160a01b038116600090815260d56020526040812060609190610ea890611eb7565b905060608167ffffffffffffffff81118015610ec357600080fd5b50604051908082528060200260200182016040528015610eed578160200160208202803683370190505b50905060005b82811015610f3c576001600160a01b038516600090815260d560205260409020610f1d9082611ec2565b828281518110610f2957fe5b6020908102919091010152600101610ef3565b509392505050565b60d65490565b609854610100900460ff1690565b60985460ff1615610f9a5760405162461bcd60e51b8152600401808060200182810382526046815260200180612ef86046913960600191505060405180910390fd5b60db5460ff1615610fe4576040805162461bcd60e51b815260206004820152600f60248201526e14995dd85c99081b9bdd1a599a5959608a1b604482015290519081900360640190fd5b610fed81612146565b50565b6001600160a01b038116600090815260d56020526040812061073790611eb7565b611019611e61565b6001600160a01b031661102a611234565b6001600160a01b031614611073576040805162461bcd60e51b81526020600482018190526024820152600080516020613045833981519152604482015290519081900360640190fd5b6033546040516000916001600160a01b0316907f8be0079c531659141344cd1fd0a4f28419497f9722a3daafe3b4186f6b6457e0908390a3603380546001600160a01b0319169055565b60cb546001600160a01b031681565b6001600160a01b0316600090815260d7602052604090205490565b60cd5481565b600060cc5442106111005760cc54610864565b504290565b61110d611e61565b6001600160a01b031661111e611234565b6001600160a01b031614611167576040805162461bcd60e51b81526020600482018190526024820152600080516020613045833981519152604482015290519081900360640190fd5b61116f610f4a565b156111b4576040805162461bcd60e51b815260206004820152601060248201526f14185d5cd8589b194e881c185d5cd95960821b604482015290519081900360640190fd5b610e7261249f565b60d16020526000908152604090205481565b6000806000806111dc612e84565b5050506000928352505060d36020908152604091829020825160808101845281546001600160a01b03168082526001830154938201849052600283015494820185905260039092015460609091018190529093919291565b6033546001600160a01b031690565b6001600160a01b038216600090815260d56020526040812081908190819061126a90611eb7565b85106112ad576040805162461bcd60e51b815260206004820152600d60248201526c092dcecc2d8d2c840d2dcc8caf609b1b604482015290519081900360640190fd5b6001600160a01b038616600090815260d5602052604081206112cf9087611ec2565b90506112da816111ce565b929a91995097509095509350505050565b600054610100900460ff16806113045750611304612524565b80611312575060005460ff16155b61134d5760405162461bcd60e51b815260040180806020018281038252602e815260200180612fd2602e913960400191505060405180910390fd5b600054610100900460ff16158015611378576000805460ff1961ff0019909116610100171660011790555b611380612535565b6113886125de565b6113906126d7565b611398612783565b6113a061282e565b6113a86128d4565b60ca80546001600160a01b038088166001600160a01b03199283161790925560cb80548784169083161790556065805492891692909116919091179055600060cc81905560cd5560ce83905560d882905560db805460ff191690558015611415576000805461ff00191690555b505050505050565b60985460ff1661145e5760405162461bcd60e51b8152600401808060200182810382526048815260200180612f3e6048913960600191505060405180910390fd5b33600090815260d56020526040812061147690611eb7565b1115610e72576114866000612146565b61145e565b60985460ff166114cc5760405162461bcd60e51b8152600401808060200182810382526048815260200180612f3e6048913960600191505060405180910390fd5b6114d4611e61565b6001600160a01b03166114e5611234565b6001600160a01b03161461152e576040805162461bcd60e51b81526020600482018190526024820152600080516020613045833981519152604482015290519081900360640190fd5b60ca54604080516370a0823160e01b815230600482015290516000926001600160a01b0316916370a08231916024808301926020929190829003018186803b15801561157957600080fd5b505afa15801561158d573d6000803e3d6000fd5b505050506040513d60208110156115a357600080fd5b505160ca546065546040805163a9059cbb60e01b81526001600160a01b03928316600482015260248101859052905193945091169163a9059cbb916044808201926020929091908290030181600087803b15801561160057600080fd5b505af1158015611614573d6000803e3d6000fd5b505050506040513d602081101561162a57600080fd5b505050565b60cf5481565b60985460ff16156116775760405162461bcd60e51b8152600401808060200182810382526046815260200180612ef86046913960600191505060405180910390fd5b61167f611e61565b6001600160a01b0316611690611234565b6001600160a01b0316146116d9576040805162461bcd60e51b81526020600482018190526024820152600080516020613045833981519152604482015290519081900360640190fd5b60cc54421015611730576040805162461bcd60e51b815260206004820152601960248201527f7468697320706572696f64206973206e6f742066696e69736800000000000000604482015290519081900360640190fd5b60ce8190556040805182815290517ffb46ca5a5e06d4540d6387b930a7c978bce0db5f449ec6b3f5d07c6e1d44f2d39181900360200190a150565b600060d65460001415611781575060d0546107c4565b6108646117b060d65461072b670de0b6b3a76400006117aa60cd546117aa60cf546107066110ed565b906119f9565b60d05490611ac0565b60ca546001600160a01b031681565b60d05481565b60985460ff16156118105760405162461bcd60e51b8152600401808060200182810382526046815260200180612ef86046913960600191505060405180910390fd5b611818611e61565b6001600160a01b0316611829611234565b6001600160a01b031614611872576040805162461bcd60e51b81526020600482018190526024820152600080516020613045833981519152604482015290519081900360640190fd5b600060cc81905560cd81905560d055610e72612974565b60cc5481565b611897611e61565b6001600160a01b03166118a8611234565b6001600160a01b0316146118f1576040805162461bcd60e51b81526020600482018190526024820152600080516020613045833981519152604482015290519081900360640190fd5b6001600160a01b0381166119365760405162461bcd60e51b8152600401808060200182810382526026815260200180612f866026913960400191505060405180910390fd5b6033546040516001600160a01b038084169216907f8be0079c531659141344cd1fd0a4f28419497f9722a3daafe3b4186f6b6457e090600090a3603380546001600160a01b0319166001600160a01b0392909216919091179055565b60db5460ff161590565b6000828211156119f3576040805162461bcd60e51b815260206004820152601e60248201527f536166654d6174683a207375627472616374696f6e206f766572666c6f770000604482015290519081900360640190fd5b50900390565b600082611a0857506000610737565b82820282848281611a1557fe5b0414611a525760405162461bcd60e51b81526004018080602001828103825260218152602001806130246021913960400191505060405180910390fd5b9392505050565b6000808211611aaf576040805162461bcd60e51b815260206004820152601a60248201527f536166654d6174683a206469766973696f6e206279207a65726f000000000000604482015290519081900360640190fd5b818381611ab857fe5b049392505050565b600082820183811015611a52576040805162461bcd60e51b815260206004820152601b60248201527f536166654d6174683a206164646974696f6e206f766572666c6f770000000000604482015290519081900360640190fd5b60985460ff1615611b5c5760405162461bcd60e51b8152600401808060200182810382526046815260200180612ef86046913960600191505060405180910390fd5b60026066541415611ba2576040805162461bcd60e51b815260206004820152601f6024820152600080516020612ed8833981519152604482015290519081900360640190fd5b6002606655611baf610f4a565b15611bf4576040805162461bcd60e51b815260206004820152601060248201526f14185d5cd8589b194e881c185d5cd95960821b604482015290519081900360640190fd5b609854819060ff16611c5a57611c0861176b565b60d055611c136110ed565b60cf556001600160a01b03811615611c5a57611c2e816106bf565b6001600160a01b038216600090815260d2602090815260408083209390935560d05460d1909152919020555b60cb546040805163ca8ed8a160e01b81526004810186905290516000926001600160a01b03169163ca8ed8a191602480830192602092919082900301818787803b158015611ca757600080fd5b505af1158015611cbb573d6000803e3d6000fd5b505050506040513d6020811015611cd157600080fd5b505160d854909150811015611d2d576040805162461bcd60e51b815260206004820152601a60248201527f4861736872617465206f66206e667420697320746f6f206c6f77000000000000604482015290519081900360640190fd5b60d454611d3b906001611ac0565b60d4556001600160a01b038316600090815260d560205260409020611d609085612a0e565b5060d654611d6e9082611ac0565b60d6556001600160a01b038316600090815260d76020526040902054611d949082611ac0565b6001600160a01b03848116600081815260d7602090815260408083209590955584516080810186529283528281018681524284870190815243606086019081528b855260d390935295909220925183546001600160a01b03191694169390931782555160018201559151600283015551600390910155611e1560d985612a0e565b5060408051828152905185916001600160a01b038616917f1449c6dd7851abc30abf37f57715f492010519147cc2652fbc38202c18a6ee909181900360200190a3505060016066555050565b3390565b604080516001600160a01b038416602482015260448082018490528251808303909101815260649091019091526020810180516001600160e01b031663a9059cbb60e01b17905261162a908490612a1a565b600061073782612acb565b6000611a528383612acf565b60026066541415611f14576040805162461bcd60e51b815260206004820152601f6024820152600080516020612ed8833981519152604482015290519081900360640190fd5b6002606655609854839060ff16611f7f57611f2d61176b565b60d055611f386110ed565b60cf556001600160a01b03811615611f7f57611f53816106bf565b6001600160a01b038216600090815260d2602090815260408083209390935560d05460d1909152919020555b60d454611f8d90600161199c565b60d4556001600160a01b038416600090815260d560205260409020611fb29083612b33565b5060d654611fc0908461199c565b60d6556001600160a01b038416600090815260d76020526040902054611fe6908461199c565b6001600160a01b038516600090815260d7602052604090205561200a60d983612b33565b50600082815260d3602052604080822080546001600160a01b0319168155600181018390556002810183905560030182905560cb548151630852cd8d60e31b81526004810186905291516001600160a01b03909116926342966c68926024808201939182900301818387803b15801561208257600080fd5b505af1158015612096573d6000803e3d6000fd5b50506001606655505050505050565b6120ad610f4a565b6120f5576040805162461bcd60e51b815260206004820152601460248201527314185d5cd8589b194e881b9bdd081c185d5cd95960621b604482015290519081900360640190fd5b6098805461ff00191690557f5db9ee0a495bf2e6ff9c91a7834c1ba4fdd244a5e8aa4e537bd38aeae4b073aa612129611e61565b604080516001600160a01b039092168252519081900360200190a1565b6002606654141561218c576040805162461bcd60e51b815260206004820152601f6024820152600080516020612ed8833981519152604482015290519081900360640190fd5b6002606655609854339060ff166121f7576121a561176b565b60d0556121b06110ed565b60cf556001600160a01b038116156121f7576121cb816106bf565b6001600160a01b038216600090815260d2602090815260408083209390935560d05460d1909152919020555b33600090815260d56020526040902061220f90611eb7565b8210612252576040805162461bcd60e51b815260206004820152600d60248201526c092dcecc2d8d2c840d2dcc8caf609b1b604482015290519081900360640190fd5b33600090815260d56020526040812061226b9084611ec2565b9050612275612e84565b50600081815260d36020908152604091829020825160808101845281546001600160a01b031681526001808301549382019390935260028201549381019390935260030154606083015260d4546122cb9161199c565b60d45533600090815260d5602052604090206122e79083612b33565b50602081015160d6546122f99161199c565b60d65560208082015133600090815260d790925260409091205461231c9161199c565b33600090815260d7602052604090205561233760d983612b33565b50600082815260d3602052604080822080546001600160a01b0319168155600181018390556002810183905560030182905560cb548151635c46a7ef60e11b815230600482015233602482015260448101869052608060648201526084810184905291516001600160a01b039091169263b88d4fde9260c4808201939182900301818387803b1580156123c957600080fd5b505af19250505080156123da575060015b6124505760cb54604080516323b872dd60e01b81523060048201523360248201526044810185905290516001600160a01b03909216916323b872dd9160648082019260009290919082900301818387803b15801561243757600080fd5b505af115801561244b573d6000803e3d6000fd5b505050505b8051602080830151604080519182525185936001600160a01b0316927f7fc4727e062e336010f2c282598ef5f14facb3de68cf8195c2f23e1454b2b74e928290030190a3505060016066555050565b6124a7610f4a565b156124ec576040805162461bcd60e51b815260206004820152601060248201526f14185d5cd8589b194e881c185d5cd95960821b604482015290519081900360640190fd5b6098805461ff0019166101001790557f62e78cea01bee320cd4e420270b5ea74000d11b0c9f74754ebdbfc544b05a258612129611e61565b600061252f30612b3f565b15905090565b600054610100900460ff168061254e575061254e612524565b8061255c575060005460ff16155b6125975760405162461bcd60e51b815260040180806020018281038252602e815260200180612fd2602e913960400191505060405180910390fd5b600054610100900460ff161580156125c2576000805460ff1961ff0019909116610100171660011790555b6125ca6128d4565b8015610fed576000805461ff001916905550565b600054610100900460ff16806125f757506125f7612524565b80612605575060005460ff16155b6126405760405162461bcd60e51b815260040180806020018281038252602e815260200180612fd2602e913960400191505060405180910390fd5b600054610100900460ff1615801561266b576000805460ff1961ff0019909116610100171660011790555b6000612675611e61565b603380546001600160a01b0319166001600160a01b038316908117909155604051919250906000907f8be0079c531659141344cd1fd0a4f28419497f9722a3daafe3b4186f6b6457e0908290a3508015610fed576000805461ff001916905550565b600054610100900460ff16806126f057506126f0612524565b806126fe575060005460ff16155b6127395760405162461bcd60e51b815260040180806020018281038252602e815260200180612fd2602e913960400191505060405180910390fd5b600054610100900460ff16158015612764576000805460ff1961ff0019909116610100171660011790555b6098805461ff00191690558015610fed576000805461ff001916905550565b600054610100900460ff168061279c575061279c612524565b806127aa575060005460ff16155b6127e55760405162461bcd60e51b815260040180806020018281038252602e815260200180612fd2602e913960400191505060405180910390fd5b600054610100900460ff16158015612810576000805460ff1961ff0019909116610100171660011790555b6098805460ff191690558015610fed576000805461ff001916905550565b600054610100900460ff16806128475750612847612524565b80612855575060005460ff16155b6128905760405162461bcd60e51b815260040180806020018281038252602e815260200180612fd2602e913960400191505060405180910390fd5b600054610100900460ff161580156128bb576000805460ff1961ff0019909116610100171660011790555b60016066558015610fed576000805461ff001916905550565b600054610100900460ff16806128ed57506128ed612524565b806128fb575060005460ff16155b6129365760405162461bcd60e51b815260040180806020018281038252602e815260200180612fd2602e913960400191505060405180910390fd5b600054610100900460ff161580156125ca576000805460ff1961ff0019909116610100171660011790558015610fed576000805461ff001916905550565b61297c611e61565b6001600160a01b031661298d611234565b6001600160a01b0316146129d6576040805162461bcd60e51b81526020600482018190526024820152600080516020613045833981519152604482015290519081900360640190fd5b6098805460ff191660011790556040517fe68101b30364d616deefc8cd307b7e27ccbd9c73f138bd478179497563d97a1190600090a1565b6000611a528383612b45565b6060612a6f826040518060400160405280602081526020017f5361666545524332303a206c6f772d6c6576656c2063616c6c206661696c6564815250856001600160a01b0316612b8f9092919063ffffffff16565b80519091501561162a57808060200190516020811015612a8e57600080fd5b505161162a5760405162461bcd60e51b815260040180806020018281038252602a81526020018061308f602a913960400191505060405180910390fd5b5490565b81546000908210612b115760405162461bcd60e51b8152600401808060200182810382526022815260200180612eb66022913960400191505060405180910390fd5b826000018281548110612b2057fe5b9060005260206000200154905092915050565b6000611a528383612ba6565b3b151590565b6000612b518383612c6c565b612b8757508154600181810184556000848152602080822090930184905584548482528286019093526040902091909155610737565b506000610737565b6060612b9e8484600085612c84565b949350505050565b60008181526001830160205260408120548015612c625783546000198083019190810190600090879083908110612bd957fe5b9060005260206000200154905080876000018481548110612bf657fe5b600091825260208083209091019290925582815260018981019092526040902090840190558654879080612c2657fe5b60019003818190600052602060002001600090559055866001016000878152602001908152602001600020600090556001945050505050610737565b6000915050610737565b60009081526001919091016020526040902054151590565b606082471015612cc55760405162461bcd60e51b8152600401808060200182810382526026815260200180612fac6026913960400191505060405180910390fd5b612cce85612b3f565b612d1f576040805162461bcd60e51b815260206004820152601d60248201527f416464726573733a2063616c6c20746f206e6f6e2d636f6e7472616374000000604482015290519081900360640190fd5b60006060866001600160a01b031685876040518082805190602001908083835b60208310612d5e5780518252601f199092019160209182019101612d3f565b6001836020036101000a03801982511681845116808217855250505050505090500191505060006040518083038185875af1925050503d8060008114612dc0576040519150601f19603f3d011682016040523d82523d6000602084013e612dc5565b606091505b5091509150612dd5828286612de0565b979650505050505050565b60608315612def575081611a52565b825115612dff5782518084602001fd5b8160405162461bcd60e51b81526004018080602001828103825283818151815260200191508051906020019080838360005b83811015612e49578181015183820152602001612e31565b50505050905090810190601f168015612e765780820380516001836020036101000a031916815260200191505b509250505060405180910390fd5b604051806080016040528060006001600160a01b03168152602001600081526020016000815260200160008152509056fe456e756d657261626c655365743a20696e646578206f7574206f6620626f756e64735265656e7472616e637947756172643a207265656e7472616e742063616c6c005468697320616374696f6e2063616e6e6f7420626520706572666f726d6564207768696c652074686520636f6e747261637420697320696e204661696c73616665204d6f64655468697320616374696f6e2063616e206f6e6c7920626520706572666f726d6564207768696c652074686520636f6e747261637420697320696e204661696c73616665204d6f64654f776e61626c653a206e6577206f776e657220697320746865207a65726f2061646472657373416464726573733a20696e73756666696369656e742062616c616e636520666f722063616c6c496e697469616c697a61626c653a20636f6e747261637420697320616c726561647920696e697469616c697a65644e66745374616b696e673a20436f6e7472616374206e6f742077686974656c6973746564536166654d6174683a206d756c7469706c69636174696f6e206f766572666c6f774f776e61626c653a2063616c6c6572206973206e6f7420746865206f776e657243616c6c6572206973206e6f742052657761726473446973747269627574696f6e20636f6e74726163745361666545524332303a204552433230206f7065726174696f6e20646964206e6f742073756363656564a2646970667358221220748b1ce68402f1f6b05cf16d7b1a26b15dc10ca692512b911f4ef9383e172be664736f6c634300060c0033",
  "linkReferences": {},
  "deployedLinkReferences": {}
}