{
  "_format": "hh-sol-artifact-1",
  "contractName": "Governance",
  "sourceName": "contracts/Governance.sol",
  "abi": [
    {
      "anonymous": false,
      "inputs": [
        {
          "indexed": true,
          "internalType": "uint256",
          "name": "proposalId",
          "type": "uint256"
        }
      ],
      "name": "CancelProposal",
      "type": "event"
    },
    {
      "anonymous": false,
      "inputs": [
        {
          "indexed": true,
          "internalType": "uint256",
          "name": "proposalId",
          "type": "uint256"
        }
      ],
      "name": "ExcuteProposal",
      "type": "event"
    },
    {
      "anonymous": false,
      "inputs": [
        {
          "indexed": false,
          "internalType": "address",
          "name": "proposer",
          "type": "address"
        },
        {
          "indexed": true,
          "internalType": "uint256",
          "name": "proposalId",
          "type": "uint256"
        },
        {
          "indexed": true,
          "internalType": "uint8",
          "name": "productId",
          "type": "uint8"
        }
      ],
      "name": "ProposalCreated",
      "type": "event"
    },
    {
      "anonymous": false,
      "inputs": [
        {
          "indexed": true,
          "internalType": "bytes32",
          "name": "role",
          "type": "bytes32"
        },
        {
          "indexed": true,
          "internalType": "bytes32",
          "name": "previousAdminRole",
          "type": "bytes32"
        },
        {
          "indexed": true,
          "internalType": "bytes32",
          "name": "newAdminRole",
          "type": "bytes32"
        }
      ],
      "name": "RoleAdminChanged",
      "type": "event"
    },
    {
      "anonymous": false,
      "inputs": [
        {
          "indexed": true,
          "internalType": "bytes32",
          "name": "role",
          "type": "bytes32"
        },
        {
          "indexed": true,
          "internalType": "address",
          "name": "account",
          "type": "address"
        },
        {
          "indexed": true,
          "internalType": "address",
          "name": "sender",
          "type": "address"
        }
      ],
      "name": "RoleGranted",
      "type": "event"
    },
    {
      "anonymous": false,
      "inputs": [
        {
          "indexed": true,
          "internalType": "bytes32",
          "name": "role",
          "type": "bytes32"
        },
        {
          "indexed": true,
          "internalType": "address",
          "name": "account",
          "type": "address"
        },
        {
          "indexed": true,
          "internalType": "address",
          "name": "sender",
          "type": "address"
        }
      ],
      "name": "RoleRevoked",
      "type": "event"
    },
    {
      "anonymous": false,
      "inputs": [
        {
          "indexed": false,
          "internalType": "address",
          "name": "voter",
          "type": "address"
        },
        {
          "indexed": true,
          "internalType": "uint256",
          "name": "proposalId",
          "type": "uint256"
        },
        {
          "indexed": false,
          "internalType": "bool",
          "name": "isUpvote",
          "type": "bool"
        },
        {
          "indexed": false,
          "internalType": "uint256",
          "name": "totalWeight",
          "type": "uint256"
        }
      ],
      "name": "Vote",
      "type": "event"
    },
    {
      "inputs": [],
      "name": "BUNI_TOKEN",
      "outputs": [
        {
          "internalType": "contract IERC20",
          "name": "",
          "type": "address"
        }
      ],
      "stateMutability": "view",
      "type": "function"
    },
    {
      "inputs": [],
      "name": "DEFAULT_ADMIN_ROLE",
      "outputs": [
        {
          "internalType": "bytes32",
          "name": "",
          "type": "bytes32"
        }
      ],
      "stateMutability": "view",
      "type": "function"
    },
    {
      "inputs": [],
      "name": "ROLE_GOVERNANCE_ADMIN",
      "outputs": [
        {
          "internalType": "bytes32",
          "name": "",
          "type": "bytes32"
        }
      ],
      "stateMutability": "view",
      "type": "function"
    },
    {
      "inputs": [],
      "name": "TRAINER",
      "outputs": [
        {
          "internalType": "contract ITrainer",
          "name": "",
          "type": "address"
        }
      ],
      "stateMutability": "view",
      "type": "function"
    },
    {
      "inputs": [],
      "name": "amountToPropose",
      "outputs": [
        {
          "internalType": "uint256",
          "name": "",
          "type": "uint256"
        }
      ],
      "stateMutability": "view",
      "type": "function"
    },
    {
      "inputs": [],
      "name": "amountToVote",
      "outputs": [
        {
          "internalType": "uint256",
          "name": "",
          "type": "uint256"
        }
      ],
      "stateMutability": "view",
      "type": "function"
    },
    {
      "inputs": [
        {
          "internalType": "uint256",
          "name": "_proposalId",
          "type": "uint256"
        }
      ],
      "name": "cancelProposal",
      "outputs": [],
      "stateMutability": "nonpayable",
      "type": "function"
    },
    {
      "inputs": [],
      "name": "createFee",
      "outputs": [
        {
          "internalType": "uint256",
          "name": "",
          "type": "uint256"
        }
      ],
      "stateMutability": "view",
      "type": "function"
    },
    {
      "inputs": [
        {
          "internalType": "uint256",
          "name": "_proposalId",
          "type": "uint256"
        }
      ],
      "name": "executeProposal",
      "outputs": [],
      "stateMutability": "nonpayable",
      "type": "function"
    },
    {
      "inputs": [
        {
          "internalType": "uint256",
          "name": "_proposalId",
          "type": "uint256"
        }
      ],
      "name": "getProposal",
      "outputs": [
        {
          "components": [
            {
              "internalType": "address",
              "name": "proposer",
              "type": "address"
            },
            {
              "internalType": "bool",
              "name": "canceled",
              "type": "bool"
            },
            {
              "internalType": "bool",
              "name": "executed",
              "type": "bool"
            },
            {
              "internalType": "uint256",
              "name": "proposalTimestamp",
              "type": "uint256"
            },
            {
              "internalType": "uint256",
              "name": "numUpvotes",
              "type": "uint256"
            },
            {
              "internalType": "uint256",
              "name": "numDownvotes",
              "type": "uint256"
            },
            {
              "internalType": "uint256",
              "name": "weightUpvotes",
              "type": "uint256"
            },
            {
              "internalType": "uint256",
              "name": "weightDownvotes",
              "type": "uint256"
            },
            {
              "internalType": "uint8",
              "name": "productId",
              "type": "uint8"
            }
          ],
          "internalType": "struct Governance.Proposal",
          "name": "proposal",
          "type": "tuple"
        }
      ],
      "stateMutability": "view",
      "type": "function"
    },
    {
      "inputs": [
        {
          "internalType": "address",
          "name": "_proposer",
          "type": "address"
        }
      ],
      "name": "getProposalIDsByProposer",
      "outputs": [
        {
          "internalType": "uint256[]",
          "name": "",
          "type": "uint256[]"
        }
      ],
      "stateMutability": "view",
      "type": "function"
    },
    {
      "inputs": [
        {
          "internalType": "address",
          "name": "_voter",
          "type": "address"
        }
      ],
      "name": "getProposalIDsByVoter",
      "outputs": [
        {
          "internalType": "uint256[]",
          "name": "",
          "type": "uint256[]"
        }
      ],
      "stateMutability": "view",
      "type": "function"
    },
    {
      "inputs": [
        {
          "internalType": "uint256",
          "name": "_proposalId",
          "type": "uint256"
        },
        {
          "internalType": "address",
          "name": "_voter",
          "type": "address"
        }
      ],
      "name": "getReceipt",
      "outputs": [
        {
          "components": [
            {
              "internalType": "bool",
              "name": "hasVoted",
              "type": "bool"
            },
            {
              "internalType": "bool",
              "name": "isUpvote",
              "type": "bool"
            },
            {
              "internalType": "uint256",
              "name": "ballotTimestamp",
              "type": "uint256"
            }
          ],
          "internalType": "struct Governance.Receipt",
          "name": "",
          "type": "tuple"
        }
      ],
      "stateMutability": "view",
      "type": "function"
    },
    {
      "inputs": [
        {
          "internalType": "bytes32",
          "name": "role",
          "type": "bytes32"
        }
      ],
      "name": "getRoleAdmin",
      "outputs": [
        {
          "internalType": "bytes32",
          "name": "",
          "type": "bytes32"
        }
      ],
      "stateMutability": "view",
      "type": "function"
    },
    {
      "inputs": [
        {
          "internalType": "bytes32",
          "name": "role",
          "type": "bytes32"
        },
        {
          "internalType": "uint256",
          "name": "index",
          "type": "uint256"
        }
      ],
      "name": "getRoleMember",
      "outputs": [
        {
          "internalType": "address",
          "name": "",
          "type": "address"
        }
      ],
      "stateMutability": "view",
      "type": "function"
    },
    {
      "inputs": [
        {
          "internalType": "bytes32",
          "name": "role",
          "type": "bytes32"
        }
      ],
      "name": "getRoleMemberCount",
      "outputs": [
        {
          "internalType": "uint256",
          "name": "",
          "type": "uint256"
        }
      ],
      "stateMutability": "view",
      "type": "function"
    },
    {
      "inputs": [
        {
          "internalType": "uint256",
          "name": "_proposalId",
          "type": "uint256"
        }
      ],
      "name": "getVotersOfProposal",
      "outputs": [
        {
          "internalType": "address[]",
          "name": "",
          "type": "address[]"
        }
      ],
      "stateMutability": "view",
      "type": "function"
    },
    {
      "inputs": [
        {
          "internalType": "bytes32",
          "name": "role",
          "type": "bytes32"
        },
        {
          "internalType": "address",
          "name": "account",
          "type": "address"
        }
      ],
      "name": "grantRole",
      "outputs": [],
      "stateMutability": "nonpayable",
      "type": "function"
    },
    {
      "inputs": [
        {
          "internalType": "bytes32",
          "name": "role",
          "type": "bytes32"
        },
        {
          "internalType": "address",
          "name": "account",
          "type": "address"
        }
      ],
      "name": "hasRole",
      "outputs": [
        {
          "internalType": "bool",
          "name": "",
          "type": "bool"
        }
      ],
      "stateMutability": "view",
      "type": "function"
    },
    {
      "inputs": [
        {
          "internalType": "address",
          "name": "_buni",
          "type": "address"
        }
      ],
      "name": "initialize",
      "outputs": [],
      "stateMutability": "nonpayable",
      "type": "function"
    },
    {
      "inputs": [],
      "name": "isEmergency",
      "outputs": [
        {
          "internalType": "bool",
          "name": "",
          "type": "bool"
        }
      ],
      "stateMutability": "view",
      "type": "function"
    },
    {
      "inputs": [
        {
          "internalType": "uint256",
          "name": "_proposalId",
          "type": "uint256"
        },
        {
          "internalType": "uint8",
          "name": "_productId",
          "type": "uint8"
        }
      ],
      "name": "propose",
      "outputs": [],
      "stateMutability": "nonpayable",
      "type": "function"
    },
    {
      "inputs": [
        {
          "internalType": "bytes32",
          "name": "role",
          "type": "bytes32"
        },
        {
          "internalType": "address",
          "name": "account",
          "type": "address"
        }
      ],
      "name": "renounceRole",
      "outputs": [],
      "stateMutability": "nonpayable",
      "type": "function"
    },
    {
      "inputs": [
        {
          "internalType": "bytes32",
          "name": "role",
          "type": "bytes32"
        },
        {
          "internalType": "address",
          "name": "account",
          "type": "address"
        }
      ],
      "name": "revokeRole",
      "outputs": [],
      "stateMutability": "nonpayable",
      "type": "function"
    },
    {
      "inputs": [
        {
          "internalType": "uint256",
          "name": "_newAmount",
          "type": "uint256"
        }
      ],
      "name": "setAmountToPropose",
      "outputs": [],
      "stateMutability": "nonpayable",
      "type": "function"
    },
    {
      "inputs": [
        {
          "internalType": "uint256",
          "name": "_newAmount",
          "type": "uint256"
        }
      ],
      "name": "setAmountToVote",
      "outputs": [],
      "stateMutability": "nonpayable",
      "type": "function"
    },
    {
      "inputs": [
        {
          "internalType": "uint256",
          "name": "_newCreateFee",
          "type": "uint256"
        }
      ],
      "name": "setCreateFee",
      "outputs": [],
      "stateMutability": "nonpayable",
      "type": "function"
    },
    {
      "inputs": [
        {
          "internalType": "bool",
          "name": "_isEmergency",
          "type": "bool"
        }
      ],
      "name": "setEmergency",
      "outputs": [],
      "stateMutability": "nonpayable",
      "type": "function"
    },
    {
      "inputs": [
        {
          "internalType": "contract ITrainer",
          "name": "_trainer",
          "type": "address"
        }
      ],
      "name": "setTrainer",
      "outputs": [],
      "stateMutability": "nonpayable",
      "type": "function"
    },
    {
      "inputs": [
        {
          "internalType": "uint256",
          "name": "_proposalId",
          "type": "uint256"
        },
        {
          "internalType": "bool",
          "name": "_isUpvote",
          "type": "bool"
        }
      ],
      "name": "vote",
      "outputs": [],
      "stateMutability": "nonpayable",
      "type": "function"
    },
    {
      "inputs": [
        {
          "internalType": "uint256",
          "name": "_proposalId",
          "type": "uint256"
        },
        {
          "internalType": "bool",
          "name": "_isUpvote",
          "type": "bool"
        },
        {
          "internalType": "uint256[]",
          "name": "_trainerIds",
          "type": "uint256[]"
        }
      ],
      "name": "voteForBunicornGame",
      "outputs": [],
      "stateMutability": "nonpayable",
      "type": "function"
    },
    {
      "inputs": [
        {
          "internalType": "contract IERC20",
          "name": "_token",
          "type": "address"
        },
        {
          "internalType": "address",
          "name": "_recipient",
          "type": "address"
        },
        {
          "internalType": "uint256",
          "name": "_amount",
          "type": "uint256"
        }
      ],
      "name": "withdraw",
      "outputs": [],
      "stateMutability": "nonpayable",
      "type": "function"
    }
  ],
  "bytecode": "0x608060405234801561001057600080fd5b506122c7806100206000396000f3fe608060405234801561001057600080fd5b50600436106101f05760003560e01c80639010d07c1161010f578063c7f758a8116100a2578063d9caed1211610071578063d9caed121461040a578063e0a8f6f51461041d578063e23a9a5214610430578063f02ed42914610450576101f0565b8063c7f758a8146103b1578063c9d27afe146103d1578063ca15c873146103e4578063d547741f146103f7576101f0565b8063b0d3ac78116100de578063b0d3ac781461037b578063b2db919b14610383578063c21b8dd01461038b578063c4d66de81461039e576101f0565b80639010d07c1461032d57806391d14854146103405780639c12367714610353578063a217fddf14610373576101f0565b80634a21d8a6116101875780637ab4aa36116101565780637ab4aa36146102dd5780637d787836146102f05780638b6c32e2146103055780638d66111a1461030d576101f0565b80634a21d8a61461028f5780635f9e8f82146102a257806362914849146102b757806369c5a4c8146102ca576101f0565b8063248a9ca3116101c3578063248a9ca31461024e5780632f2ff15d1461026157806336568abe1461027457806339f09d0414610287576101f0565b80630501d556146101f5578063098d0af31461020a5780630b4154771461021d5780630d61b5191461023b575b600080fd5b610208610203366004611ad8565b610463565b005b610208610218366004611b10565b6104b3565b6102256104ec565b6040516102329190611df1565b60405180910390f35b610208610249366004611b10565b6104f2565b61022561025c366004611b10565b6105a2565b61020861026f366004611b28565b6105b7565b610208610282366004611b28565b6105ff565b610225610641565b61020861029d366004611c06565b610653565b6102aa610af5565b6040516102329190611de6565b6102086102c5366004611b10565b610afe565b6102086102d8366004611cb9565b610b37565b6102086102eb366004611b10565b610dd7565b6102f8610e10565b6040516102329190611cef565b610225610e1f565b61032061031b366004611a99565b610e25565b6040516102329190611dae565b6102f861033b366004611b57565b610eca565b6102aa61034e366004611b28565b610eeb565b610366610361366004611b10565b610f03565b6040516102329190611d61565b610225610fa3565b6102f8610fa8565b610225610fb7565b610320610399366004611a99565b610fbd565b6102086103ac366004611a99565b61105a565b6103c46103bf366004611b10565b611133565b6040516102329190612157565b6102086103df366004611be2565b6111cb565b6102256103f2366004611b10565b6113ab565b610208610405366004611b28565b6113c2565b610208610418366004611b78565b6113fc565b61020861042b366004611b10565b611552565b61044361043e366004611bd0565b611602565b60405161023291906121d6565b61020861045e366004611a99565b61165f565b61047b60008051602061227283398151915233610eeb565b6104a05760405162461bcd60e51b815260040161049790612079565b60405180910390fd5b606c805460ff1916911515919091179055565b6104cb60008051602061227283398151915233610eeb565b6104e75760405162461bcd60e51b815260040161049790612079565b606b55565b606d5481565b61050a60008051602061227283398151915233610eeb565b6105265760405162461bcd60e51b815260040161049790612079565b6000818152606560205260409020600101546105545760405162461bcd60e51b815260040161049790611ef1565b600081815260656020526040808220805460ff60a81b1916600160a81b1781559051909183917f5db5f19e2207a3345b7d128c1fb55c4f46255f937886ea5e3ad29e9223d46d219190a25050565b60009081526033602052604090206002015490565b6000828152603360205260409020600201546105d59061034e6116b5565b6105f15760405162461bcd60e51b815260040161049790611e3c565b6105fb82826116b9565b5050565b6106076116b5565b6001600160a01b0316816001600160a01b0316146106375760405162461bcd60e51b815260040161049790612108565b6105fb8282611722565b60008051602061227283398151915281565b61065b61178b565b8051606f546040516370a0823160e01b81526001600160a01b03909116906370a082319061068d903390600401611cef565b60206040518083038186803b1580156106a557600080fd5b505afa1580156106b9573d6000803e3d6000fd5b505050506040513d601f19601f820116820180604052508101906106dd9190611bb8565b146106fa5760405162461bcd60e51b815260040161049790611e8b565b606f546040516370a0823160e01b81526000916001600160a01b0316906370a082319061072b903390600401611cef565b60206040518083038186803b15801561074357600080fd5b505afa158015610757573d6000803e3d6000fd5b505050506040513d601f19601f8201168201806040525081019061077b9190611bb8565b116107985760405162461bcd60e51b815260040161049790611f1e565b600083815260656020908152604080832060668352818420338552909252909120600682015460ff166002146107e05760405162461bcd60e51b81526004016104979061204e565b8154600160a01b900460ff16806107ff57508154600160a81b900460ff165b1561081c5760405162461bcd60e51b8152600401610497906120de565b805460ff161561083e5760405162461bcd60e51b815260040161049790612021565b6000805b8451811015610a2757606f54855133916001600160a01b031690636352211e9088908590811061086e57fe5b60200260200101516040518263ffffffff1660e01b81526004016108929190611df1565b60206040518083038186803b1580156108aa57600080fd5b505afa1580156108be573d6000803e3d6000fd5b505050506040513d601f19601f820116820180604052508101906108e29190611abc565b6001600160a01b0316146109085760405162461bcd60e51b815260040161049790611ec2565b606f5485516001600160a01b0390911690631e7aa37d9087908490811061092b57fe5b60200260200101516040518263ffffffff1660e01b815260040161094f9190611df1565b60206040518083038186803b15801561096757600080fd5b505afa15801561097b573d6000803e3d6000fd5b505050506040513d601f19601f8201168201806040525081019061099f9190611bb8565b606f54865191909301926001600160a01b031690634ae717ab908790849081106109c557fe5b60200260200101516040518263ffffffff1660e01b81526004016109e99190611df1565b600060405180830381600087803b158015610a0357600080fd5b505af1158015610a17573d6000803e3d6000fd5b5050600190920191506108429050565b508415610a4857600283018054600101905560048301805482019055610a5e565b6003830180546001019055600583018054820190555b8154600160ff19909116811761ff0019166101008715150217835542908301556000868152606760205260409020610a9690336117b0565b50336000908152606960205260409020610ab090876117c5565b50857f65f8c50a40ae46ed6b244ba59b93d321216c9638f156760e7f851c2536a3add2338784604051610ae593929190611d27565b60405180910390a2505050505050565b606c5460ff1681565b610b1660008051602061227283398151915233610eeb565b610b325760405162461bcd60e51b815260040161049790612079565b606a55565b610b3f61178b565b606b54606e546040516370a0823160e01b81526001600160a01b03909116906370a0823190610b72903390600401611cef565b60206040518083038186803b158015610b8a57600080fd5b505afa158015610b9e573d6000803e3d6000fd5b505050506040513d601f19601f82011682018060405250810190610bc29190611bb8565b1015610be05760405162461bcd60e51b815260040161049790611f1e565b60008281526065602052604090206001015415610c0f5760405162461bcd60e51b815260040161049790611f4c565b610c17611a1d565b506040805161012081018252338082526000602080840182815284860183815242606087019081526080870185815260a0880186815260c0890187815260e08a0188815260ff8d81166101008d019081528f8b5260658a528d8b208d5181549a5199516001600160a01b0319909b166001600160a01b039091161760ff60a01b1916600160a01b991515999099029890981760ff60a81b1916600160a81b9915159990990298909817875594516001870155925160028601559051600385015551600484015551600583015591516006909101805460ff191691909216179055918152606890915291909120610d0d90846117c5565b50606e54606a546040516323b872dd60e01b81526001600160a01b03909216916323b872dd91610d439133913091600401611d03565b602060405180830381600087803b158015610d5d57600080fd5b505af1158015610d71573d6000803e3d6000fd5b505050506040513d601f19601f82011682018060405250810190610d959190611af4565b508160ff16837fad28c05531313780367379beeaf3d39b44e5b7ae2e7421705181cd13840b995433604051610dca9190611cef565b60405180910390a3505050565b610def60008051602061227283398151915233610eeb565b610e0b5760405162461bcd60e51b815260040161049790612079565b606d55565b606f546001600160a01b031681565b606b5481565b6001600160a01b038116600090815260686020526040902060609081610e4a826117d1565b67ffffffffffffffff81118015610e6057600080fd5b50604051908082528060200260200182016040528015610e8a578160200160208202803683370190505b50905060005b8151811015610ec257610ea383826117dc565b828281518110610eaf57fe5b6020908102919091010152600101610e90565b509392505050565b6000828152603360205260408120610ee290836117dc565b90505b92915050565b6000828152603360205260408120610ee290836117e8565b600081815260676020526040902060609081610f1e826117d1565b67ffffffffffffffff81118015610f3457600080fd5b50604051908082528060200260200182016040528015610f5e578160200160208202803683370190505b50905060005b8151811015610ec257610f7783826117dc565b828281518110610f8357fe5b6001600160a01b0390921660209283029190910190910152600101610f64565b600081565b606e546001600160a01b031681565b606a5481565b6001600160a01b038116600090815260696020526040902060609081610fe2826117d1565b67ffffffffffffffff81118015610ff857600080fd5b50604051908082528060200260200182016040528015611022578160200160208202803683370190505b50905060005b8151811015610ec25761103b83826117dc565b82828151811061104757fe5b6020908102919091010152600101611028565b600054610100900460ff168061107357506110736117fd565b80611081575060005460ff16155b61109d5760405162461bcd60e51b815260040161049790611fd3565b600054610100900460ff161580156110c8576000805460ff1961ff0019909116610100171660011790555b6110d061180e565b6110db6000336105f1565b606e80546001600160a01b0319166001600160a01b03841617905568056bc75e2d63100000606a5569010f0cf064dd59200000606b5568a2a15d09519be00000606d5580156105fb576000805461ff00191690555050565b61113b611a1d565b5060009081526065602090815260409182902082516101208101845281546001600160a01b038116825260ff600160a01b82048116151594830194909452600160a81b900483161515938101939093526001810154606084015260028101546080840152600381015460a0840152600481015460c0840152600581015460e0840152600601541661010082015290565b6111d361178b565b606d54606e546040516370a0823160e01b81526001600160a01b03909116906370a0823190611206903390600401611cef565b60206040518083038186803b15801561121e57600080fd5b505afa158015611232573d6000803e3d6000fd5b505050506040513d601f19601f820116820180604052508101906112569190611bb8565b10156112745760405162461bcd60e51b815260040161049790611f1e565b6000828152606560209081526040808320606683528184203385529092529091208154600160a01b900460ff16806112b457508154600160a81b900460ff165b156112d15760405162461bcd60e51b8152600401610497906120de565b805460ff16156112f35760405162461bcd60e51b815260040161049790612021565b8215611309576002820180546001019055611315565b60038201805460010190555b8054600160ff19909116811761ff001916610100851515021782554290820155600084815260676020526040902061134d90336117b0565b5033600090815260696020526040902061136790856117c5565b50837f65f8c50a40ae46ed6b244ba59b93d321216c9638f156760e7f851c2536a3add23385600060405161139d93929190611d27565b60405180910390a250505050565b6000818152603360205260408120610ee5906117d1565b6000828152603360205260409020600201546113e09061034e6116b5565b6106375760405162461bcd60e51b815260040161049790611f83565b61141460008051602061227283398151915233610eeb565b6114305760405162461bcd60e51b815260040161049790612079565b6040516370a0823160e01b815281906001600160a01b038516906370a082319061145e903090600401611cef565b60206040518083038186803b15801561147657600080fd5b505afa15801561148a573d6000803e3d6000fd5b505050506040513d601f19601f820116820180604052508101906114ae9190611bb8565b10156114cc5760405162461bcd60e51b815260040161049790611f1e565b60405163a9059cbb60e01b81526001600160a01b0384169063a9059cbb906114fa9085908590600401611d48565b602060405180830381600087803b15801561151457600080fd5b505af1158015611528573d6000803e3d6000fd5b505050506040513d601f19601f8201168201806040525081019061154c9190611af4565b50505050565b61156a60008051602061227283398151915233610eeb565b6115865760405162461bcd60e51b815260040161049790612079565b6000818152606560205260409020600101546115b45760405162461bcd60e51b815260040161049790611ef1565b600081815260656020526040808220805460ff60a01b1916600160a01b1781559051909183917f8896f24cff41b54acf76c2560861f33cd20fd76c4df0b68a3515c354e4b6c81a9190a25050565b61160a611a79565b5060009182526066602090815260408084206001600160a01b03939093168452918152918190208151606081018352815460ff8082161515835261010090910416151593810193909352600101549082015290565b61167760008051602061227283398151915233610eeb565b6116935760405162461bcd60e51b815260040161049790612079565b606f80546001600160a01b0319166001600160a01b0392909216919091179055565b3390565b60008281526033602052604090206116d190826117b0565b156105fb576116de6116b5565b6001600160a01b0316816001600160a01b0316837f2f8788117e7eff1d82e926ec794901d17c78024a50270940304540a733656f0d60405160405180910390a45050565b600082815260336020526040902061173a9082611891565b156105fb576117476116b5565b6001600160a01b0316816001600160a01b0316837ff6391f5c32d9c69d2a47ea670b442974b53935d1edc7fd64eb21e047a839171b60405160405180910390a45050565b606c5460ff16156117ae5760405162461bcd60e51b8152600401610497906120a7565b565b6000610ee2836001600160a01b0384166118a6565b6000610ee283836118a6565b6000610ee5826118f0565b6000610ee283836118f4565b6000610ee2836001600160a01b038416611939565b600061180830611951565b15905090565b600054610100900460ff168061182757506118276117fd565b80611835575060005460ff16155b6118515760405162461bcd60e51b815260040161049790611fd3565b600054610100900460ff1615801561187c576000805460ff1961ff0019909116610100171660011790555b801561188e576000805461ff00191690555b50565b6000610ee2836001600160a01b038416611957565b60006118b28383611939565b6118e857508154600181810184556000848152602080822090930184905584548482528286019093526040902091909155610ee5565b506000610ee5565b5490565b815460009082106119175760405162461bcd60e51b815260040161049790611dfa565b82600001828154811061192657fe5b9060005260206000200154905092915050565b60009081526001919091016020526040902054151590565b3b151590565b60008181526001830160205260408120548015611a13578354600019808301919081019060009087908390811061198a57fe5b90600052602060002001549050808760000184815481106119a757fe5b6000918252602080832090910192909255828152600189810190925260409020908401905586548790806119d757fe5b60019003818190600052602060002001600090559055866001016000878152602001908152602001600020600090556001945050505050610ee5565b6000915050610ee5565b60405180610120016040528060006001600160a01b031681526020016000151581526020016000151581526020016000815260200160008152602001600081526020016000815260200160008152602001600060ff1681525090565b604080516060810182526000808252602082018190529181019190915290565b600060208284031215611aaa578081fd5b8135611ab58161224e565b9392505050565b600060208284031215611acd578081fd5b8151611ab58161224e565b600060208284031215611ae9578081fd5b8135611ab581612263565b600060208284031215611b05578081fd5b8151611ab581612263565b600060208284031215611b21578081fd5b5035919050565b60008060408385031215611b3a578081fd5b823591506020830135611b4c8161224e565b809150509250929050565b60008060408385031215611b69578182fd5b50508035926020909101359150565b600080600060608486031215611b8c578081fd5b8335611b978161224e565b92506020840135611ba78161224e565b929592945050506040919091013590565b600060208284031215611bc9578081fd5b5051919050565b60008060408385031215611b3a578182fd5b60008060408385031215611bf4578182fd5b823591506020830135611b4c81612263565b600080600060608486031215611c1a578283fd5b83359250602080850135611c2d81612263565b9250604085013567ffffffffffffffff811115611c48578283fd5b8501601f81018713611c58578283fd5b8035611c6b611c6682612222565b6121fb565b81815283810190838501858402850186018b1015611c87578687fd5b8694505b83851015611ca9578035835260019490940193918501918501611c8b565b5080955050505050509250925092565b60008060408385031215611ccb578081fd5b82359150602083013560ff81168114611b4c578182fd5b15159052565b60ff169052565b6001600160a01b0391909116815260200190565b6001600160a01b039384168152919092166020820152604081019190915260600190565b6001600160a01b039390931683529015156020830152604082015260600190565b6001600160a01b03929092168252602082015260400190565b6020808252825182820181905260009190848201906040850190845b81811015611da25783516001600160a01b031683529284019291840191600101611d7d565b50909695505050505050565b6020808252825182820181905260009190848201906040850190845b81811015611da257835183529284019291840191600101611dca565b901515815260200190565b90815260200190565b60208082526022908201527f456e756d657261626c655365743a20696e646578206f7574206f6620626f756e604082015261647360f01b606082015260800190565b6020808252602f908201527f416363657373436f6e74726f6c3a2073656e646572206d75737420626520616e60408201526e0818591b5a5b881d1bc819dc985b9d608a1b606082015260800190565b6020808252601e908201527f496e636f7272656374207175616e74697479206f6620747261696e6572730000604082015260600190565b6020808252601590820152742737ba103a3432903a3930b4b732b91037bbb732b960591b604082015260600190565b60208082526013908201527250726f706f73616c206e6f742065786973747360681b604082015260600190565b602080825260149082015273496e73756666696369656e742062616c616e636560601b604082015260600190565b60208082526017908201527f50726f706f73616c20616c726561647920657869737473000000000000000000604082015260600190565b60208082526030908201527f416363657373436f6e74726f6c3a2073656e646572206d75737420626520616e60408201526f2061646d696e20746f207265766f6b6560801b606082015260800190565b6020808252602e908201527f496e697469616c697a61626c653a20636f6e747261637420697320616c72656160408201526d191e481a5b9a5d1a585b1a5e995960921b606082015260800190565b602080825260139082015272159bdd195c88185b1c9958591e481d9bdd1959606a1b604082015260600190565b6020808252601190820152704e6f742062756e69636f726e2067616d6560781b604082015260600190565b6020808252601490820152732737ba1033b7bb32b93730b731b29030b236b4b760611b604082015260600190565b6020808252601b908201527f676f7665726e616e63653a20656d657267656e63792070617573650000000000604082015260600190565b60208082526010908201526f159bdd1a5b99c81a5cc818db1bdcd95960821b604082015260600190565b6020808252602f908201527f416363657373436f6e74726f6c3a2063616e206f6e6c792072656e6f756e636560408201526e103937b632b9903337b91039b2b63360891b606082015260800190565b815161012082019061216890612242565b825260208301511515602083015260408301516121886040840182611ce2565b50606083015160608301526080830151608083015260a083015160a083015260c083015160c083015260e083015160e0830152610100808401516121ce82850182611ce8565b505092915050565b8151151581526020808301511515908201526040918201519181019190915260600190565b60405181810167ffffffffffffffff8111828210171561221a57600080fd5b604052919050565b600067ffffffffffffffff821115612238578081fd5b5060209081020190565b6001600160a01b031690565b6001600160a01b038116811461188e57600080fd5b801515811461188e57600080fdfecb711c9d994faf6055172091cb841fd4831aa743e6f3315163b06a122c841846a2646970667358221220ff503315bb0f7cf2c3403ff67ea73f6a9d1dc5c61207f4ac6b26609fe839aa4764736f6c634300060c0033",
  "linkReferences": {},
  "deployedLinkReferences": {}
}