{
  "_format": "hh-sol-artifact-1",
  "contractName": "MysteryBox",
  "sourceName": "contracts/MysteryBox.sol",
  "abi": [
    {
      "anonymous": false,
      "inputs": [
        {
          "indexed": true,
          "internalType": "uint256",
          "name": "boxId",
          "type": "uint256"
        },
        {
          "indexed": false,
          "internalType": "enum MysteryBox.Rarity",
          "name": "rarity",
          "type": "uint8"
        },
        {
          "indexed": false,
          "internalType": "address",
          "name": "opener",
          "type": "address"
        },
        {
          "indexed": false,
          "internalType": "uint256",
          "name": "timestamp",
          "type": "uint256"
        }
      ],
      "name": "OpenBox",
      "type": "event"
    },
    {
      "anonymous": false,
      "inputs": [
        {
          "indexed": true,
          "internalType": "bytes32",
          "name": "role",
          "type": "bytes32"
        },
        {
          "indexed": true,
          "internalType": "bytes32",
          "name": "previousAdminRole",
          "type": "bytes32"
        },
        {
          "indexed": true,
          "internalType": "bytes32",
          "name": "newAdminRole",
          "type": "bytes32"
        }
      ],
      "name": "RoleAdminChanged",
      "type": "event"
    },
    {
      "anonymous": false,
      "inputs": [
        {
          "indexed": true,
          "internalType": "bytes32",
          "name": "role",
          "type": "bytes32"
        },
        {
          "indexed": true,
          "internalType": "address",
          "name": "account",
          "type": "address"
        },
        {
          "indexed": true,
          "internalType": "address",
          "name": "sender",
          "type": "address"
        }
      ],
      "name": "RoleGranted",
      "type": "event"
    },
    {
      "anonymous": false,
      "inputs": [
        {
          "indexed": true,
          "internalType": "bytes32",
          "name": "role",
          "type": "bytes32"
        },
        {
          "indexed": true,
          "internalType": "address",
          "name": "account",
          "type": "address"
        },
        {
          "indexed": true,
          "internalType": "address",
          "name": "sender",
          "type": "address"
        }
      ],
      "name": "RoleRevoked",
      "type": "event"
    },
    {
      "inputs": [],
      "name": "DEFAULT_ADMIN_ROLE",
      "outputs": [
        {
          "internalType": "bytes32",
          "name": "",
          "type": "bytes32"
        }
      ],
      "stateMutability": "view",
      "type": "function"
    },
    {
      "inputs": [],
      "name": "GAME_ADMIN",
      "outputs": [
        {
          "internalType": "bytes32",
          "name": "",
          "type": "bytes32"
        }
      ],
      "stateMutability": "view",
      "type": "function"
    },
    {
      "inputs": [
        {
          "internalType": "uint256[]",
          "name": "_tokens",
          "type": "uint256[]"
        },
        {
          "internalType": "enum MysteryBox.Rarity[]",
          "name": "_rarities",
          "type": "uint8[]"
        }
      ],
      "name": "assignRarity",
      "outputs": [],
      "stateMutability": "nonpayable",
      "type": "function"
    },
    {
      "inputs": [
        {
          "internalType": "contract Characters",
          "name": "_characters",
          "type": "address"
        }
      ],
      "name": "changeCharacters",
      "outputs": [],
      "stateMutability": "nonpayable",
      "type": "function"
    },
    {
      "inputs": [
        {
          "internalType": "contract IvBuni",
          "name": "_newVbuni",
          "type": "address"
        }
      ],
      "name": "changeVbuni",
      "outputs": [],
      "stateMutability": "nonpayable",
      "type": "function"
    },
    {
      "inputs": [
        {
          "internalType": "contract Weapons",
          "name": "_newWeapons",
          "type": "address"
        }
      ],
      "name": "changeWeapons",
      "outputs": [],
      "stateMutability": "nonpayable",
      "type": "function"
    },
    {
      "inputs": [],
      "name": "characters",
      "outputs": [
        {
          "internalType": "contract Characters",
          "name": "",
          "type": "address"
        }
      ],
      "stateMutability": "view",
      "type": "function"
    },
    {
      "inputs": [
        {
          "internalType": "uint256",
          "name": "_id",
          "type": "uint256"
        }
      ],
      "name": "getBoxStatus",
      "outputs": [
        {
          "internalType": "bool",
          "name": "opened",
          "type": "bool"
        }
      ],
      "stateMutability": "view",
      "type": "function"
    },
    {
      "inputs": [
        {
          "internalType": "uint256",
          "name": "_id",
          "type": "uint256"
        }
      ],
      "name": "getDefaultRarity",
      "outputs": [
        {
          "internalType": "enum MysteryBox.Rarity",
          "name": "rarity",
          "type": "uint8"
        }
      ],
      "stateMutability": "view",
      "type": "function"
    },
    {
      "inputs": [
        {
          "internalType": "bytes32",
          "name": "role",
          "type": "bytes32"
        }
      ],
      "name": "getRoleAdmin",
      "outputs": [
        {
          "internalType": "bytes32",
          "name": "",
          "type": "bytes32"
        }
      ],
      "stateMutability": "view",
      "type": "function"
    },
    {
      "inputs": [
        {
          "internalType": "bytes32",
          "name": "role",
          "type": "bytes32"
        },
        {
          "internalType": "uint256",
          "name": "index",
          "type": "uint256"
        }
      ],
      "name": "getRoleMember",
      "outputs": [
        {
          "internalType": "address",
          "name": "",
          "type": "address"
        }
      ],
      "stateMutability": "view",
      "type": "function"
    },
    {
      "inputs": [
        {
          "internalType": "bytes32",
          "name": "role",
          "type": "bytes32"
        }
      ],
      "name": "getRoleMemberCount",
      "outputs": [
        {
          "internalType": "uint256",
          "name": "",
          "type": "uint256"
        }
      ],
      "stateMutability": "view",
      "type": "function"
    },
    {
      "inputs": [
        {
          "internalType": "uint256",
          "name": "_token",
          "type": "uint256"
        }
      ],
      "name": "getTokenRarity",
      "outputs": [
        {
          "internalType": "enum MysteryBox.Rarity",
          "name": "rarity",
          "type": "uint8"
        }
      ],
      "stateMutability": "view",
      "type": "function"
    },
    {
      "inputs": [
        {
          "internalType": "uint256",
          "name": "_id",
          "type": "uint256"
        }
      ],
      "name": "getVbuniOwner",
      "outputs": [
        {
          "internalType": "address",
          "name": "owner",
          "type": "address"
        }
      ],
      "stateMutability": "view",
      "type": "function"
    },
    {
      "inputs": [
        {
          "internalType": "uint256",
          "name": "_id",
          "type": "uint256"
        }
      ],
      "name": "getVestedAmount",
      "outputs": [
        {
          "internalType": "uint256",
          "name": "amount",
          "type": "uint256"
        }
      ],
      "stateMutability": "view",
      "type": "function"
    },
    {
      "inputs": [
        {
          "internalType": "bytes32",
          "name": "role",
          "type": "bytes32"
        },
        {
          "internalType": "address",
          "name": "account",
          "type": "address"
        }
      ],
      "name": "grantRole",
      "outputs": [],
      "stateMutability": "nonpayable",
      "type": "function"
    },
    {
      "inputs": [
        {
          "internalType": "bytes32",
          "name": "role",
          "type": "bytes32"
        },
        {
          "internalType": "address",
          "name": "account",
          "type": "address"
        }
      ],
      "name": "hasRole",
      "outputs": [
        {
          "internalType": "bool",
          "name": "",
          "type": "bool"
        }
      ],
      "stateMutability": "view",
      "type": "function"
    },
    {
      "inputs": [
        {
          "internalType": "contract IvBuni",
          "name": "_vBuni",
          "type": "address"
        },
        {
          "internalType": "contract Weapons",
          "name": "_weapons",
          "type": "address"
        },
        {
          "internalType": "contract Characters",
          "name": "_characters",
          "type": "address"
        }
      ],
      "name": "initialize",
      "outputs": [],
      "stateMutability": "nonpayable",
      "type": "function"
    },
    {
      "inputs": [
        {
          "internalType": "uint256",
          "name": "_id",
          "type": "uint256"
        }
      ],
      "name": "openMysteryBox",
      "outputs": [],
      "stateMutability": "nonpayable",
      "type": "function"
    },
    {
      "inputs": [
        {
          "internalType": "uint256",
          "name": "",
          "type": "uint256"
        }
      ],
      "name": "openedBoxes",
      "outputs": [
        {
          "internalType": "bool",
          "name": "",
          "type": "bool"
        }
      ],
      "stateMutability": "view",
      "type": "function"
    },
    {
      "inputs": [
        {
          "internalType": "bytes32",
          "name": "role",
          "type": "bytes32"
        },
        {
          "internalType": "address",
          "name": "account",
          "type": "address"
        }
      ],
      "name": "renounceRole",
      "outputs": [],
      "stateMutability": "nonpayable",
      "type": "function"
    },
    {
      "inputs": [
        {
          "internalType": "bytes32",
          "name": "role",
          "type": "bytes32"
        },
        {
          "internalType": "address",
          "name": "account",
          "type": "address"
        }
      ],
      "name": "revokeRole",
      "outputs": [],
      "stateMutability": "nonpayable",
      "type": "function"
    },
    {
      "inputs": [
        {
          "internalType": "uint256[4]",
          "name": "_guarantees",
          "type": "uint256[4]"
        }
      ],
      "name": "setGuaranteeRate",
      "outputs": [],
      "stateMutability": "nonpayable",
      "type": "function"
    },
    {
      "inputs": [
        {
          "internalType": "uint256",
          "name": "",
          "type": "uint256"
        }
      ],
      "name": "tokenRarity",
      "outputs": [
        {
          "internalType": "enum MysteryBox.Rarity",
          "name": "",
          "type": "uint8"
        }
      ],
      "stateMutability": "view",
      "type": "function"
    },
    {
      "inputs": [],
      "name": "vBuni",
      "outputs": [
        {
          "internalType": "contract IvBuni",
          "name": "",
          "type": "address"
        }
      ],
      "stateMutability": "view",
      "type": "function"
    },
    {
      "inputs": [],
      "name": "weapons",
      "outputs": [
        {
          "internalType": "contract Weapons",
          "name": "",
          "type": "address"
        }
      ],
      "stateMutability": "view",
      "type": "function"
    }
  ],
  "bytecode": "0x608060405234801561001057600080fd5b50611b8a806100206000396000f3fe608060405234801561001057600080fd5b506004361061018d5760003560e01c806386211128116100de578063b7e1cd8611610097578063cafeedf611610071578063cafeedf6146105c0578063d070bb54146105dd578063d2008681146105e5578063d547741f1461060b5761018d565b8063b7e1cd8614610563578063c0c53b8b1461056b578063ca15c873146105a35761018d565b806386211128146104c15780639010d07c146104c957806391d14854146104ec578063a217fddf14610518578063adf72cb214610520578063afb0a369146105465761018d565b8063354db15f1161014b578063508478c311610125578063508478c31461043d5780635504d3d214610476578063555ec78b1461047e57806365d17ef31461049b5761018d565b8063354db15f146103c357806336568abe146103f45780634dfa3444146104205761018d565b8062068ca314610192578063069dae3d146101b157806318258769146102d8578063248a9ca31461031657806326c74cee146103455780632f2ff15d14610397575b600080fd5b6101af600480360360208110156101a857600080fd5b5035610637565b005b6101af600480360360408110156101c757600080fd5b8101906020810181356401000000008111156101e257600080fd5b8201836020820111156101f457600080fd5b8035906020019184602083028401116401000000008311171561021657600080fd5b919080806020026020016040519081016040528093929190818152602001838360200280828437600092019190915250929594936020810193503591505064010000000081111561026657600080fd5b82018360208201111561027857600080fd5b8035906020019184602083028401116401000000008311171561029a57600080fd5b9190808060200260200160405190810160405280939291908181526020018383602002808284376000920191909152509295506108b0945050505050565b6102f5600480360360208110156102ee57600080fd5b5035610984565b6040518082600481111561030557fe5b815260200191505060405180910390f35b6103336004803603602081101561032c57600080fd5b5035610a18565b60408051918252519081900360200190f35b6101af6004803603608081101561035b57600080fd5b8101908080608001906004806020026040519081016040528092919082600460200280828437600092019190915250919450610a2d9350505050565b6101af600480360360408110156103ad57600080fd5b50803590602001356001600160a01b0316610a98565b6103e0600480360360208110156103d957600080fd5b5035610b00565b604080519115158252519081900360200190f35b6101af6004803603604081101561040a57600080fd5b50803590602001356001600160a01b0316610b15565b6103e06004803603602081101561043657600080fd5b5035610b76565b61045a6004803603602081101561045357600080fd5b5035610b8b565b604080516001600160a01b039092168252519081900360200190f35b610333610c09565b6102f56004803603602081101561049457600080fd5b5035610c1b565b6101af600480360360208110156104b157600080fd5b50356001600160a01b0316610c30565b61045a610cac565b61045a600480360360408110156104df57600080fd5b5080359060200135610cbb565b6103e06004803603604081101561050257600080fd5b50803590602001356001600160a01b0316610cdc565b610333610cf4565b6101af6004803603602081101561053657600080fd5b50356001600160a01b0316610cf9565b6102f56004803603602081101561055c57600080fd5b5035610d75565b61045a610d8a565b6101af6004803603606081101561058157600080fd5b506001600160a01b038135811691602081013582169160409091013516610d99565b610333600480360360208110156105b957600080fd5b5035610f53565b610333600480360360208110156105d657600080fd5b5035610f6a565b61045a610feb565b6101af600480360360208110156105fb57600080fd5b50356001600160a01b0316610ffa565b6101af6004803603604081101561062157600080fd5b50803590602001356001600160a01b0316611076565b6000818152606d6020526040902054819060ff161561068d576040805162461bcd60e51b815260206004820152600d60248201526c109bde081a5cc81bdc195b9959609a1b604482015290519081900360640190fd5b3233146106e1576040805162461bcd60e51b815260206004820181905260248201527f436f6e747261637420617265206e6f7420616c6c6f77656420746f2063616c6c604482015290519081900360640190fd5b81336106ec82610b8b565b6001600160a01b03161461073a576040805162461bcd60e51b815260206004820152601060248201526f139bdd081bdddb995c881bd98813919560821b604482015290519081900360640190fd5b6000838152606d60205260409020805460ff19166001908117909155606854610762916110cf565b606855600061077084610f6a565b6000858152606c602052604081205491925060ff9091169081600481111561079457fe5b14156107d15760405162461bcd60e51b8152600401808060200182810382526021815260200180611ae56021913960400191505060405180910390fd5b60018160048111156107df57fe5b14156107f3576107ee33611129565b61082f565b600281600481111561080157fe5b1415610811576107ee3383611261565b600381600481111561081f57fe5b141561082f5761082f338361140c565b600481600481111561083d57fe5b141561084d5761084d3383611492565b847fa9324d9edcd658f362dad0be6274087bb8a6f559ec23c7a30ec53fec2608517e8233426040518084600481111561088257fe5b8152602001836001600160a01b03168152602001828152602001935050505060405180910390a25050505050565b6108c8600080516020611b0683398151915233610cdc565b61090a576040805162461bcd60e51b815260206004820152600e60248201526d2737ba1033b0b6b29030b236b4b760911b604482015290519081900360640190fd5b60005b825181101561097f57600083828151811061092457fe5b60200260200101519050600083838151811061093c57fe5b6020908102919091018101516000848152606c90925260409091208054919250829160ff1916600183600481111561097057fe5b0217905550505060010161090d565b505050565b60008061099083610f6a565b6076549091508110156109d45760405162461bcd60e51b815260040180806020018281038252602c815260200180611a5b602c913960400191505060405180910390fd5b60735481106109e7576004915050610a13565b60745481106109fa576003915050610a13565b6075548110610a0d576002915050610a13565b60019150505b919050565b60009081526033602052604090206002015490565b610a45600080516020611b0683398151915233610cdc565b610a87576040805162461bcd60e51b815260206004820152600e60248201526d2737ba1033b0b6b29030b236b4b760911b604482015290519081900360640190fd5b610a94606f82600461197e565b5050565b600082815260336020526040902060020154610abb90610ab6611518565b610cdc565b610af65760405162461bcd60e51b815260040180806020018281038252602f815260200180611a2c602f913960400191505060405180910390fd5b610a94828261151c565b606d6020526000908152604090205460ff1681565b610b1d611518565b6001600160a01b0316816001600160a01b031614610b6c5760405162461bcd60e51b815260040180806020018281038252602f815260200180611b26602f913960400191505060405180910390fd5b610a948282611585565b6000908152606d602052604090205460ff1690565b606554604080516331a9108f60e11b81526004810184905290516000926001600160a01b031691636352211e916024808301926020929190829003018186803b158015610bd757600080fd5b505afa158015610beb573d6000803e3d6000fd5b505050506040513d6020811015610c0157600080fd5b505192915050565b600080516020611b0683398151915281565b6000908152606c602052604090205460ff1690565b610c48600080516020611b0683398151915233610cdc565b610c8a576040805162461bcd60e51b815260206004820152600e60248201526d2737ba1033b0b6b29030b236b4b760911b604482015290519081900360640190fd5b606680546001600160a01b0319166001600160a01b0392909216919091179055565b6065546001600160a01b031681565b6000828152603360205260408120610cd390836115ee565b90505b92915050565b6000828152603360205260408120610cd390836115fa565b600081565b610d11600080516020611b0683398151915233610cdc565b610d53576040805162461bcd60e51b815260206004820152600e60248201526d2737ba1033b0b6b29030b236b4b760911b604482015290519081900360640190fd5b606580546001600160a01b0319166001600160a01b0392909216919091179055565b606c6020526000908152604090205460ff1681565b6066546001600160a01b031681565b600054610100900460ff1680610db25750610db261160f565b80610dc0575060005460ff16155b610dfb5760405162461bcd60e51b815260040180806020018281038252602e815260200180611ab7602e913960400191505060405180910390fd5b600054610100900460ff16158015610e26576000805460ff1961ff0019909116610100171660011790555b610e2e611620565b610e39600033610af6565b606580546001600160a01b038087166001600160a01b0319928316179092556066805486841690831617905560678054928516929091169190911790556064606a5561012c606b5560408051608081018252692a5a058fc295ed000000815269021e19e0c9bab2400000602082015269010f0cf064dd5920000091810191909152686c6b935b8bbd4000006060820152610ed790606f9060046119b8565b506040805160808101825269021e19e0c9bab2400000815269010f0cf064dd592000006020820152686c6b935b8bbd40000091810191909152683635c9adc5dea000006060820152610f2d9060739060046119b8565b506069805460ff191660031790558015610f4d576000805461ff00191690555b50505050565b6000818152603360205260408120610cd6906116c2565b6065546040805163463d31d760e11b81526004810184905290516000926001600160a01b031691638c7a63ae916024808301926080929190829003018186803b158015610fb657600080fd5b505afa158015610fca573d6000803e3d6000fd5b505050506040513d6080811015610fe057600080fd5b506020015192915050565b6067546001600160a01b031681565b611012600080516020611b0683398151915233610cdc565b611054576040805162461bcd60e51b815260206004820152600e60248201526d2737ba1033b0b6b29030b236b4b760911b604482015290519081900360640190fd5b606780546001600160a01b0319166001600160a01b0392909216919091179055565b60008281526033602052604090206002015461109490610ab6611518565b610b6c5760405162461bcd60e51b8152600401808060200182810382526030815260200180611a876030913960400191505060405180910390fd5b600082820183811015610cd3576040805162461bcd60e51b815260206004820152601b60248201527f536166654d6174683a206164646974696f6e206f766572666c6f770000000000604482015290519081900360640190fd5b60006111336116cd565b90506000611143826103e861172b565b606654606954604080516302260ee360e21b81526001600160a01b038881166004830152600260248301526064808706604484015260ff9094169382019390935290519394509116916308983b8c916084808201926020929091908290030181600087803b1580156111b457600080fd5b505af11580156111c8573d6000803e3d6000fd5b505050506040513d60208110156111de57600080fd5b50506067546069546040805163df871b9d60e01b81526001600160a01b0387811660048301526064808706602484015260ff90941660448301529151919093169263df871b9d928181019260009290919082900301818387803b15801561124457600080fd5b505af1158015611258573d6000803e3d6000fd5b50505050505050565b600061126b6116cd565b607154607554919250906000611283846103e861172b565b905060008284038387036103e8028161129857fe5b04905060006112a682611792565b905080831161135b576066546001600160a01b03166308983b8c8960026064875b606954604080516001600160e01b031960e089901b1681526001600160a01b0390961660048701526024860194909452919006604484015260ff1660648301525160848083019260209291908290030181600087803b15801561132957600080fd5b505af115801561133d573d6000803e3d6000fd5b505050506040513d602081101561135357600080fd5b506114029050565b6066546001600160a01b03166308983b8c8960016064875b606954604080516001600160e01b031960e089901b1681526001600160a01b0390961660048701526024860194909452919006604484015260ff1660648301525160848083019260209291908290030181600087803b1580156113d557600080fd5b505af11580156113e9573d6000803e3d6000fd5b505050506040513d60208110156113ff57600080fd5b50505b5050505050505050565b60006114166116cd565b60705460745491925090600061142e846103e861172b565b905060008284038387036103e8028161144357fe5b049050600061145182611792565b9050808311611476576066546001600160a01b03166308983b8c8960036064876112c7565b6066546001600160a01b03166308983b8c896002606487611373565b600061149c6116cd565b606f546073549192509060006114b4846103e861172b565b905060008284038387036103e802816114c957fe5b04905060006114d782611792565b90508083116114fc576066546001600160a01b03166308983b8c8960046064876112c7565b6066546001600160a01b03166308983b8c896003606487611373565b3390565b600082815260336020526040902061153490826117be565b15610a9457611541611518565b6001600160a01b0316816001600160a01b0316837f2f8788117e7eff1d82e926ec794901d17c78024a50270940304540a733656f0d60405160405180910390a45050565b600082815260336020526040902061159d90826117d3565b15610a94576115aa611518565b6001600160a01b0316816001600160a01b0316837ff6391f5c32d9c69d2a47ea670b442974b53935d1edc7fd64eb21e047a839171b60405160405180910390a45050565b6000610cd383836117e8565b6000610cd3836001600160a01b03841661184c565b600061161a30611864565b15905090565b600054610100900460ff1680611639575061163961160f565b80611647575060005460ff16155b6116825760405162461bcd60e51b815260040180806020018281038252602e815260200180611ab7602e913960400191505060405180910390fd5b600054610100900460ff161580156116ad576000805460ff1961ff0019909116610100171660011790555b80156116bf576000805461ff00191690555b50565b6000610cd68261186a565b600044426116d9611518565b60685460405160200180858152602001848152602001836001600160a01b031660601b81526014018281526020019450505050506040516020818303038152906040528051906020012060001c905090565b6000808211611781576040805162461bcd60e51b815260206004820152601860248201527f536166654d6174683a206d6f64756c6f206279207a65726f0000000000000000604482015290519081900360640190fd5b81838161178a57fe5b069392505050565b6000606a548210156117a75750606a54610a13565b606b548211156117ba5750606b54610a13565b5090565b6000610cd3836001600160a01b03841661186e565b6000610cd3836001600160a01b0384166118b8565b8154600090821061182a5760405162461bcd60e51b8152600401808060200182810382526022815260200180611a0a6022913960400191505060405180910390fd5b82600001828154811061183957fe5b9060005260206000200154905092915050565b60009081526001919091016020526040902054151590565b3b151590565b5490565b600061187a838361184c565b6118b057508154600181810184556000848152602080822090930184905584548482528286019093526040902091909155610cd6565b506000610cd6565b6000818152600183016020526040812054801561197457835460001980830191908101906000908790839081106118eb57fe5b906000526020600020015490508087600001848154811061190857fe5b60009182526020808320909101929092558281526001898101909252604090209084019055865487908061193857fe5b60019003818190600052602060002001600090559055866001016000878152602001908152602001600020600090556001945050505050610cd6565b6000915050610cd6565b82600481019282156119ac579160200282015b828111156119ac578251825591602001919060010190611991565b506117ba9291506119f4565b82600481019282156119ac579160200282015b828111156119ac578251829069ffffffffffffffffffff169055916020019190600101906119cb565b5b808211156117ba57600081556001016119f556fe456e756d657261626c655365743a20696e646578206f7574206f6620626f756e6473416363657373436f6e74726f6c3a2073656e646572206d75737420626520616e2061646d696e20746f206772616e74546f6b656e206e6f74207265616368206d696e696d756d207175616e7469747920666f72206f70656e696e67416363657373436f6e74726f6c3a2073656e646572206d75737420626520616e2061646d696e20746f207265766f6b65496e697469616c697a61626c653a20636f6e747261637420697320616c726561647920696e697469616c697a656454686973205642756e69206e6f742073657474656420666f72206f70656e696e67745191d59a0c5ecaf2331ad3570e4033c5b04de0434263ec14a70fce5475ab7f416363657373436f6e74726f6c3a2063616e206f6e6c792072656e6f756e636520726f6c657320666f722073656c66a264697066735822122031afca10181e75ef084033b480733044edfbc3abd9cf9d7c134a3623f11dd55164736f6c634300060c0033",
  "linkReferences": {},
  "deployedLinkReferences": {}
}