{
  "_format": "hh-sol-artifact-1",
  "contractName": "TrainersV2",
  "sourceName": "contracts/TrainersV2.sol",
  "abi": [
    {
      "anonymous": false,
      "inputs": [
        {
          "indexed": true,
          "internalType": "address",
          "name": "owner",
          "type": "address"
        },
        {
          "indexed": true,
          "internalType": "address",
          "name": "approved",
          "type": "address"
        },
        {
          "indexed": true,
          "internalType": "uint256",
          "name": "tokenId",
          "type": "uint256"
        }
      ],
      "name": "Approval",
      "type": "event"
    },
    {
      "anonymous": false,
      "inputs": [
        {
          "indexed": true,
          "internalType": "address",
          "name": "owner",
          "type": "address"
        },
        {
          "indexed": true,
          "internalType": "address",
          "name": "operator",
          "type": "address"
        },
        {
          "indexed": false,
          "internalType": "bool",
          "name": "approved",
          "type": "bool"
        }
      ],
      "name": "ApprovalForAll",
      "type": "event"
    },
    {
      "anonymous": false,
      "inputs": [
        {
          "indexed": true,
          "internalType": "address",
          "name": "owner",
          "type": "address"
        },
        {
          "indexed": true,
          "internalType": "uint256",
          "name": "fuseID",
          "type": "uint256"
        },
        {
          "indexed": true,
          "internalType": "uint256",
          "name": "burnID",
          "type": "uint256"
        }
      ],
      "name": "FuseFailure",
      "type": "event"
    },
    {
      "anonymous": false,
      "inputs": [
        {
          "indexed": true,
          "internalType": "address",
          "name": "owner",
          "type": "address"
        },
        {
          "indexed": true,
          "internalType": "uint256",
          "name": "fused",
          "type": "uint256"
        },
        {
          "indexed": true,
          "internalType": "uint256",
          "name": "burned",
          "type": "uint256"
        }
      ],
      "name": "Fused",
      "type": "event"
    },
    {
      "anonymous": false,
      "inputs": [
        {
          "indexed": true,
          "internalType": "address",
          "name": "owner",
          "type": "address"
        },
        {
          "indexed": true,
          "internalType": "uint256",
          "name": "trainer",
          "type": "uint256"
        },
        {
          "indexed": false,
          "internalType": "uint16",
          "name": "level",
          "type": "uint16"
        }
      ],
      "name": "LevelUp",
      "type": "event"
    },
    {
      "anonymous": false,
      "inputs": [
        {
          "indexed": true,
          "internalType": "uint256",
          "name": "trainer",
          "type": "uint256"
        },
        {
          "indexed": true,
          "internalType": "address",
          "name": "minter",
          "type": "address"
        }
      ],
      "name": "NewTrainer",
      "type": "event"
    },
    {
      "anonymous": false,
      "inputs": [
        {
          "indexed": true,
          "internalType": "bytes32",
          "name": "role",
          "type": "bytes32"
        },
        {
          "indexed": true,
          "internalType": "bytes32",
          "name": "previousAdminRole",
          "type": "bytes32"
        },
        {
          "indexed": true,
          "internalType": "bytes32",
          "name": "newAdminRole",
          "type": "bytes32"
        }
      ],
      "name": "RoleAdminChanged",
      "type": "event"
    },
    {
      "anonymous": false,
      "inputs": [
        {
          "indexed": true,
          "internalType": "bytes32",
          "name": "role",
          "type": "bytes32"
        },
        {
          "indexed": true,
          "internalType": "address",
          "name": "account",
          "type": "address"
        },
        {
          "indexed": true,
          "internalType": "address",
          "name": "sender",
          "type": "address"
        }
      ],
      "name": "RoleGranted",
      "type": "event"
    },
    {
      "anonymous": false,
      "inputs": [
        {
          "indexed": true,
          "internalType": "bytes32",
          "name": "role",
          "type": "bytes32"
        },
        {
          "indexed": true,
          "internalType": "address",
          "name": "account",
          "type": "address"
        },
        {
          "indexed": true,
          "internalType": "address",
          "name": "sender",
          "type": "address"
        }
      ],
      "name": "RoleRevoked",
      "type": "event"
    },
    {
      "anonymous": false,
      "inputs": [
        {
          "indexed": true,
          "internalType": "address",
          "name": "from",
          "type": "address"
        },
        {
          "indexed": true,
          "internalType": "address",
          "name": "to",
          "type": "address"
        },
        {
          "indexed": true,
          "internalType": "uint256",
          "name": "tokenId",
          "type": "uint256"
        }
      ],
      "name": "Transfer",
      "type": "event"
    },
    {
      "inputs": [],
      "name": "DEFAULT_ADMIN_ROLE",
      "outputs": [
        {
          "internalType": "bytes32",
          "name": "",
          "type": "bytes32"
        }
      ],
      "stateMutability": "view",
      "type": "function"
    },
    {
      "inputs": [],
      "name": "MAXIMUM_STAMINA",
      "outputs": [
        {
          "internalType": "uint256",
          "name": "",
          "type": "uint256"
        }
      ],
      "stateMutability": "view",
      "type": "function"
    },
    {
      "inputs": [],
      "name": "NAME_TAG_CONTRACT",
      "outputs": [
        {
          "internalType": "contract INFTNameTag",
          "name": "",
          "type": "address"
        }
      ],
      "stateMutability": "view",
      "type": "function"
    },
    {
      "inputs": [],
      "name": "ROLE_GAME_CONTRACT",
      "outputs": [
        {
          "internalType": "bytes32",
          "name": "",
          "type": "bytes32"
        }
      ],
      "stateMutability": "view",
      "type": "function"
    },
    {
      "inputs": [],
      "name": "ROLE_GOVERNANCE",
      "outputs": [
        {
          "internalType": "bytes32",
          "name": "",
          "type": "bytes32"
        }
      ],
      "stateMutability": "view",
      "type": "function"
    },
    {
      "inputs": [],
      "name": "ROLE_NOT_LOCK_NEXT_TRANSFER",
      "outputs": [
        {
          "internalType": "bytes32",
          "name": "",
          "type": "bytes32"
        }
      ],
      "stateMutability": "view",
      "type": "function"
    },
    {
      "inputs": [],
      "name": "STAMINA_RECOVER_SPEED_IN_SECONDS",
      "outputs": [
        {
          "internalType": "uint256",
          "name": "",
          "type": "uint256"
        }
      ],
      "stateMutability": "view",
      "type": "function"
    },
    {
      "inputs": [],
      "name": "TRANSFER_COOLDOWN_IN_SECONDS",
      "outputs": [
        {
          "internalType": "uint256",
          "name": "",
          "type": "uint256"
        }
      ],
      "stateMutability": "view",
      "type": "function"
    },
    {
      "inputs": [],
      "name": "VOTING_TRANSFER_COOLDOWN_IN_SECONDS",
      "outputs": [
        {
          "internalType": "uint256",
          "name": "",
          "type": "uint256"
        }
      ],
      "stateMutability": "view",
      "type": "function"
    },
    {
      "inputs": [
        {
          "internalType": "address",
          "name": "to",
          "type": "address"
        },
        {
          "internalType": "uint256",
          "name": "tokenId",
          "type": "uint256"
        }
      ],
      "name": "approve",
      "outputs": [],
      "stateMutability": "nonpayable",
      "type": "function"
    },
    {
      "inputs": [
        {
          "internalType": "address",
          "name": "owner",
          "type": "address"
        }
      ],
      "name": "balanceOf",
      "outputs": [
        {
          "internalType": "uint256",
          "name": "",
          "type": "uint256"
        }
      ],
      "stateMutability": "view",
      "type": "function"
    },
    {
      "inputs": [
        {
          "internalType": "address[]",
          "name": "addrs",
          "type": "address[]"
        }
      ],
      "name": "banAddresses",
      "outputs": [],
      "stateMutability": "nonpayable",
      "type": "function"
    },
    {
      "inputs": [
        {
          "internalType": "uint256[]",
          "name": "tokenIds",
          "type": "uint256[]"
        }
      ],
      "name": "banTokens",
      "outputs": [],
      "stateMutability": "nonpayable",
      "type": "function"
    },
    {
      "inputs": [],
      "name": "baseURI",
      "outputs": [
        {
          "internalType": "string",
          "name": "",
          "type": "string"
        }
      ],
      "stateMutability": "view",
      "type": "function"
    },
    {
      "inputs": [
        {
          "internalType": "uint256",
          "name": "_tokenId",
          "type": "uint256"
        }
      ],
      "name": "burn",
      "outputs": [],
      "stateMutability": "nonpayable",
      "type": "function"
    },
    {
      "inputs": [
        {
          "internalType": "uint256",
          "name": "_tokenId",
          "type": "uint256"
        }
      ],
      "name": "burnByGameContract",
      "outputs": [],
      "stateMutability": "nonpayable",
      "type": "function"
    },
    {
      "inputs": [
        {
          "internalType": "uint256[]",
          "name": "_tokenIds",
          "type": "uint256[]"
        }
      ],
      "name": "burnMany",
      "outputs": [],
      "stateMutability": "nonpayable",
      "type": "function"
    },
    {
      "inputs": [
        {
          "internalType": "uint256",
          "name": "id",
          "type": "uint256"
        },
        {
          "internalType": "uint16",
          "name": "exp",
          "type": "uint16"
        }
      ],
      "name": "claimExp",
      "outputs": [],
      "stateMutability": "nonpayable",
      "type": "function"
    },
    {
      "inputs": [
        {
          "internalType": "uint256",
          "name": "_fusionID",
          "type": "uint256"
        },
        {
          "internalType": "uint256",
          "name": "_burnID",
          "type": "uint256"
        }
      ],
      "name": "fuse",
      "outputs": [],
      "stateMutability": "nonpayable",
      "type": "function"
    },
    {
      "inputs": [
        {
          "internalType": "uint256",
          "name": "_fusionID",
          "type": "uint256"
        },
        {
          "internalType": "uint256",
          "name": "_burnID",
          "type": "uint256"
        }
      ],
      "name": "fuseFailure",
      "outputs": [],
      "stateMutability": "nonpayable",
      "type": "function"
    },
    {
      "inputs": [
        {
          "internalType": "uint256",
          "name": "id",
          "type": "uint256"
        }
      ],
      "name": "get",
      "outputs": [
        {
          "internalType": "uint16",
          "name": "_exp",
          "type": "uint16"
        },
        {
          "internalType": "uint8",
          "name": "_level",
          "type": "uint8"
        },
        {
          "internalType": "uint8",
          "name": "_element",
          "type": "uint8"
        },
        {
          "internalType": "uint64",
          "name": "_staminaTimestamp",
          "type": "uint64"
        },
        {
          "internalType": "uint24",
          "name": "_power",
          "type": "uint24"
        },
        {
          "internalType": "string",
          "name": "_tag",
          "type": "string"
        }
      ],
      "stateMutability": "view",
      "type": "function"
    },
    {
      "inputs": [
        {
          "internalType": "uint256",
          "name": "tokenId",
          "type": "uint256"
        }
      ],
      "name": "getApproved",
      "outputs": [
        {
          "internalType": "address",
          "name": "",
          "type": "address"
        }
      ],
      "stateMutability": "view",
      "type": "function"
    },
    {
      "inputs": [
        {
          "internalType": "uint256",
          "name": "id",
          "type": "uint256"
        },
        {
          "internalType": "uint8",
          "name": "_stamina",
          "type": "uint8"
        }
      ],
      "name": "getBattleDataAndDrainStamina",
      "outputs": [
        {
          "internalType": "uint96",
          "name": "",
          "type": "uint96"
        }
      ],
      "stateMutability": "nonpayable",
      "type": "function"
    },
    {
      "inputs": [
        {
          "internalType": "uint256",
          "name": "id",
          "type": "uint256"
        }
      ],
      "name": "getElement",
      "outputs": [
        {
          "internalType": "uint8",
          "name": "",
          "type": "uint8"
        }
      ],
      "stateMutability": "view",
      "type": "function"
    },
    {
      "inputs": [],
      "name": "getFusionMilestones",
      "outputs": [
        {
          "internalType": "uint8[]",
          "name": "",
          "type": "uint8[]"
        }
      ],
      "stateMutability": "view",
      "type": "function"
    },
    {
      "inputs": [
        {
          "internalType": "uint256",
          "name": "id",
          "type": "uint256"
        }
      ],
      "name": "getLastFusionLevel",
      "outputs": [
        {
          "internalType": "uint8",
          "name": "",
          "type": "uint8"
        }
      ],
      "stateMutability": "view",
      "type": "function"
    },
    {
      "inputs": [
        {
          "internalType": "uint256",
          "name": "id",
          "type": "uint256"
        }
      ],
      "name": "getLevel",
      "outputs": [
        {
          "internalType": "uint8",
          "name": "",
          "type": "uint8"
        }
      ],
      "stateMutability": "view",
      "type": "function"
    },
    {
      "inputs": [
        {
          "internalType": "uint256",
          "name": "id",
          "type": "uint256"
        }
      ],
      "name": "getMaxClaimExp",
      "outputs": [
        {
          "internalType": "uint256",
          "name": "",
          "type": "uint256"
        }
      ],
      "stateMutability": "view",
      "type": "function"
    },
    {
      "inputs": [],
      "name": "getMaxStaminaCooldown",
      "outputs": [
        {
          "internalType": "uint64",
          "name": "",
          "type": "uint64"
        }
      ],
      "stateMutability": "pure",
      "type": "function"
    },
    {
      "inputs": [
        {
          "internalType": "uint8",
          "name": "_level",
          "type": "uint8"
        }
      ],
      "name": "getRequiredExpForNextLevel",
      "outputs": [
        {
          "internalType": "uint16",
          "name": "",
          "type": "uint16"
        }
      ],
      "stateMutability": "view",
      "type": "function"
    },
    {
      "inputs": [
        {
          "internalType": "bytes32",
          "name": "role",
          "type": "bytes32"
        }
      ],
      "name": "getRoleAdmin",
      "outputs": [
        {
          "internalType": "bytes32",
          "name": "",
          "type": "bytes32"
        }
      ],
      "stateMutability": "view",
      "type": "function"
    },
    {
      "inputs": [
        {
          "internalType": "bytes32",
          "name": "role",
          "type": "bytes32"
        },
        {
          "internalType": "uint256",
          "name": "index",
          "type": "uint256"
        }
      ],
      "name": "getRoleMember",
      "outputs": [
        {
          "internalType": "address",
          "name": "",
          "type": "address"
        }
      ],
      "stateMutability": "view",
      "type": "function"
    },
    {
      "inputs": [
        {
          "internalType": "bytes32",
          "name": "role",
          "type": "bytes32"
        }
      ],
      "name": "getRoleMemberCount",
      "outputs": [
        {
          "internalType": "uint256",
          "name": "",
          "type": "uint256"
        }
      ],
      "stateMutability": "view",
      "type": "function"
    },
    {
      "inputs": [
        {
          "internalType": "uint256",
          "name": "_tokenId",
          "type": "uint256"
        }
      ],
      "name": "getStakingHashrate",
      "outputs": [
        {
          "internalType": "uint256",
          "name": "",
          "type": "uint256"
        }
      ],
      "stateMutability": "view",
      "type": "function"
    },
    {
      "inputs": [
        {
          "internalType": "uint256",
          "name": "id",
          "type": "uint256"
        }
      ],
      "name": "getStaminaPoints",
      "outputs": [
        {
          "internalType": "uint8",
          "name": "",
          "type": "uint8"
        }
      ],
      "stateMutability": "view",
      "type": "function"
    },
    {
      "inputs": [
        {
          "internalType": "uint256",
          "name": "id",
          "type": "uint256"
        }
      ],
      "name": "getStaminaTimestamp",
      "outputs": [
        {
          "internalType": "uint64",
          "name": "",
          "type": "uint64"
        }
      ],
      "stateMutability": "view",
      "type": "function"
    },
    {
      "inputs": [
        {
          "internalType": "uint256",
          "name": "id",
          "type": "uint256"
        }
      ],
      "name": "getTrainerExp",
      "outputs": [
        {
          "internalType": "uint32",
          "name": "",
          "type": "uint32"
        }
      ],
      "stateMutability": "view",
      "type": "function"
    },
    {
      "inputs": [
        {
          "internalType": "uint256",
          "name": "id",
          "type": "uint256"
        }
      ],
      "name": "getTrainerPower",
      "outputs": [
        {
          "internalType": "uint24",
          "name": "",
          "type": "uint24"
        }
      ],
      "stateMutability": "view",
      "type": "function"
    },
    {
      "inputs": [
        {
          "internalType": "uint256",
          "name": "_tokenId",
          "type": "uint256"
        }
      ],
      "name": "getVotingWeight",
      "outputs": [
        {
          "internalType": "uint256",
          "name": "",
          "type": "uint256"
        }
      ],
      "stateMutability": "view",
      "type": "function"
    },
    {
      "inputs": [
        {
          "internalType": "bytes32",
          "name": "role",
          "type": "bytes32"
        },
        {
          "internalType": "address",
          "name": "account",
          "type": "address"
        }
      ],
      "name": "grantRole",
      "outputs": [],
      "stateMutability": "nonpayable",
      "type": "function"
    },
    {
      "inputs": [
        {
          "internalType": "uint256",
          "name": "id",
          "type": "uint256"
        }
      ],
      "name": "hasFused",
      "outputs": [
        {
          "internalType": "bool",
          "name": "",
          "type": "bool"
        }
      ],
      "stateMutability": "view",
      "type": "function"
    },
    {
      "inputs": [
        {
          "internalType": "bytes32",
          "name": "role",
          "type": "bytes32"
        },
        {
          "internalType": "address",
          "name": "account",
          "type": "address"
        }
      ],
      "name": "hasRole",
      "outputs": [
        {
          "internalType": "bool",
          "name": "",
          "type": "bool"
        }
      ],
      "stateMutability": "view",
      "type": "function"
    },
    {
      "inputs": [],
      "name": "initialize",
      "outputs": [],
      "stateMutability": "nonpayable",
      "type": "function"
    },
    {
      "inputs": [
        {
          "internalType": "address",
          "name": "owner",
          "type": "address"
        },
        {
          "internalType": "address",
          "name": "operator",
          "type": "address"
        }
      ],
      "name": "isApprovedForAll",
      "outputs": [
        {
          "internalType": "bool",
          "name": "",
          "type": "bool"
        }
      ],
      "stateMutability": "view",
      "type": "function"
    },
    {
      "inputs": [],
      "name": "isEmergencyPause",
      "outputs": [
        {
          "internalType": "bool",
          "name": "",
          "type": "bool"
        }
      ],
      "stateMutability": "view",
      "type": "function"
    },
    {
      "inputs": [
        {
          "internalType": "uint256",
          "name": "id",
          "type": "uint256"
        }
      ],
      "name": "isStaminaFull",
      "outputs": [
        {
          "internalType": "bool",
          "name": "",
          "type": "bool"
        }
      ],
      "stateMutability": "view",
      "type": "function"
    },
    {
      "inputs": [
        {
          "internalType": "uint256",
          "name": "",
          "type": "uint256"
        }
      ],
      "name": "lastTransferTimestamp",
      "outputs": [
        {
          "internalType": "uint256",
          "name": "",
          "type": "uint256"
        }
      ],
      "stateMutability": "view",
      "type": "function"
    },
    {
      "inputs": [
        {
          "internalType": "uint256",
          "name": "",
          "type": "uint256"
        }
      ],
      "name": "lastVotingTransferTimestamp",
      "outputs": [
        {
          "internalType": "uint256",
          "name": "",
          "type": "uint256"
        }
      ],
      "stateMutability": "view",
      "type": "function"
    },
    {
      "inputs": [
        {
          "internalType": "uint256",
          "name": "_tokenId",
          "type": "uint256"
        }
      ],
      "name": "lockTranferAfterVote",
      "outputs": [],
      "stateMutability": "nonpayable",
      "type": "function"
    },
    {
      "inputs": [
        {
          "internalType": "address",
          "name": "_minter",
          "type": "address"
        },
        {
          "internalType": "uint8",
          "name": "_element",
          "type": "uint8"
        }
      ],
      "name": "mintOneTrainerBySpecs",
      "outputs": [],
      "stateMutability": "nonpayable",
      "type": "function"
    },
    {
      "inputs": [
        {
          "internalType": "address",
          "name": "_minter",
          "type": "address"
        },
        {
          "internalType": "uint8",
          "name": "_element",
          "type": "uint8"
        },
        {
          "internalType": "uint8",
          "name": "_level",
          "type": "uint8"
        }
      ],
      "name": "mintOneTrainerBySpecsByAdmin",
      "outputs": [],
      "stateMutability": "nonpayable",
      "type": "function"
    },
    {
      "inputs": [],
      "name": "name",
      "outputs": [
        {
          "internalType": "string",
          "name": "",
          "type": "string"
        }
      ],
      "stateMutability": "view",
      "type": "function"
    },
    {
      "inputs": [
        {
          "internalType": "uint256",
          "name": "tokenId",
          "type": "uint256"
        }
      ],
      "name": "ownerOf",
      "outputs": [
        {
          "internalType": "address",
          "name": "",
          "type": "address"
        }
      ],
      "stateMutability": "view",
      "type": "function"
    },
    {
      "inputs": [
        {
          "internalType": "bytes32",
          "name": "role",
          "type": "bytes32"
        },
        {
          "internalType": "address",
          "name": "account",
          "type": "address"
        }
      ],
      "name": "renounceRole",
      "outputs": [],
      "stateMutability": "nonpayable",
      "type": "function"
    },
    {
      "inputs": [
        {
          "internalType": "bytes32",
          "name": "role",
          "type": "bytes32"
        },
        {
          "internalType": "address",
          "name": "account",
          "type": "address"
        }
      ],
      "name": "revokeRole",
      "outputs": [],
      "stateMutability": "nonpayable",
      "type": "function"
    },
    {
      "inputs": [
        {
          "internalType": "address",
          "name": "from",
          "type": "address"
        },
        {
          "internalType": "address",
          "name": "to",
          "type": "address"
        },
        {
          "internalType": "uint256",
          "name": "tokenId",
          "type": "uint256"
        }
      ],
      "name": "safeTransferFrom",
      "outputs": [],
      "stateMutability": "nonpayable",
      "type": "function"
    },
    {
      "inputs": [
        {
          "internalType": "address",
          "name": "from",
          "type": "address"
        },
        {
          "internalType": "address",
          "name": "to",
          "type": "address"
        },
        {
          "internalType": "uint256",
          "name": "tokenId",
          "type": "uint256"
        },
        {
          "internalType": "bytes",
          "name": "_data",
          "type": "bytes"
        }
      ],
      "name": "safeTransferFrom",
      "outputs": [],
      "stateMutability": "nonpayable",
      "type": "function"
    },
    {
      "inputs": [
        {
          "internalType": "address",
          "name": "operator",
          "type": "address"
        },
        {
          "internalType": "bool",
          "name": "approved",
          "type": "bool"
        }
      ],
      "name": "setApprovalForAll",
      "outputs": [],
      "stateMutability": "nonpayable",
      "type": "function"
    },
    {
      "inputs": [
        {
          "internalType": "bool",
          "name": "_isEmergencyPause",
          "type": "bool"
        }
      ],
      "name": "setEmergencyPause",
      "outputs": [],
      "stateMutability": "nonpayable",
      "type": "function"
    },
    {
      "inputs": [
        {
          "internalType": "uint256[255]",
          "name": "_experiences",
          "type": "uint256[255]"
        }
      ],
      "name": "setExperiences",
      "outputs": [],
      "stateMutability": "nonpayable",
      "type": "function"
    },
    {
      "inputs": [
        {
          "internalType": "uint256[255]",
          "name": "_powers",
          "type": "uint256[255]"
        }
      ],
      "name": "setPowers",
      "outputs": [],
      "stateMutability": "nonpayable",
      "type": "function"
    },
    {
      "inputs": [
        {
          "internalType": "uint256",
          "name": "id",
          "type": "uint256"
        },
        {
          "internalType": "uint64",
          "name": "_timestamp",
          "type": "uint64"
        }
      ],
      "name": "setStaminaTimestamp",
      "outputs": [],
      "stateMutability": "nonpayable",
      "type": "function"
    },
    {
      "inputs": [
        {
          "internalType": "bytes4",
          "name": "interfaceId",
          "type": "bytes4"
        }
      ],
      "name": "supportsInterface",
      "outputs": [
        {
          "internalType": "bool",
          "name": "",
          "type": "bool"
        }
      ],
      "stateMutability": "view",
      "type": "function"
    },
    {
      "inputs": [],
      "name": "symbol",
      "outputs": [
        {
          "internalType": "string",
          "name": "",
          "type": "string"
        }
      ],
      "stateMutability": "view",
      "type": "function"
    },
    {
      "inputs": [
        {
          "internalType": "uint256",
          "name": "index",
          "type": "uint256"
        }
      ],
      "name": "tokenByIndex",
      "outputs": [
        {
          "internalType": "uint256",
          "name": "",
          "type": "uint256"
        }
      ],
      "stateMutability": "view",
      "type": "function"
    },
    {
      "inputs": [
        {
          "internalType": "uint256",
          "name": "_tokenId",
          "type": "uint256"
        }
      ],
      "name": "tokenExists",
      "outputs": [
        {
          "internalType": "bool",
          "name": "",
          "type": "bool"
        }
      ],
      "stateMutability": "view",
      "type": "function"
    },
    {
      "inputs": [
        {
          "internalType": "address",
          "name": "owner",
          "type": "address"
        },
        {
          "internalType": "uint256",
          "name": "index",
          "type": "uint256"
        }
      ],
      "name": "tokenOfOwnerByIndex",
      "outputs": [
        {
          "internalType": "uint256",
          "name": "",
          "type": "uint256"
        }
      ],
      "stateMutability": "view",
      "type": "function"
    },
    {
      "inputs": [
        {
          "internalType": "uint256",
          "name": "tokenId",
          "type": "uint256"
        }
      ],
      "name": "tokenURI",
      "outputs": [
        {
          "internalType": "string",
          "name": "",
          "type": "string"
        }
      ],
      "stateMutability": "view",
      "type": "function"
    },
    {
      "inputs": [],
      "name": "totalSupply",
      "outputs": [
        {
          "internalType": "uint256",
          "name": "",
          "type": "uint256"
        }
      ],
      "stateMutability": "view",
      "type": "function"
    },
    {
      "inputs": [
        {
          "internalType": "uint256",
          "name": "tokenId",
          "type": "uint256"
        }
      ],
      "name": "transferCooldownEnd",
      "outputs": [
        {
          "internalType": "uint256",
          "name": "",
          "type": "uint256"
        }
      ],
      "stateMutability": "view",
      "type": "function"
    },
    {
      "inputs": [
        {
          "internalType": "uint256",
          "name": "tokenId",
          "type": "uint256"
        }
      ],
      "name": "transferCooldownLeft",
      "outputs": [
        {
          "internalType": "uint256",
          "name": "",
          "type": "uint256"
        }
      ],
      "stateMutability": "view",
      "type": "function"
    },
    {
      "inputs": [
        {
          "internalType": "address",
          "name": "from",
          "type": "address"
        },
        {
          "internalType": "address",
          "name": "to",
          "type": "address"
        },
        {
          "internalType": "uint256",
          "name": "tokenId",
          "type": "uint256"
        }
      ],
      "name": "transferFrom",
      "outputs": [],
      "stateMutability": "nonpayable",
      "type": "function"
    },
    {
      "inputs": [
        {
          "internalType": "address[]",
          "name": "addrs",
          "type": "address[]"
        }
      ],
      "name": "unbanAddresses",
      "outputs": [],
      "stateMutability": "nonpayable",
      "type": "function"
    },
    {
      "inputs": [
        {
          "internalType": "uint256[]",
          "name": "tokenIds",
          "type": "uint256[]"
        }
      ],
      "name": "unbanTokens",
      "outputs": [],
      "stateMutability": "nonpayable",
      "type": "function"
    },
    {
      "inputs": [
        {
          "internalType": "uint256",
          "name": "tokenId",
          "type": "uint256"
        }
      ],
      "name": "votingTransferCooldownEnd",
      "outputs": [
        {
          "internalType": "uint256",
          "name": "",
          "type": "uint256"
        }
      ],
      "stateMutability": "view",
      "type": "function"
    },
    {
      "inputs": [
        {
          "internalType": "uint256",
          "name": "tokenId",
          "type": "uint256"
        }
      ],
      "name": "votingTransferCooldownLeft",
      "outputs": [
        {
          "internalType": "uint256",
          "name": "",
          "type": "uint256"
        }
      ],
      "stateMutability": "view",
      "type": "function"
    }
  ],
  "bytecode": "0x608060405234801561001057600080fd5b5061512d806100206000396000f3fe608060405234801561001057600080fd5b50600436106104535760003560e01c80638129fc1c11610241578063b8bcc7f21161013b578063d80eff20116100c3578063efa21d2811610087578063efa21d28146111ed578063f1104b0f146111f5578063f2a7417a14611249578063f68858e414611275578063ff2e65ab1461129857610453565b8063d80eff2014611173578063d8d1a6571461117b578063e2da70881461119a578063e985e9c5146111b7578063ef77a2f6146111e557610453565b8063c87b56dd1161010a578063c87b56dd1461104f578063ca15c8731461106c578063ca8ed8a114611089578063cf323460146110a6578063d547741f1461114757610453565b8063b8bcc7f214610f67578063bff74b2b14610f9e578063c35d4fb814610fa6578063c86041ba1461104757610453565b806390132a01116101c957806397b7d8c81161018d57806397b7d8c814610e1a5780639d7c828b14610e50578063a217fddf14610e6d578063a22cb46514610e75578063b88d4fde14610ea357610453565b806390132a0114610cc457806391d1485414610ce15780639507d39a14610d0d57806395d89b4114610ddd57806397acced414610de557610453565b806385ef47101161021057806385ef471014610b3a57806386481d4014610bdb5780638977906414610bf85780638a0a6efa14610c005780639010d07c14610ca157610453565b80638129fc1c14610a57578063825200cd14610a5f578063835f396714610b00578063847c8e5414610b1d57610453565b80633a7d22bc1161035257806354ec7fc0116102da5780636c0360eb1161029e5780636c0360eb1461099757806370a082311461099f57806374a42512146109c55780637575f309146109e257806378c7d31014610a3a57610453565b806354ec7fc0146108ea57806359770d6e146109235780636212e4561461096a5780636352211e1461097257806363a768ff1461098f57610453565b8063446da91d11610321578063446da91d1461086e5780634650cd32146108765780634ae717ab146108935780634db6c567146108b05780634f6ccce7146108cd57610453565b80633a7d22bc146107cf5780634149b706146107ec57806342842e0e1461081b57806342966c681461085157610453565b806318160ddd116103e05780632f2ff15d116103a45780632f2ff15d146106da5780632f745c5914610706578063308998201461073257806330947d2a1461078657806336568abe146107a357610453565b806318160ddd1461062b5780631e7aa37d1461063357806323b872dd1461065057806323ef209114610686578063248a9ca3146106bd57610453565b806305d3d93a1161042757806305d3d93a146104ef57806306fdde0314610522578063081812fc1461059f578063095ea7b3146105d85780630d076eb61461060457610453565b8062923f9e1461045857806301ffc9a71461048957806302d81e6f146104b057806303bf3e75146104ca575b600080fd5b6104756004803603602081101561046e57600080fd5b50356112b5565b604080519115158252519081900360200190f35b6104756004803603602081101561049f57600080fd5b50356001600160e01b0319166112c8565b6104b86112e7565b60408051918252519081900360200190f35b6104ed600480360360408110156104e057600080fd5b508035906020013561130b565b005b61050c6004803603602081101561050557600080fd5b5035611368565b6040805160ff9092168252519081900360200190f35b61052a61139f565b6040805160208082528351818301528351919283929083019185019080838360005b8381101561056457818101518382015260200161054c565b50505050905090810190601f1680156105915780820380516001836020036101000a031916815260200191505b509250505060405180910390f35b6105bc600480360360208110156105b557600080fd5b5035611435565b604080516001600160a01b039092168252519081900360200190f35b6104ed600480360360408110156105ee57600080fd5b506001600160a01b038135169060200135611497565b6104ed6004803603604081101561061a57600080fd5b508035906020013561ffff16611572565b6104b86116c2565b6104b86004803603602081101561064957600080fd5b50356116d3565b6104ed6004803603606081101561066657600080fd5b506001600160a01b0381358116916020810135909116906040013561176e565b6106a66004803603602081101561069c57600080fd5b503560ff166117c5565b6040805161ffff9092168252519081900360200190f35b6104b8600480360360208110156106d357600080fd5b50356117e0565b6104ed600480360360408110156106f057600080fd5b50803590602001356001600160a01b03166117f5565b6104b86004803603604081101561071c57600080fd5b506001600160a01b038135169060200135611861565b6104ed6004803603611fe081101561074957600080fd5b8101908080611fe0019060ff80602002604051908101604052809291908260ff6020028082843760009201919091525091945061188c9350505050565b6104756004803603602081101561079c57600080fd5b503561190a565b6104ed600480360360408110156107b957600080fd5b50803590602001356001600160a01b031661192d565b61050c600480360360208110156107e557600080fd5b503561198e565b6104ed6004803603604081101561080257600080fd5b5080356001600160a01b0316906020013560ff166119c4565b6104ed6004803603606081101561083157600080fd5b506001600160a01b03813581169160208101359091169060400135611b14565b6104ed6004803603602081101561086757600080fd5b5035611b2f565b6104b8611b97565b6104b86004803603602081101561088c57600080fd5b5035611b9e565b6104ed600480360360208110156108a957600080fd5b5035611be2565b6104b8600480360360208110156108c657600080fd5b5035611bfe565b6104b8600480360360208110156108e357600080fd5b5035611c1b565b6109076004803603602081101561090057600080fd5b5035611c31565b604080516001600160401b039092168252519081900360200190f35b6109496004803603604081101561093957600080fd5b508035906020013560ff16611c5b565b604080516bffffffffffffffffffffffff9092168252519081900360200190f35b6104b8611e04565b6105bc6004803603602081101561098857600080fd5b5035611e0a565b6104b8611e32565b61052a611e37565b6104b8600480360360208110156109b557600080fd5b50356001600160a01b0316611e98565b61050c600480360360208110156109db57600080fd5b5035611f00565b6109ea611f16565b60408051602080825283518183015283519192839290830191858101910280838360005b83811015610a26578181015183820152602001610a0e565b505050509050019250505060405180910390f35b6104b860048036036020811015610a5057600080fd5b5035611fd2565b6104ed611fe5565b6104ed60048036036020811015610a7557600080fd5b810190602081018135600160201b811115610a8f57600080fd5b820183602082011115610aa157600080fd5b803590602001918460208302840111600160201b83111715610ac257600080fd5b91908080602002602001604051908101604052809392919081815260200183836020028082843760009201919091525092955061214e945050505050565b6104ed60048036036020811015610b1657600080fd5b50356121e6565b6104b860048036036020811015610b3357600080fd5b50356121ee565b6104ed60048036036020811015610b5057600080fd5b810190602081018135600160201b811115610b6a57600080fd5b820183602082011115610b7c57600080fd5b803590602001918460208302840111600160201b83111715610b9d57600080fd5b919080806020026020016040519081016040528093929190818152602001838360200280828437600092019190915250929550612218945050505050565b61050c60048036036020811015610bf157600080fd5b50356122b0565b6105bc6122e5565b6104ed60048036036020811015610c1657600080fd5b810190602081018135600160201b811115610c3057600080fd5b820183602082011115610c4257600080fd5b803590602001918460208302840111600160201b83111715610c6357600080fd5b9190808060200260200160405190810160405280939291908181526020018383602002808284376000920191909152509295506122fc945050505050565b6105bc60048036036040811015610cb757600080fd5b508035906020013561239d565b61047560048036036020811015610cda57600080fd5b50356123b5565b61047560048036036040811015610cf757600080fd5b50803590602001356001600160a01b0316612405565b610d2a60048036036020811015610d2357600080fd5b503561241d565b604051808761ffff1681526020018660ff1681526020018560ff168152602001846001600160401b031681526020018362ffffff16815260200180602001828103825283818151815260200191508051906020019080838360005b83811015610d9d578181015183820152602001610d85565b50505050905090810190601f168015610dca5780820380516001836020036101000a031916815260200191505b5097505050505050505060405180910390f35b61052a612661565b610e0260048036036020811015610dfb57600080fd5b50356126c2565b6040805162ffffff9092168252519081900360200190f35b610e3760048036036020811015610e3057600080fd5b50356126f8565b6040805163ffffffff9092168252519081900360200190f35b6104b860048036036020811015610e6657600080fd5b5035612728565b6104b861273b565b6104ed60048036036040811015610e8b57600080fd5b506001600160a01b0381351690602001351515612740565b6104ed60048036036080811015610eb957600080fd5b6001600160a01b03823581169260208101359091169160408201359190810190608081016060820135600160201b811115610ef357600080fd5b820183602082011115610f0557600080fd5b803590602001918460018302840111600160201b83111715610f2657600080fd5b91908080601f016020809104026020016040519081016040528093929190818152602001838380828437600092019190915250929550612845945050505050565b6104ed60048036036060811015610f7d57600080fd5b506001600160a01b038135169060ff602082013581169160400135166128a3565b6104b86129e7565b6104ed60048036036020811015610fbc57600080fd5b810190602081018135600160201b811115610fd657600080fd5b820183602082011115610fe857600080fd5b803590602001918460208302840111600160201b8311171561100957600080fd5b9190808060200260200160405190810160405280939291908181526020018383602002808284376000920191909152509295506129ee945050505050565b610475612a8f565b61052a6004803603602081101561106557600080fd5b5035612a99565b6104b86004803603602081101561108257600080fd5b5035612b1b565b6104b86004803603602081101561109f57600080fd5b5035612b32565b6104ed600480360360208110156110bc57600080fd5b810190602081018135600160201b8111156110d657600080fd5b8201836020820111156110e857600080fd5b803590602001918460208302840111600160201b8311171561110957600080fd5b919080806020026020016040519081016040528093929190818152602001838360200280828437600092019190915250929550612c0d945050505050565b6104ed6004803603604081101561115d57600080fd5b50803590602001356001600160a01b0316612cb2565b6104b8612d0b565b6104ed6004803603602081101561119157600080fd5b50351515612d2f565b6104b8600480360360208110156111b057600080fd5b5035612d8b565b610475600480360360408110156111cd57600080fd5b506001600160a01b0381358116916020013516612e6d565b6104b8612e9b565b610907612ebf565b6104ed6004803603611fe081101561120c57600080fd5b8101908080611fe0019060ff80602002604051908101604052809291908260ff60200280828437600092019190915250919450612ec99350505050565b6104ed6004803603604081101561125f57600080fd5b50803590602001356001600160401b0316612f46565b6104ed6004803603604081101561128b57600080fd5b5080359060200135612f7e565b6104b8600480360360208110156112ae57600080fd5b50356131b4565b60006112c0826131d1565b90505b919050565b6001600160e01b03191660009081526033602052604090205460ff1690565b7f0bccd6c1c206077157407687e2b5d0975d1e551770e9f2da197d87faf8fc78a381565b6113136131de565b61131b61325b565b611324816132b4565b808261132f84611e0a565b6001600160a01b03167fe8035aa143b3a2b26ea78b2a5c3eb7a191175da93d66dacfeaea5c3981189e6c60405160405180910390a45050565b60008161137481613381565b60008381526102ce6020526040902054611396906001600160401b03166133dc565b91505b50919050565b606a8054604080516020601f600260001961010060018816150201909516949094049384018190048102820181019092528281526060939092909183018282801561142b5780601f106114005761010080835404028352916020019161142b565b820191906000526020600020905b81548152906001019060200180831161140e57829003601f168201915b5050505050905090565b6000611440826131d1565b61147b5760405162461bcd60e51b815260040180806020018281038252602c815260200180614fd6602c913960400191505060405180910390fd5b506000908152606860205260409020546001600160a01b031690565b60006114a282611e0a565b9050806001600160a01b0316836001600160a01b031614156114f55760405162461bcd60e51b815260040180806020018281038252602181526020018061502b6021913960400191505060405180910390fd5b806001600160a01b0316611507613419565b6001600160a01b03161480611528575061152881611523613419565b612e6d565b6115635760405162461bcd60e51b8152600401808060200182810382526038815260200180614eda6038913960400191505060405180910390fd5b61156d838361341d565b505050565b61157a6131de565b61158261325b565b600060c9838154811061159157fe5b6000918252602090912001805490915060ff620100009091048116101561156d5780546000906115c99061ffff90811690851661348b565b825490915060009060ca9062010000900460ff1661010081106115e857fe5b015490505b8082106116ac57825460ff6201000080830482166001019091160262ff00001990911617835590819003908461162281611e0a565b8454604080516201000090920460ff168252516001600160a01b0392909216917f1e8ccc52fc2f78485fd47b1731bb16a4286756d20e27ba77463ba36806772372916020908290030190a3825460ff62010000909104811610156116a257825460ca9062010000900460ff16610100811061169957fe5b015490506116a7565b600091505b6115ed565b50815461ffff191661ffff919091161790555050565b60006116ce60666134e5565b905090565b60008060c983815481106116e357fe5b60009182526020909120015462010000900460ff1690506009811161170c5760649150506112c3565b60138160ff16116117215760f09150506112c3565b601d8160ff1611611737576102309150506112c3565b60278160ff161161174d576105009150506112c3565b60318160ff161161176357610b409150506112c3565b6119009150506112c3565b61177f611779613419565b826134f0565b6117ba5760405162461bcd60e51b815260040180806020018281038252603181526020018061504c6031913960400191505060405180910390fd5b61156d83838361358c565b600060ca8260ff1661010081106117d857fe5b015492915050565b60009081526097602052604090206002015490565b60008281526097602052604090206002015461181890611813613419565b612405565b6118535760405162461bcd60e51b815260040180806020018281038252602f815260200180614df9602f913960400191505060405180910390fd5b61185d82826136d8565b5050565b6001600160a01b03821660009081526065602052604081206118839083613741565b90505b92915050565b611897600033612405565b6118d4576040805162461bcd60e51b81526020600482015260096024820152682737ba1030b236b4b760b91b604482015290519081900360640190fd5b60005b60ff81101561185d57818160ff81106118ec57fe5b60200201516101ca82610100811061190057fe5b01556001016118d7565b60008161191681613381565b60c861192184611368565b60ff1610159392505050565b611935613419565b6001600160a01b0316816001600160a01b0316146119845760405162461bcd60e51b815260040180806020018281038252602f8152602001806150c9602f913960400191505060405180910390fd5b61185d828261374d565b60008161199a81613381565b60c983815481106119a757fe5b6000918252602090912001546301000000900460ff169392505050565b6119cc6131de565b6119d461325b565b60c9546102cb5443146119e8576102cc8190555b436102cb556040805160608101825260008082526020820181815260ff86811694840194855260c9805460018101825590845293517f66be4f155c5ef2ebd3772b228f2f00681e4ed5826cdb3b1943cc11ad15ad1d2890940180549251955161ffff1990931661ffff9095169490941762ff0000191662010000958216959095029490941763ff00000019166301000000919094160292909217905580611a8f85846137b6565b611aaa611a9a6138e4565b42906001600160401b03166138ea565b60008481526102ce6020526040808220805467ffffffffffffffff19166001600160401b03949094169390931790925590516001600160a01b0387169185917f55913e3bc6e63b6a081c746c2637c06757612ad958f176a9b7ee6be48ca563179190a35050505050565b61156d83838360405180602001604052806000815250612845565b611b3a611779613419565b611b8b576040805162461bcd60e51b815260206004820181905260248201527f63616c6c6572206973206e6f74206f776e6572206e6f7220617070726f766564604482015290519081900360640190fd5b611b94816132b4565b50565b6202a30081565b60008080611bc8611bb2426202a3006138ea565b60008681526102d3602052604090205490613947565b9150915081611bd8576000611bda565b805b949350505050565b611bea61396d565b60009081526102d360205260409020429055565b60008181526102d360205260408120546112c0906202a30061348b565b600080611c296066846139e8565b509392505050565b600081611c3d81613381565b505060009081526102ce60205260409020546001600160401b031690565b6000611c656131de565b611c6d61325b565b600060c98481548110611c7c57fe5b600091825260208083208784526102ce909152604083205491019250611caa906001600160401b03166133dc565b90508360ff168160ff161015611d07576040805162461bcd60e51b815260206004820152601c60248201527f696e73756666696369656e7420747261696e6572207374616d696e6100000000604482015290519081900360640190fd5b60008581526102ce602052604090205460ff80861661012c02916001600160401b03169060c890841610611d8257816001600160401b0316611d476138e4565b60008981526102ce60205260409020805467ffffffffffffffff19166001600160401b03928316420393909301909116919091179055611db2565b60008781526102ce6020526040902080546001600160401b0380821685011667ffffffffffffffff199091161790555b8354602082901b6bffffffffffffffff000000001690600890611ddd9062010000900460ff16613a04565b955462ffffff909616901b630100000090950460ff16949094179093179695505050505050565b61012c81565b60006112c082604051806060016040528060298152602001614f3c6029913960669190613a18565b60c881565b606d8054604080516020601f600260001961010060018816150201909516949094049384018190048102820181019092528281526060939092909183018282801561142b5780601f106114005761010080835404028352916020019161142b565b60006001600160a01b038216611edf5760405162461bcd60e51b815260040180806020018281038252602a815260200180614f12602a913960400191505060405180910390fd5b6001600160a01b03821660009081526065602052604090206112c0906134e5565b60009081526102cd602052604090205460ff1690565b6102ca5460609081906001600160401b0381118015611f3457600080fd5b50604051908082528060200260200182016040528015611f5e578160200160208202803683370190505b50905060005b6102ca5460ff82161015611fcc576102ca8160ff1681548110611f8357fe5b90600052602060002090602091828204019190069054906101000a900460ff16828260ff1681518110611fb257fe5b60ff90921660209283029190910190910152600101611f64565b50905090565b6102d36020526000908152604090205481565b600054610100900460ff1680611ffe5750611ffe613a2f565b8061200c575060005460ff16155b6120475760405162461bcd60e51b815260040180806020018281038252602e815260200180614f65602e913960400191505060405180910390fd5b600054610100900460ff16158015612072576000805460ff1961ff0019909116610100171660011790555b6120c560405180604001604052806016815260200175213ab734902ab734bb32b939b0b6102a3930b4b732b960511b8152506040518060400160405280600381526020016210955560ea1b815250613a40565b6120cd613afd565b6120d8600033611853565b60408051610140810182526009815260136020820152601d918101919091526027606082015260316080820152606360a0820152609560c082015260c760e082015260f961010082015260ff610120820152612139906102ca90600a614c24565b508015611b94576000805461ff001916905550565b612159600033612405565b612196576040805162461bcd60e51b81526020600482015260096024820152682737ba1030b236b4b760b91b604482015290519081900360640190fd5b60005b815181101561185d5760016102d160008484815181106121b557fe5b6020908102919091018101518252810191909152604001600020805460ff1916911515919091179055600101612199565b611b8b6131de565b60008080611bc861220242620151806138ea565b60008681526102cf602052604090205490613947565b612223600033612405565b612260576040805162461bcd60e51b81526020600482015260096024820152682737ba1030b236b4b760b91b604482015290519081900360640190fd5b60005b815181101561185d5760006102d1600084848151811061227f57fe5b6020908102919091018101518252810191909152604001600020805460ff1916911515919091179055600101612263565b6000816122bc81613381565b60c983815481106122c957fe5b60009182526020909120015462010000900460ff169392505050565b7209cf31b6d8a2d8cc4d44ccea388d4a20f191eb81565b612307600033612405565b612344576040805162461bcd60e51b81526020600482015260096024820152682737ba1030b236b4b760b91b604482015290519081900360640190fd5b60005b815181101561185d5760006102d2600084848151811061236357fe5b6020908102919091018101516001600160a01b03168252810191909152604001600020805460ff1916911515919091179055600101612347565b60008281526097602052604081206118839083613741565b60008060c983815481106123c557fe5b60009182526020909120015462010000900460ff1690506123e581613b9e565b60008481526102cd602052604090205460ff908116911614915050919050565b60008281526097602052604081206118839083613c2d565b600080600080600060608661243181613381565b612439614cca565b60c9898154811061244657fe5b906000526020600020016040518060600160405290816000820160009054906101000a900461ffff1661ffff1661ffff1681526020016000820160029054906101000a900460ff1660ff1660ff1681526020016000820160039054906101000a900460ff1660ff1660ff168152505090508060000151975080602001519650806040015195506102ce60008a815260200190815260200160002060009054906101000a90046001600160401b031694506101ca816020015160ff16610100811061250c57fe5b01546040805163dbd1513560e01b8152306004820152602481018c905290519195507209cf31b6d8a2d8cc4d44ccea388d4a20f191eb9163dbd1513591604480820192600092909190829003018186803b15801561256957600080fd5b505afa15801561257d573d6000803e3d6000fd5b505050506040513d6000823e601f3d908101601f1916820160405260208110156125a657600080fd5b8101908080516040519392919084600160201b8211156125c557600080fd5b9083019060208201858111156125da57600080fd5b8251600160201b8111828201881017156125f357600080fd5b82525081516020918201929091019080838360005b83811015612620578181015183820152602001612608565b50505050905090810190601f16801561264d5780820380516001836020036101000a031916815260200191505b506040525050509250505091939550919395565b606b8054604080516020601f600260001961010060018816150201909516949094049384018190048102820181019092528281526060939092909183018282801561142b5780601f106114005761010080835404028352916020019161142b565b6000816126ce81613381565b61139660c984815481106126de57fe5b60009182526020909120015462010000900460ff16613a04565b60008161270481613381565b60c9838154811061271157fe5b60009182526020909120015461ffff169392505050565b6102cf6020526000908152604090205481565b600081565b612748613419565b6001600160a01b0316826001600160a01b031614156127ae576040805162461bcd60e51b815260206004820152601960248201527f4552433732313a20617070726f766520746f2063616c6c657200000000000000604482015290519081900360640190fd5b80606960006127bb613419565b6001600160a01b03908116825260208083019390935260409182016000908120918716808252919093529120805460ff1916921515929092179091556127ff613419565b6001600160a01b03167f17307eab39ab6107e8899845ad3d59bd9653f200f220920489ca2b5937696c318360405180821515815260200191505060405180910390a35050565b612856612850613419565b836134f0565b6128915760405162461bcd60e51b815260040180806020018281038252603181526020018061504c6031913960400191505060405180910390fd5b61289d84848484613c42565b50505050565b6128ab6131de565b6128b361325b565b60c9546102cb5443146128c7576102cc8190555b436102cb5560408051606081018252600080825260ff8086166020840190815287821694840194855260c9805460018101825590845293517f66be4f155c5ef2ebd3772b228f2f00681e4ed5826cdb3b1943cc11ad15ad1d28909401805491519551831663010000000263ff0000001996909316620100000262ff00001961ffff9690961661ffff19909316929092179490941617939093169290921790558261297186846137b6565b61297c611a9a6138e4565b60008481526102ce6020526040808220805467ffffffffffffffff19166001600160401b03949094169390931790925590516001600160a01b0388169185917f55913e3bc6e63b6a081c746c2637c06757612ad958f176a9b7ee6be48ca563179190a3505050505050565b6201518081565b6129f9600033612405565b612a36576040805162461bcd60e51b81526020600482015260096024820152682737ba1030b236b4b760b91b604482015290519081900360640190fd5b60005b815181101561185d5760016102d26000848481518110612a5557fe5b6020908102919091018101516001600160a01b03168252810191909152604001600020805460ff1916911515919091179055600101612a39565b6102d05460ff1681565b6060612aa482613c94565b6040516020018060276150a2823960270182805190602001908083835b60208310612ae05780518252601f199092019160209182019101612ac1565b6001836020036101000a0380198251168184511680821785525050505050509050019150506040516020818303038152906040529050919050565b60008181526097602052604081206112c0906134e5565b60008060c98381548110612b4257fe5b60009182526020909120015462010000900460ff169050600a811015612ba5576040805162461bcd60e51b81526020600482015260136024820152721cdd185ada5b99c81b9bdd08185b1b1bddd959606a1b604482015290519081900360640190fd5b600060138260ff1611612bba575060f0612bfb565b601d8260ff1611612bce5750610230612bfb565b60278260ff1611612be25750610500612bfb565b60318260ff1611612bf65750610b40612bfb565b506119005b611bda81670de0b6b3a7640000613d6e565b60005b815181101561185d57612c3d612c24613419565b838381518110612c3057fe5b60200260200101516134f0565b612c8e576040805162461bcd60e51b815260206004820181905260248201527f63616c6c6572206973206e6f74206f776e6572206e6f7220617070726f766564604482015290519081900360640190fd5b612caa828281518110612c9d57fe5b60200260200101516132b4565b600101612c10565b600082815260976020526040902060020154612cd090611813613419565b6119845760405162461bcd60e51b8152600401808060200182810382526030815260200180614eaa6030913960400191505060405180910390fd5b7fdf058f017018cec776721a5a8df2a193f80faf9c7b8bbf29a37c17b2cf0a7a6a81565b612d3a600033612405565b612d77576040805162461bcd60e51b81526020600482015260096024820152682737ba1030b236b4b760b91b604482015290519081900360640190fd5b6102d0805460ff1916911515919091179055565b60008060c98381548110612d9b57fe5b6000918252602090912001805490915060ff6201000090910481161015612e6457600080612dc885613dc7565b835490915062010000900460ff165b8160ff168160ff1611612e0b57612e0160ca8260ff166101008110612df857fe5b0154849061348b565b9250600101612dd7565b50825461ffff1682118015612e2457508060ff1660fe14155b15612e4a578254612e4790600190612e4190859061ffff166138ea565b906138ea565b91505b61ffff821115612e5a5761ffff91505b5091506112c39050565b50600092915050565b6001600160a01b03918216600090815260696020908152604080832093909416825291909152205460ff1690565b7faae21c1cee9e7632c0cc10bdee3cf98dc1f3f091d73f50e0fd7433a777100b0881565b60006116ce6138e4565b612ed4600033612405565b612f11576040805162461bcd60e51b81526020600482015260096024820152682737ba1030b236b4b760b91b604482015290519081900360640190fd5b60005b60ff81101561185d57818160ff8110612f2957fe5b602002015160ca826101008110612f3c57fe5b0155600101612f14565b612f4e6131de565b60009182526102ce6020526040909120805467ffffffffffffffff19166001600160401b03909216919091179055565b612f866131de565b612f8e61325b565b600060c98381548110612f9d57fe5b9060005260206000200160000160029054906101000a900460ff169050600060c98381548110612fc957fe5b60009182526020909120015460ff62010000909104811691508281161080156130155750612ffa610100600a613ebd565b613013600a61300d60ff8616600161348b565b90613ebd565b105b61305b576040805162461bcd60e51b8152602060048201526012602482015271467573696f6e20756e6e656365737361727960701b604482015290519081900360640190fd5b8060ff1661306883613f24565b60ff161115801561307f57508160ff168160ff1611155b6130ba5760405162461bcd60e51b815260040180806020018281038252602581526020018061507d6025913960400191505060405180910390fd5b60008481526102cd602052604090205460ff161561313b5760008481526102cd602052604090205460ff80841691161061313b576040805162461bcd60e51b815260206004820152601b60248201527f63616e6e6f74206675736520747769636520706572206c6576656c0000000000604482015290519081900360640190fd5b61314482613b9e565b60008581526102cd60205260409020805460ff191660ff9290921691909117905561316e836132b4565b828461317986611e0a565b6001600160a01b03167fea2191d22d73877bddda1971a5ae8375b92a866afad8cd77481ec49a03691bd860405160405180910390a450505050565b60008181526102cf60205260408120546112c0906201518061348b565b60006112c0606683613fff565b6132087f0bccd6c1c206077157407687e2b5d0975d1e551770e9f2da197d87faf8fc78a333612405565b613259576040805162461bcd60e51b815260206004820152601a60248201527f747261696e65723a206e6f742067616d6520636f6e7472616374000000000000604482015290519081900360640190fd5b565b6102d05460ff1615613259576040805162461bcd60e51b815260206004820152601860248201527f747261696e65723a20656d657267656e63792070617573650000000000000000604482015290519081900360640190fd5b60006132bf82611e0a565b90506132cd8160008461400b565b6132d860008361341d565b6000828152606c60205260409020546002600019610100600184161502019091160415613316576000828152606c6020526040812061331691614cea565b6001600160a01b03811660009081526065602052604090206133389083614280565b5061334460668361428c565b5060405182906000906001600160a01b038416907fddf252ad1be2c89b69c2b068fc378daa952ba7f163c4a11628f55a4df523b3ef908390a45050565b6102cc548110806133945750436102cb54105b611b94576040805162461bcd60e51b81526020600482015260146024820152730546f6f20667265736820666f72206c6f6f6b75760641b604482015290519081900360640190fd5b600042826001600160401b031611156133f7575060006112c3565b61012c6001600160401b03831642030460c88111156112c0575060c892915050565b3390565b600081815260686020526040902080546001600160a01b0319166001600160a01b038416908117909155819061345282611e0a565b6001600160a01b03167f8c5be1e5ebec7d5bd14f71427d1e84f3dd0314c0f7b2291e5b200ac8c7c3b92560405160405180910390a45050565b600082820183811015611883576040805162461bcd60e51b815260206004820152601b60248201527f536166654d6174683a206164646974696f6e206f766572666c6f770000000000604482015290519081900360640190fd5b60006112c082614298565b60006134fb826131d1565b6135365760405162461bcd60e51b815260040180806020018281038252602c815260200180614e7e602c913960400191505060405180910390fd5b600061354183611e0a565b9050806001600160a01b0316846001600160a01b0316148061357c5750836001600160a01b031661357184611435565b6001600160a01b0316145b80611bda5750611bda8185612e6d565b826001600160a01b031661359f82611e0a565b6001600160a01b0316146135e45760405162461bcd60e51b81526004018080602001828103825260298152602001806150026029913960400191505060405180910390fd5b6001600160a01b0382166136295760405162461bcd60e51b8152600401808060200182810382526024815260200180614e5a6024913960400191505060405180910390fd5b61363483838361400b565b61363f60008261341d565b6001600160a01b03831660009081526065602052604090206136619082614280565b506001600160a01b0382166000908152606560205260409020613684908261429c565b50613691606682846142a8565b5080826001600160a01b0316846001600160a01b03167fddf252ad1be2c89b69c2b068fc378daa952ba7f163c4a11628f55a4df523b3ef60405160405180910390a4505050565b60008281526097602052604090206136f090826142be565b1561185d576136fd613419565b6001600160a01b0316816001600160a01b0316837f2f8788117e7eff1d82e926ec794901d17c78024a50270940304540a733656f0d60405160405180910390a45050565b600061188383836142d3565b60008281526097602052604090206137659082614337565b1561185d57613772613419565b6001600160a01b0316816001600160a01b0316837ff6391f5c32d9c69d2a47ea670b442974b53935d1edc7fd64eb21e047a839171b60405160405180910390a45050565b6001600160a01b038216613811576040805162461bcd60e51b815260206004820181905260248201527f4552433732313a206d696e7420746f20746865207a65726f2061646472657373604482015290519081900360640190fd5b61381a816131d1565b1561386c576040805162461bcd60e51b815260206004820152601c60248201527f4552433732313a20746f6b656e20616c7265616479206d696e74656400000000604482015290519081900360640190fd5b6138786000838361400b565b6001600160a01b038216600090815260656020526040902061389a908261429c565b506138a7606682846142a8565b5060405181906001600160a01b038416906000907fddf252ad1be2c89b69c2b068fc378daa952ba7f163c4a11628f55a4df523b3ef908290a45050565b61ea6090565b600082821115613941576040805162461bcd60e51b815260206004820152601e60248201527f536166654d6174683a207375627472616374696f6e206f766572666c6f770000604482015290519081900360640190fd5b50900390565b6000808383111561395d57506000905080613966565b50600190508183035b9250929050565b6139977fdf058f017018cec776721a5a8df2a193f80faf9c7b8bbf29a37c17b2cf0a7a6a33612405565b613259576040805162461bcd60e51b815260206004820181905260248201527f747261696e65723a206e6f7420676f7665726e616e636520636f6e7472616374604482015290519081900360640190fd5b60008080806139f7868661434c565b9097909650945050505050565b60006101ca8260ff1661010081106117d857fe5b6000613a258484846143c7565b90505b9392505050565b6000613a3a30614491565b15905090565b600054610100900460ff1680613a595750613a59613a2f565b80613a67575060005460ff16155b613aa25760405162461bcd60e51b815260040180806020018281038252602e815260200180614f65602e913960400191505060405180910390fd5b600054610100900460ff16158015613acd576000805460ff1961ff0019909116610100171660011790555b613ad5613afd565b613add614497565b613ae78383614534565b801561156d576000805461ff0019169055505050565b600054610100900460ff1680613b165750613b16613a2f565b80613b24575060005460ff16155b613b5f5760405162461bcd60e51b815260040180806020018281038252602e815260200180614f65602e913960400191505060405180910390fd5b600054610100900460ff16158015613b8a576000805460ff1961ff0019909116610100171660011790555b8015611b94576000805461ff001916905550565b6000805b6102ca5460ff82161015611399576102ca8160ff1681548110613bc157fe5b90600052602060002090602091828204019190069054906101000a900460ff1691506102ca8160ff1681548110613bf457fe5b90600052602060002090602091828204019190069054906101000a900460ff1660ff168360ff1611613c2557611399565b600101613ba2565b6000611883836001600160a01b038416614619565b613c4d84848461358c565b613c5984848484614631565b61289d5760405162461bcd60e51b8152600401808060200182810382526032815260200180614e286032913960400191505060405180910390fd5b606081613cb957506040805180820190915260018152600360fc1b60208201526112c3565b8160005b8115613cd157600101600a82049150613cbd565b6060816001600160401b0381118015613ce957600080fd5b506040519080825280601f01601f191660200182016040528015613d14576020820181803683370190505b50859350905060001982015b8315613d6557600a840660300160f81b82828060019003935081518110613d4357fe5b60200101906001600160f81b031916908160001a905350600a84049350613d20565b50949350505050565b600082613d7d57506000611886565b82820282848281613d8a57fe5b04146118835760405162461bcd60e51b8152600401808060200182810382526021815260200180614fb56021913960400191505060405180910390fd5b60008060c98381548110613dd757fe5b600091825260208220015462010000900460ff169150613df682613b9e565b60008581526102cd602052604090205490915060ff80831691161415613ea75760005b6102ca5460ff82161015613ea5576102ca8160ff1681548110613e3857fe5b90600052602060002090602091828204019190069054906101000a900460ff1660ff168260ff161015613e9d576102ca8160ff1681548110613e7657fe5b90600052602060002090602091828204019190069054906101000a900460ff169150613ea5565b600101613e19565b505b60fe8160ff161115611bd8575060fe9392505050565b6000808211613f13576040805162461bcd60e51b815260206004820152601a60248201527f536166654d6174683a206469766973696f6e206279207a65726f000000000000604482015290519081900360640190fd5b818381613f1c57fe5b049392505050565b60006102ca600081548110613f3557fe5b90600052602060002090602091828204019190069054906101000a900460ff1660ff168260ff1611613f69575060006112c3565b60005b6102ca5460ff82161015611399576102ca8160ff1681548110613f8b57fe5b90600052602060002090602091828204019190069054906101000a900460ff1660ff168360ff1611613fbc57611399565b6102ca8160ff1681548110613fcd57fe5b90600052602060002090602091828204019190069054906101000a900460ff1660010191508080600101915050613f6c565b60006118838383614619565b6001600160a01b038316158061402857506001600160a01b038216155b156140325761156d565b61403f42620151806138ea565b60008281526102cf602052604090205410614095576040805162461bcd60e51b81526020600482015260116024820152702a3930b739b332b91031b7b7b63237bbb760791b604482015290519081900360640190fd5b6140a2426202a3006138ea565b60008281526102d3602052604090205410614104576040805162461bcd60e51b815260206004820152601860248201527f566f74696e67207472616e7366657220636f6f6c646f776e0000000000000000604482015290519081900360640190fd5b61412e7faae21c1cee9e7632c0cc10bdee3cf98dc1f3f091d73f50e0fd7433a777100b0883612405565b6141455760008181526102cf602052604090204290555b60008181526102d1602052604090205460ff16156141a2576040805162461bcd60e51b815260206004820152601560248201527431b0b73737ba103a3930b739b332b9103a37b5b2b760591b604482015290519081900360640190fd5b6001600160a01b03831660009081526102d2602052604090205460ff1615614211576040805162461bcd60e51b815260206004820152601c60248201527f63616e6e6f74207472616e736665722066726f6d206164647265737300000000604482015290519081900360640190fd5b6001600160a01b03821660009081526102d2602052604090205460ff161561156d576040805162461bcd60e51b815260206004820152601a60248201527f63616e6e6f74207472616e7366657220746f2061646472657373000000000000604482015290519081900360640190fd5b60006118838383614799565b6000611883838361485f565b5490565b60006118838383614933565b6000613a2584846001600160a01b03851661497d565b6000611883836001600160a01b038416614933565b815460009082106143155760405162461bcd60e51b8152600401808060200182810382526022815260200180614dd76022913960400191505060405180910390fd5b82600001828154811061432457fe5b9060005260206000200154905092915050565b6000611883836001600160a01b038416614799565b8154600090819083106143905760405162461bcd60e51b8152600401808060200182810382526022815260200180614f936022913960400191505060405180910390fd5b60008460000184815481106143a157fe5b906000526020600020906002020190508060000154816001015492509250509250929050565b600082815260018401602052604081205482816144625760405162461bcd60e51b81526004018080602001828103825283818151815260200191508051906020019080838360005b8381101561442757818101518382015260200161440f565b50505050905090810190601f1680156144545780820380516001836020036101000a031916815260200191505b509250505060405180910390fd5b5084600001600182038154811061447557fe5b9060005260206000209060020201600101549150509392505050565b3b151590565b600054610100900460ff16806144b057506144b0613a2f565b806144be575060005460ff16155b6144f95760405162461bcd60e51b815260040180806020018281038252602e815260200180614f65602e913960400191505060405180910390fd5b600054610100900460ff16158015614524576000805460ff1961ff0019909116610100171660011790555b613b8a6301ffc9a760e01b614a14565b600054610100900460ff168061454d575061454d613a2f565b8061455b575060005460ff16155b6145965760405162461bcd60e51b815260040180806020018281038252602e815260200180614f65602e913960400191505060405180910390fd5b600054610100900460ff161580156145c1576000805460ff1961ff0019909116610100171660011790555b82516145d490606a906020860190614d2e565b5081516145e890606b906020850190614d2e565b506145f96380ac58cd60e01b614a14565b614609635b5e139f60e01b614a14565b613ae763780e9d6360e01b614a14565b60009081526001919091016020526040902054151590565b6000614645846001600160a01b0316614491565b61465157506001611bda565b606061475f630a85bd0160e11b614666613419565b88878760405160240180856001600160a01b03168152602001846001600160a01b0316815260200183815260200180602001828103825283818151815260200191508051906020019080838360005b838110156146cd5781810151838201526020016146b5565b50505050905090810190601f1680156146fa5780820380516001836020036101000a031916815260200191505b5095505050505050604051602081830303815290604052906001600160e01b0319166020820180516001600160e01b038381831617835250505050604051806060016040528060328152602001614e28603291396001600160a01b0388169190614a98565b9050600081806020019051602081101561477857600080fd5b50516001600160e01b031916630a85bd0160e11b1492505050949350505050565b6000818152600183016020526040812054801561485557835460001980830191908101906000908790839081106147cc57fe5b90600052602060002001549050808760000184815481106147e957fe5b60009182526020808320909101929092558281526001898101909252604090209084019055865487908061481957fe5b60019003818190600052602060002001600090559055866001016000878152602001908152602001600020600090556001945050505050611886565b6000915050611886565b60008181526001830160205260408120548015614855578354600019808301919081019060009087908390811061489257fe5b90600052602060002090600202019050808760000184815481106148b257fe5b6000918252602080832084546002909302019182556001938401549184019190915583548252898301905260409020908401905586548790806148f157fe5b60008281526020808220600260001990940193840201828155600190810183905592909355888152898201909252604082209190915594506118869350505050565b600061493f8383614619565b61497557508154600181810184556000848152602080822090930184905584548482528286019093526040902091909155611886565b506000611886565b6000828152600184016020526040812054806149e2575050604080518082018252838152602080820184815286546001818101895560008981528481209551600290930290950191825591519082015586548684528188019092529290912055613a28565b828560000160018303815481106149f557fe5b9060005260206000209060020201600101819055506000915050613a28565b6001600160e01b03198082161415614a73576040805162461bcd60e51b815260206004820152601c60248201527f4552433136353a20696e76616c696420696e7465726661636520696400000000604482015290519081900360640190fd5b6001600160e01b0319166000908152603360205260409020805460ff19166001179055565b6060613a25848460008585614aac85614491565b614afd576040805162461bcd60e51b815260206004820152601d60248201527f416464726573733a2063616c6c20746f206e6f6e2d636f6e7472616374000000604482015290519081900360640190fd5b60006060866001600160a01b031685876040518082805190602001908083835b60208310614b3c5780518252601f199092019160209182019101614b1d565b6001836020036101000a03801982511681845116808217855250505050505090500191505060006040518083038185875af1925050503d8060008114614b9e576040519150601f19603f3d011682016040523d82523d6000602084013e614ba3565b606091505b5091509150614bb3828286614bbe565b979650505050505050565b60608315614bcd575081613a28565b825115614bdd5782518084602001fd5b60405162461bcd60e51b815260206004820181815284516024840152845185939192839260440191908501908083836000831561442757818101518382015260200161440f565b82805482825590600052602060002090601f01602090048101928215614cba5791602002820160005b83821115614c8b57835183826101000a81548160ff021916908360ff1602179055509260200192600101602081600001049283019260010302614c4d565b8015614cb85782816101000a81549060ff0219169055600101602081600001049283019260010302614c8b565b505b50614cc6929150614da8565b5090565b604080516060810182526000808252602082018190529181019190915290565b50805460018160011615610100020316600290046000825580601f10614d105750611b94565b601f016020900490600052602060002090810190611b949190614dc1565b828054600181600116156101000203166002900490600052602060002090601f016020900481019282601f10614d6f57805160ff1916838001178555614d9c565b82800160010185558215614d9c579182015b82811115614d9c578251825591602001919060010190614d81565b50614cc6929150614dc1565b5b80821115614cc657805460ff19168155600101614da9565b5b80821115614cc65760008155600101614dc256fe456e756d657261626c655365743a20696e646578206f7574206f6620626f756e6473416363657373436f6e74726f6c3a2073656e646572206d75737420626520616e2061646d696e20746f206772616e744552433732313a207472616e7366657220746f206e6f6e20455243373231526563656976657220696d706c656d656e7465724552433732313a207472616e7366657220746f20746865207a65726f20616464726573734552433732313a206f70657261746f7220717565727920666f72206e6f6e6578697374656e7420746f6b656e416363657373436f6e74726f6c3a2073656e646572206d75737420626520616e2061646d696e20746f207265766f6b654552433732313a20617070726f76652063616c6c6572206973206e6f74206f776e6572206e6f7220617070726f76656420666f7220616c6c4552433732313a2062616c616e636520717565727920666f7220746865207a65726f20616464726573734552433732313a206f776e657220717565727920666f72206e6f6e6578697374656e7420746f6b656e496e697469616c697a61626c653a20636f6e747261637420697320616c726561647920696e697469616c697a6564456e756d657261626c654d61703a20696e646578206f7574206f6620626f756e6473536166654d6174683a206d756c7469706c69636174696f6e206f766572666c6f774552433732313a20617070726f76656420717565727920666f72206e6f6e6578697374656e7420746f6b656e4552433732313a207472616e73666572206f6620746f6b656e2074686174206973206e6f74206f776e4552433732313a20617070726f76616c20746f2063757272656e74206f776e65724552433732313a207472616e736665722063616c6c6572206973206e6f74206f776e6572206e6f7220617070726f7665644275726e20747261696e6572206e6f74207468652073616d65206c6576656c2072616e676568747470733a2f2f6e66742e62756e69636f726e2e65786368616e67652f747261696e6572732f416363657373436f6e74726f6c3a2063616e206f6e6c792072656e6f756e636520726f6c657320666f722073656c66a2646970667358221220384b9b04baa60229860b64ef1c054f4d9b5410aacc55b9a63840b69a6ec17e5864736f6c634300060c0033",
  "linkReferences": {},
  "deployedLinkReferences": {}
}