{
  "_format": "hh-sol-artifact-1",
  "contractName": "BuniCornPool",
  "sourceName": "contracts/BuniCornPool.sol",
  "abi": [
    {
      "inputs": [],
      "stateMutability": "nonpayable",
      "type": "constructor"
    },
    {
      "anonymous": false,
      "inputs": [
        {
          "indexed": true,
          "internalType": "address",
          "name": "owner",
          "type": "address"
        },
        {
          "indexed": true,
          "internalType": "address",
          "name": "spender",
          "type": "address"
        },
        {
          "indexed": false,
          "internalType": "uint256",
          "name": "value",
          "type": "uint256"
        }
      ],
      "name": "Approval",
      "type": "event"
    },
    {
      "anonymous": false,
      "inputs": [
        {
          "indexed": true,
          "internalType": "address",
          "name": "sender",
          "type": "address"
        },
        {
          "indexed": false,
          "internalType": "uint256",
          "name": "amount0",
          "type": "uint256"
        },
        {
          "indexed": false,
          "internalType": "uint256",
          "name": "amount1",
          "type": "uint256"
        },
        {
          "indexed": true,
          "internalType": "address",
          "name": "to",
          "type": "address"
        }
      ],
      "name": "Burn",
      "type": "event"
    },
    {
      "anonymous": false,
      "inputs": [
        {
          "indexed": true,
          "internalType": "address",
          "name": "sender",
          "type": "address"
        },
        {
          "indexed": false,
          "internalType": "uint256",
          "name": "amount0",
          "type": "uint256"
        },
        {
          "indexed": false,
          "internalType": "uint256",
          "name": "amount1",
          "type": "uint256"
        }
      ],
      "name": "Mint",
      "type": "event"
    },
    {
      "anonymous": false,
      "inputs": [
        {
          "indexed": false,
          "internalType": "address",
          "name": "account",
          "type": "address"
        }
      ],
      "name": "Paused",
      "type": "event"
    },
    {
      "anonymous": false,
      "inputs": [
        {
          "indexed": true,
          "internalType": "address",
          "name": "sender",
          "type": "address"
        },
        {
          "indexed": false,
          "internalType": "uint256",
          "name": "amount0In",
          "type": "uint256"
        },
        {
          "indexed": false,
          "internalType": "uint256",
          "name": "amount1In",
          "type": "uint256"
        },
        {
          "indexed": false,
          "internalType": "uint256",
          "name": "amount0Out",
          "type": "uint256"
        },
        {
          "indexed": false,
          "internalType": "uint256",
          "name": "amount1Out",
          "type": "uint256"
        },
        {
          "indexed": true,
          "internalType": "address",
          "name": "to",
          "type": "address"
        },
        {
          "indexed": false,
          "internalType": "uint256",
          "name": "feeInPrecision",
          "type": "uint256"
        }
      ],
      "name": "Swap",
      "type": "event"
    },
    {
      "anonymous": false,
      "inputs": [
        {
          "indexed": false,
          "internalType": "uint256",
          "name": "vReserve0",
          "type": "uint256"
        },
        {
          "indexed": false,
          "internalType": "uint256",
          "name": "vReserve1",
          "type": "uint256"
        },
        {
          "indexed": false,
          "internalType": "uint256",
          "name": "reserve0",
          "type": "uint256"
        },
        {
          "indexed": false,
          "internalType": "uint256",
          "name": "reserve1",
          "type": "uint256"
        }
      ],
      "name": "Sync",
      "type": "event"
    },
    {
      "anonymous": false,
      "inputs": [
        {
          "indexed": true,
          "internalType": "address",
          "name": "from",
          "type": "address"
        },
        {
          "indexed": true,
          "internalType": "address",
          "name": "to",
          "type": "address"
        },
        {
          "indexed": false,
          "internalType": "uint256",
          "name": "value",
          "type": "uint256"
        }
      ],
      "name": "Transfer",
      "type": "event"
    },
    {
      "anonymous": false,
      "inputs": [
        {
          "indexed": false,
          "internalType": "address",
          "name": "account",
          "type": "address"
        }
      ],
      "name": "Unpaused",
      "type": "event"
    },
    {
      "anonymous": false,
      "inputs": [
        {
          "indexed": false,
          "internalType": "uint256",
          "name": "shortEMA",
          "type": "uint256"
        },
        {
          "indexed": false,
          "internalType": "uint256",
          "name": "longEMA",
          "type": "uint256"
        },
        {
          "indexed": false,
          "internalType": "uint128",
          "name": "lastBlockVolume",
          "type": "uint128"
        },
        {
          "indexed": false,
          "internalType": "uint256",
          "name": "skipBlock",
          "type": "uint256"
        }
      ],
      "name": "UpdateEMA",
      "type": "event"
    },
    {
      "inputs": [],
      "name": "MINIMUM_LIQUIDITY",
      "outputs": [
        {
          "internalType": "uint256",
          "name": "",
          "type": "uint256"
        }
      ],
      "stateMutability": "view",
      "type": "function"
    },
    {
      "inputs": [],
      "name": "PERMIT_TYPEHASH",
      "outputs": [
        {
          "internalType": "bytes32",
          "name": "",
          "type": "bytes32"
        }
      ],
      "stateMutability": "view",
      "type": "function"
    },
    {
      "inputs": [
        {
          "internalType": "address",
          "name": "owner",
          "type": "address"
        },
        {
          "internalType": "address",
          "name": "spender",
          "type": "address"
        }
      ],
      "name": "allowance",
      "outputs": [
        {
          "internalType": "uint256",
          "name": "",
          "type": "uint256"
        }
      ],
      "stateMutability": "view",
      "type": "function"
    },
    {
      "inputs": [],
      "name": "ampBps",
      "outputs": [
        {
          "internalType": "uint32",
          "name": "",
          "type": "uint32"
        }
      ],
      "stateMutability": "view",
      "type": "function"
    },
    {
      "inputs": [
        {
          "internalType": "address",
          "name": "spender",
          "type": "address"
        },
        {
          "internalType": "uint256",
          "name": "amount",
          "type": "uint256"
        }
      ],
      "name": "approve",
      "outputs": [
        {
          "internalType": "bool",
          "name": "",
          "type": "bool"
        }
      ],
      "stateMutability": "nonpayable",
      "type": "function"
    },
    {
      "inputs": [],
      "name": "author",
      "outputs": [
        {
          "internalType": "address",
          "name": "",
          "type": "address"
        }
      ],
      "stateMutability": "view",
      "type": "function"
    },
    {
      "inputs": [
        {
          "internalType": "address",
          "name": "account",
          "type": "address"
        }
      ],
      "name": "balanceOf",
      "outputs": [
        {
          "internalType": "uint256",
          "name": "",
          "type": "uint256"
        }
      ],
      "stateMutability": "view",
      "type": "function"
    },
    {
      "inputs": [
        {
          "internalType": "address",
          "name": "to",
          "type": "address"
        }
      ],
      "name": "burn",
      "outputs": [
        {
          "internalType": "uint256",
          "name": "amount0",
          "type": "uint256"
        },
        {
          "internalType": "uint256",
          "name": "amount1",
          "type": "uint256"
        }
      ],
      "stateMutability": "nonpayable",
      "type": "function"
    },
    {
      "inputs": [],
      "name": "decimals",
      "outputs": [
        {
          "internalType": "uint8",
          "name": "",
          "type": "uint8"
        }
      ],
      "stateMutability": "view",
      "type": "function"
    },
    {
      "inputs": [
        {
          "internalType": "address",
          "name": "spender",
          "type": "address"
        },
        {
          "internalType": "uint256",
          "name": "subtractedValue",
          "type": "uint256"
        }
      ],
      "name": "decreaseAllowance",
      "outputs": [
        {
          "internalType": "bool",
          "name": "",
          "type": "bool"
        }
      ],
      "stateMutability": "nonpayable",
      "type": "function"
    },
    {
      "inputs": [],
      "name": "domainSeparator",
      "outputs": [
        {
          "internalType": "bytes32",
          "name": "",
          "type": "bytes32"
        }
      ],
      "stateMutability": "view",
      "type": "function"
    },
    {
      "inputs": [],
      "name": "factory",
      "outputs": [
        {
          "internalType": "contract IBuniCornFactory",
          "name": "",
          "type": "address"
        }
      ],
      "stateMutability": "view",
      "type": "function"
    },
    {
      "inputs": [],
      "name": "getReserves",
      "outputs": [
        {
          "internalType": "uint112",
          "name": "_reserve0",
          "type": "uint112"
        },
        {
          "internalType": "uint112",
          "name": "_reserve1",
          "type": "uint112"
        }
      ],
      "stateMutability": "view",
      "type": "function"
    },
    {
      "inputs": [],
      "name": "getTradeInfo",
      "outputs": [
        {
          "internalType": "uint112",
          "name": "_reserve0",
          "type": "uint112"
        },
        {
          "internalType": "uint112",
          "name": "_reserve1",
          "type": "uint112"
        },
        {
          "internalType": "uint112",
          "name": "_vReserve0",
          "type": "uint112"
        },
        {
          "internalType": "uint112",
          "name": "_vReserve1",
          "type": "uint112"
        },
        {
          "internalType": "uint256",
          "name": "feeInPrecision",
          "type": "uint256"
        }
      ],
      "stateMutability": "view",
      "type": "function"
    },
    {
      "inputs": [],
      "name": "getVolumeTrendData",
      "outputs": [
        {
          "internalType": "uint128",
          "name": "_shortEMA",
          "type": "uint128"
        },
        {
          "internalType": "uint128",
          "name": "_longEMA",
          "type": "uint128"
        },
        {
          "internalType": "uint128",
          "name": "_currentBlockVolume",
          "type": "uint128"
        },
        {
          "internalType": "uint128",
          "name": "_lastTradeBlock",
          "type": "uint128"
        }
      ],
      "stateMutability": "view",
      "type": "function"
    },
    {
      "inputs": [
        {
          "internalType": "address",
          "name": "spender",
          "type": "address"
        },
        {
          "internalType": "uint256",
          "name": "addedValue",
          "type": "uint256"
        }
      ],
      "name": "increaseAllowance",
      "outputs": [
        {
          "internalType": "bool",
          "name": "",
          "type": "bool"
        }
      ],
      "stateMutability": "nonpayable",
      "type": "function"
    },
    {
      "inputs": [
        {
          "internalType": "contract IERC20",
          "name": "_token0",
          "type": "address"
        },
        {
          "internalType": "contract IERC20",
          "name": "_token1",
          "type": "address"
        },
        {
          "internalType": "uint32",
          "name": "_ampBps",
          "type": "uint32"
        }
      ],
      "name": "initialize",
      "outputs": [],
      "stateMutability": "nonpayable",
      "type": "function"
    },
    {
      "inputs": [],
      "name": "kLast",
      "outputs": [
        {
          "internalType": "uint256",
          "name": "",
          "type": "uint256"
        }
      ],
      "stateMutability": "view",
      "type": "function"
    },
    {
      "inputs": [
        {
          "internalType": "address",
          "name": "to",
          "type": "address"
        }
      ],
      "name": "mint",
      "outputs": [
        {
          "internalType": "uint256",
          "name": "liquidity",
          "type": "uint256"
        }
      ],
      "stateMutability": "nonpayable",
      "type": "function"
    },
    {
      "inputs": [],
      "name": "name",
      "outputs": [
        {
          "internalType": "string",
          "name": "",
          "type": "string"
        }
      ],
      "stateMutability": "view",
      "type": "function"
    },
    {
      "inputs": [
        {
          "internalType": "address",
          "name": "",
          "type": "address"
        }
      ],
      "name": "nonces",
      "outputs": [
        {
          "internalType": "uint256",
          "name": "",
          "type": "uint256"
        }
      ],
      "stateMutability": "view",
      "type": "function"
    },
    {
      "inputs": [],
      "name": "pause",
      "outputs": [],
      "stateMutability": "nonpayable",
      "type": "function"
    },
    {
      "inputs": [],
      "name": "paused",
      "outputs": [
        {
          "internalType": "bool",
          "name": "",
          "type": "bool"
        }
      ],
      "stateMutability": "view",
      "type": "function"
    },
    {
      "inputs": [
        {
          "internalType": "address",
          "name": "owner",
          "type": "address"
        },
        {
          "internalType": "address",
          "name": "spender",
          "type": "address"
        },
        {
          "internalType": "uint256",
          "name": "value",
          "type": "uint256"
        },
        {
          "internalType": "uint256",
          "name": "deadline",
          "type": "uint256"
        },
        {
          "internalType": "uint8",
          "name": "v",
          "type": "uint8"
        },
        {
          "internalType": "bytes32",
          "name": "r",
          "type": "bytes32"
        },
        {
          "internalType": "bytes32",
          "name": "s",
          "type": "bytes32"
        }
      ],
      "name": "permit",
      "outputs": [],
      "stateMutability": "nonpayable",
      "type": "function"
    },
    {
      "inputs": [
        {
          "internalType": "uint256",
          "name": "amount0Out",
          "type": "uint256"
        },
        {
          "internalType": "uint256",
          "name": "amount1Out",
          "type": "uint256"
        },
        {
          "internalType": "address",
          "name": "to",
          "type": "address"
        },
        {
          "internalType": "bytes",
          "name": "callbackData",
          "type": "bytes"
        }
      ],
      "name": "swap",
      "outputs": [],
      "stateMutability": "nonpayable",
      "type": "function"
    },
    {
      "inputs": [],
      "name": "symbol",
      "outputs": [
        {
          "internalType": "string",
          "name": "",
          "type": "string"
        }
      ],
      "stateMutability": "view",
      "type": "function"
    },
    {
      "inputs": [],
      "name": "sync",
      "outputs": [],
      "stateMutability": "nonpayable",
      "type": "function"
    },
    {
      "inputs": [],
      "name": "token0",
      "outputs": [
        {
          "internalType": "contract IERC20",
          "name": "",
          "type": "address"
        }
      ],
      "stateMutability": "view",
      "type": "function"
    },
    {
      "inputs": [],
      "name": "token1",
      "outputs": [
        {
          "internalType": "contract IERC20",
          "name": "",
          "type": "address"
        }
      ],
      "stateMutability": "view",
      "type": "function"
    },
    {
      "inputs": [],
      "name": "totalSupply",
      "outputs": [
        {
          "internalType": "uint256",
          "name": "",
          "type": "uint256"
        }
      ],
      "stateMutability": "view",
      "type": "function"
    },
    {
      "inputs": [
        {
          "internalType": "address",
          "name": "recipient",
          "type": "address"
        },
        {
          "internalType": "uint256",
          "name": "amount",
          "type": "uint256"
        }
      ],
      "name": "transfer",
      "outputs": [
        {
          "internalType": "bool",
          "name": "",
          "type": "bool"
        }
      ],
      "stateMutability": "nonpayable",
      "type": "function"
    },
    {
      "inputs": [
        {
          "internalType": "address",
          "name": "sender",
          "type": "address"
        },
        {
          "internalType": "address",
          "name": "recipient",
          "type": "address"
        },
        {
          "internalType": "uint256",
          "name": "amount",
          "type": "uint256"
        }
      ],
      "name": "transferFrom",
      "outputs": [
        {
          "internalType": "bool",
          "name": "",
          "type": "bool"
        }
      ],
      "stateMutability": "nonpayable",
      "type": "function"
    },
    {
      "inputs": [],
      "name": "unpause",
      "outputs": [],
      "stateMutability": "nonpayable",
      "type": "function"
    }
  ],
  "bytecode": "0x6080604052600b8054610100600160a81b03191674f7cc551106a1f4e2843a3da0c477b6f77fa4a09d001790553480156200003957600080fd5b5060006040518060400160405280600f81526020016e213ab734902837b7b6102a37b5b2b760891b8152506040518060400160405280600381526020016210941560ea1b815250604051806040016040528060018152602001603160f81b81525082828160039080519060200190620000b492919062000221565b508051620000ca90600490602084019062000221565b50506005805460ff19166012179055508251602093840120815191840191909120604080517f8b73c3c69bb8fe3d512ecc4cf759cc79239f7b179b0ffacaa9a75d522b39400f818701528082019390935260608301919091524660808301523060a0808401919091528151808403909101815260c09092019052805192019190912060065550600160085560098054600160801b6001600160801b038085169182026001600160801b031990931691909117161790556200018b43620001cb565b600a80546001600160801b03928316600160801b02921691909117905550600b805460ff19169055600c80546001600160a01b03191633179055620002b3565b60006001600160801b038211156200021d576040805162461bcd60e51b815260206004820152601060248201526f0deeccae4ccd8deee40ead2dce86264760831b604482015290519081900360640190fd5b5090565b828054600181600116156101000203166002900490600052602060002090601f016020900481019282601f106200026457805160ff191683800117855562000294565b8280016001018555821562000294579182015b828111156200029457825182559160200191906001019062000277565b506200021d9291505b808211156200021d57600081556001016200029d565b613dc080620002c36000396000f3fe608060405234801561001057600080fd5b50600436106101fb5760003560e01c806370a082311161011a578063a9059cbb116100ad578063d505accf1161007c578063d505accf14610631578063d669402714610682578063dd62ed3e146106c5578063f698da25146106f3578063fff6cae9146106fb576101fb565b8063a9059cbb146105ed578063ba9a7a5614610619578063c45a015514610621578063d21220a714610629576101fb565b806389afcb44116100e957806389afcb441461057257806395d89b41146105b1578063a457c2d7146105b9578063a6c3e6b9146105e5576101fb565b806370a08231146105165780637464fc3d1461053c5780637ecebe00146105445780638456cb591461056a576101fb565b806330adf81f1161019257806349386b161161016157806349386b161461048a5780635c975abb146104ab5780636a627842146104b35780636ecf2b22146104d9576101fb565b806330adf81f14610430578063313ce5671461043857806339509351146104565780633f4ba83a14610482576101fb565b80630d94d50b116101ce5780630d94d50b146103805780630dfe1681146103bc57806318160ddd146103e057806323b872dd146103fa576101fb565b8063022c0d9f1461020057806306fdde031461028c5780630902f1ac14610309578063095ea7b314610340575b600080fd5b61028a6004803603608081101561021657600080fd5b8135916020810135916001600160a01b036040830135169190810190608081016060820135600160201b81111561024c57600080fd5b82018360208201111561025e57600080fd5b803590602001918460018302840111600160201b8311171561027f57600080fd5b509092509050610703565b005b610294610ccf565b6040805160208082528351818301528351919283929083019185019080838360005b838110156102ce5781810151838201526020016102b6565b50505050905090810190601f1680156102fb5780820380516001836020036101000a031916815260200191505b509250505060405180910390f35b61031161100f565b60405180836001600160701b03168152602001826001600160701b031681526020019250505060405180910390f35b61036c6004803603604081101561035657600080fd5b506001600160a01b03813516906020013561102a565b604080519115158252519081900360200190f35b610388611048565b604080516001600160801b039586168152938516602085015291841683830152909216606082015290519081900360800190f35b6103c4611071565b604080516001600160a01b039092168252519081900360200190f35b6103e8611080565b60408051918252519081900360200190f35b61036c6004803603606081101561041057600080fd5b506001600160a01b03813581169160208101359091169060400135611086565b6103e861110e565b610440611132565b6040805160ff9092168252519081900360200190f35b61036c6004803603604081101561046c57600080fd5b506001600160a01b03813516906020013561113b565b61028a611189565b610492611247565b6040805163ffffffff9092168252519081900360200190f35b61036c61125a565b6103e8600480360360208110156104c957600080fd5b50356001600160a01b0316611263565b61028a600480360360608110156104ef57600080fd5b5080356001600160a01b03908116916020810135909116906040013563ffffffff166115ec565b6103e86004803603602081101561052c57600080fd5b50356001600160a01b0316611692565b6103e86116b1565b6103e86004803603602081101561055a57600080fd5b50356001600160a01b03166116b7565b61028a6116c9565b6105986004803603602081101561058857600080fd5b50356001600160a01b0316611782565b6040805192835260208301919091528051918290030190f35b610294611c63565b61036c600480360360408110156105cf57600080fd5b506001600160a01b038135169060200135611f01565b6103c4611f69565b61036c6004803603604081101561060357600080fd5b506001600160a01b038135169060200135611f7d565b6103e8611f91565b6103c4611f97565b6103c4611fa6565b61028a600480360360e081101561064757600080fd5b506001600160a01b03813581169160208101359091169060408101359060608101359060ff6080820135169060a08101359060c00135611fb5565b61068a6121b9565b604080516001600160701b03968716815294861660208601529285168484015293166060830152608082019290925290519081900360a00190f35b6103e8600480360360408110156106db57600080fd5b506001600160a01b038135811691602001351661222a565b6103e8612255565b61028a61225b565b60026008541415610749576040805162461bcd60e51b815260206004820152601f6024820152600080516020613b93833981519152604482015290519081900360640190fd5b600260085561075661125a565b1561079b576040805162461bcd60e51b815260206004820152601060248201526f14185d5cd8589b194e881c185d5cd95960821b604482015290519081900360640190fd5b60008511806107aa5750600084115b6107fb576040805162461bcd60e51b815260206004820181905260248201527f42554e493a20494e53554646494349454e545f4f55545055545f414d4f554e54604482015290519081900360640190fd5b6000610805613b47565b61080d612492565b80519193509150871080156108255750806020015186105b610876576040805162461bcd60e51b815260206004820152601c60248201527f42554e493a20494e53554646494349454e545f4c495155494449545900000000604482015290519081900360640190fd5b61087e613b47565b600d54600e546001600160a01b039182169190811690881682148015906108b75750806001600160a01b0316886001600160a01b031614155b6108fb576040805162461bcd60e51b815260206004820152601060248201526f42554e493a20494e56414c49445f544f60801b604482015290519081900360640190fd5b8915610915576109156001600160a01b038316898c6124f9565b881561092f5761092f6001600160a01b038216898b6124f9565b85156109e157876001600160a01b031663026b8c4f338c8c8b8b6040518663ffffffff1660e01b815260040180866001600160a01b03168152602001858152602001848152602001806020018281038252848482818152602001925080828437600081840152601f19601f8201169050808301925050509650505050505050600060405180830381600087803b1580156109c857600080fd5b505af11580156109dc573d6000803e3d6000fd5b505050505b604080516370a0823160e01b815230600482015290516001600160a01b038416916370a08231916024808301926020929190829003018186803b158015610a2757600080fd5b505afa158015610a3b573d6000803e3d6000fd5b505050506040513d6020811015610a5157600080fd5b50518352604080516370a0823160e01b815230600482015290516001600160a01b038316916370a08231916024808301926020929190829003018186803b158015610a9b57600080fd5b505afa158015610aaf573d6000803e3d6000fd5b505050506040513d6020811015610ac557600080fd5b505160208401528415610b1957835183516040860151610af09291610aea9190612550565b906125aa565b6040840152602080850151908401516060860151610b139291610aea9190612550565b60608401525b50508151600090610b2a908a6125aa565b825111610b38576000610b50565b8251610b5090610b48908b6125aa565b8351906125aa565b90506000610b6b8985602001516125aa90919063ffffffff16565b836020015111610b7c576000610b9a565b6020840151610b9a90610b8f908b6125aa565b6020850151906125aa565b90506000821180610bab5750600081115b610bfc576040805162461bcd60e51b815260206004820152601f60248201527f42554e493a20494e53554646494349454e545f494e5055545f414d4f554e5400604482015290519081900360640190fd5b6000610c56838388610c0f578751610c15565b87604001515b89610c24578860200151610c2a565b88606001515b8a610c36578851610c3c565b88604001515b8b610c4b578960200151610c51565b89606001515b612607565b9050610c62868561272d565b60408051848152602081018490528082018d9052606081018c90526080810183905290516001600160a01b038b169133917f606ecd02b3e3b4778f8e97b2e03351de14224efaa5fa64e62200afc9395c24999181900360a00190a350506001600855505050505050505050565b600d54600e54604080516395d89b4160e01b815290516060936001600160a01b0390811693169183916395d89b4191600480820192600092909190829003018186803b158015610d1e57600080fd5b505afa158015610d32573d6000803e3d6000fd5b505050506040513d6000823e601f3d908101601f191682016040526020811015610d5b57600080fd5b8101908080516040519392919084600160201b821115610d7a57600080fd5b908301906020820185811115610d8f57600080fd5b8251600160201b811182820188101715610da857600080fd5b82525081516020918201929091019080838360005b83811015610dd5578181015183820152602001610dbd565b50505050905090810190601f168015610e025780820380516001836020036101000a031916815260200191505b50604052505050816001600160a01b03166395d89b416040518163ffffffff1660e01b815260040160006040518083038186803b158015610e4257600080fd5b505afa158015610e56573d6000803e3d6000fd5b505050506040513d6000823e601f3d908101601f191682016040526020811015610e7f57600080fd5b8101908080516040519392919084600160201b821115610e9e57600080fd5b908301906020820185811115610eb357600080fd5b8251600160201b811182820188101715610ecc57600080fd5b82525081516020918201929091019080838360005b83811015610ef9578181015183820152602001610ee1565b50505050905090810190601f168015610f265780820380516001836020036101000a031916815260200191505b5060405250505060405160200180806f0213ab734902837b7b6102a37b5b2b7160851b81525060100183805190602001908083835b60208310610f7a5780518252601f199092019160209182019101610f5b565b6001836020036101000a03801982511681845116808217855250505050505090500180602d60f81b81525060010182805190602001908083835b60208310610fd35780518252601f199092019160209182019101610fb4565b6001836020036101000a038019825116818451168082178552505050505050905001925050506040516020818303038152906040529250505090565b600f546001600160701b0380821692600160701b9092041690565b600061103e61103761286f565b8484612873565b5060015b92915050565b600954600a546001600160801b0380831693600160801b93849004821693838316930490911690565b600d546001600160a01b031681565b60025490565b600061109384848461295f565b6111038461109f61286f565b6110fe85604051806060016040528060288152602001613c87602891396001600160a01b038a166000908152600160205260408120906110dd61286f565b6001600160a01b031681526020810191909152604001600020549190612aba565b612873565b5060015b9392505050565b7f6e71edae12b1b97f4d1f60370fef10105fa2faae0126114a169c64845d6126c981565b60055460ff1690565b600061103e61114861286f565b846110fe856001600061115961286f565b6001600160a01b03908116825260208083019390935260409182016000908120918c168152925290205490612550565b600b5461010090046001600160a01b031633146111ed576040805162461bcd60e51b815260206004820152601e60248201527f42554e493a2063616c6c6572206973206e6f742074686520617574686f720000604482015290519081900360640190fd5b6111f561125a565b61123d576040805162461bcd60e51b815260206004820152601460248201527314185d5cd8589b194e881b9bdd081c185d5cd95960621b604482015290519081900360640190fd5b611245612b51565b565b600f54600160e01b900463ffffffff1681565b600b5460ff1690565b6000600260085414156112ab576040805162461bcd60e51b815260206004820152601f6024820152600080516020613b93833981519152604482015290519081900360640190fd5b600260085560006112ba613b47565b6112c2612492565b915091506112ce613b47565b600d54604080516370a0823160e01b815230600482015290516001600160a01b03909216916370a0823191602480820192602092909190829003018186803b15801561131957600080fd5b505afa15801561132d573d6000803e3d6000fd5b505050506040513d602081101561134357600080fd5b50518152600e54604080516370a0823160e01b815230600482015290516001600160a01b03909216916370a0823191602480820192602092909190829003018186803b15801561139257600080fd5b505afa1580156113a6573d6000803e3d6000fd5b505050506040513d60208110156113bc57600080fd5b50516020820152815181516000916113d491906125aa565b905060006113f3846020015184602001516125aa90919063ffffffff16565b905060006114018686612bf1565b9050600061140d611080565b9050806114a357861561147657600f54855163ffffffff600160e01b90920482169161144a916127109161144491908590612d3916565b90612d92565b6040870152602086015161146f90612710906114449063ffffffff80861690612d3916565b6060870152505b61148e6103e8610aea6114898787612d39565b612df9565b975061149e6000196103e8612e4a565b611539565b85516114cf906114b7906114448785612d39565b60208801516114ca906114448786612d39565b612f3a565b975086156115395760006114e38983612550565b905061150a61150383611444848b60400151612d3990919063ffffffff16565b8751612f50565b60408701526060870151611532906115289084906114449085612d39565b8760200151612f50565b6060870152505b600088116115785760405162461bcd60e51b8152600401808060200182810382526023815260200180613c436023913960400191505060405180910390fd5b6115828989612e4a565b61158c878661272d565b81156115a05761159c8786612f60565b6011555b6040805185815260208101859052815133927f4c209b5fc8ad50758f13e2e1088ba56a560dff690a1c6fef26394f4c03821c4f928290030190a250506001600855509395945050505050565b600c546001600160a01b0316331461163d576040805162461bcd60e51b815260206004820152600f60248201526e212aa7249d102327a92124a22222a760891b604482015290519081900360640190fd5b600d80546001600160a01b039485166001600160a01b031991821617909155600e805493909416921691909117909155600f805463ffffffff909216600160e01b026001600160e01b03909216919091179055565b6001600160a01b0381166000908152602081905260409020545b919050565b60115481565b60076020526000908152604090205481565b600b5461010090046001600160a01b0316331461172d576040805162461bcd60e51b815260206004820152601e60248201527f42554e493a2063616c6c6572206973206e6f742074686520617574686f720000604482015290519081900360640190fd5b61173561125a565b1561177a576040805162461bcd60e51b815260206004820152601060248201526f14185d5cd8589b194e881c185d5cd95960821b604482015290519081900360640190fd5b611245612f8f565b600080600260085414156117cb576040805162461bcd60e51b815260206004820152601f6024820152600080516020613b93833981519152604482015290519081900360640190fd5b60026008556117d861125a565b1561181d576040805162461bcd60e51b815260206004820152601060248201526f14185d5cd8589b194e881c185d5cd95960821b604482015290519081900360640190fd5b6000611827613b47565b61182f612492565b600d54600e54604080516370a0823160e01b815230600482015290519496509294506001600160a01b039182169391169160009184916370a08231916024808301926020929190829003018186803b15801561188a57600080fd5b505afa15801561189e573d6000803e3d6000fd5b505050506040513d60208110156118b457600080fd5b5051604080516370a0823160e01b815230600482015290519192506000916001600160a01b038516916370a08231916024808301926020929190829003018186803b15801561190257600080fd5b505afa158015611916573d6000803e3d6000fd5b505050506040513d602081101561192c57600080fd5b505185519091508210801590611946575084602001518110155b61198f576040805162461bcd60e51b815260206004820152601560248201527442554e493a20554e53594e435f524553455256455360581b604482015290519081900360640190fd5b600061199a30611692565b905060006119a88888612bf1565b905060006119b4611080565b90506119c4816114448588612d39565b9a506119d4816114448587612d39565b995060008b1180156119e6575060008a115b611a215760405162461bcd60e51b8152600401808060200182810382526023815260200180613d686023913960400191505060405180910390fd5b611a2b3084613012565b611a3f6001600160a01b0388168d8d6124f9565b611a536001600160a01b0387168d8c6124f9565b611a5b613b47565b604080516370a0823160e01b815230600482015290516001600160a01b038a16916370a08231916024808301926020929190829003018186803b158015611aa157600080fd5b505afa158015611ab5573d6000803e3d6000fd5b505050506040513d6020811015611acb57600080fd5b50518152604080516370a0823160e01b815230600482015290516001600160a01b038916916370a08231916024808301926020929190829003018186803b158015611b1557600080fd5b505afa158015611b29573d6000803e3d6000fd5b505050506040513d6020811015611b3f57600080fd5b505160208201528915611bdb5788518151600091611b8591611b6691906114449087612d39565b6114ca8c60200151611444878760200151612d3990919063ffffffff16565b9050611bac611ba584611444848e60400151612d3990919063ffffffff16565b8351612f50565b604083015260608a0151611bd490611bca9085906114449085612d39565b8360200151612f50565b6060830152505b611be58a8261272d565b8215611bf957611bf58a82612f60565b6011555b8c6001600160a01b0316336001600160a01b03167fdccd412f0b1252819cb1fd330b93224ca42612892bb3f4f789976e6d819364968e8e604051808381526020018281526020019250505060405180910390a3505050505050505050506001600881905550915091565b600d54600e54604080516395d89b4160e01b815290516060936001600160a01b0390811693169183916395d89b4191600480820192600092909190829003018186803b158015611cb257600080fd5b505afa158015611cc6573d6000803e3d6000fd5b505050506040513d6000823e601f3d908101601f191682016040526020811015611cef57600080fd5b8101908080516040519392919084600160201b821115611d0e57600080fd5b908301906020820185811115611d2357600080fd5b8251600160201b811182820188101715611d3c57600080fd5b82525081516020918201929091019080838360005b83811015611d69578181015183820152602001611d51565b50505050905090810190601f168015611d965780820380516001836020036101000a031916815260200191505b50604052505050816001600160a01b03166395d89b416040518163ffffffff1660e01b815260040160006040518083038186803b158015611dd657600080fd5b505afa158015611dea573d6000803e3d6000fd5b505050506040513d6000823e601f3d908101601f191682016040526020811015611e1357600080fd5b8101908080516040519392919084600160201b821115611e3257600080fd5b908301906020820185811115611e4757600080fd5b8251600160201b811182820188101715611e6057600080fd5b82525081516020918201929091019080838360005b83811015611e8d578181015183820152602001611e75565b50505050905090810190601f168015611eba5780820380516001836020036101000a031916815260200191505b50604052505050604051602001808063021282a160e51b815250600401838051906020019080838360208310610f7a5780518252601f199092019160209182019101610f5b565b600061103e611f0e61286f565b846110fe85604051806060016040528060258152602001613d436025913960016000611f3861286f565b6001600160a01b03908116825260208083019390935260409182016000908120918d16815292529020549190612aba565b600b5461010090046001600160a01b031681565b600061103e611f8a61286f565b848461295f565b6103e881565b600c546001600160a01b031681565b600e546001600160a01b031681565b42841015612001576040805162461bcd60e51b8152602060048201526014602482015273115490cc8c14195c9b5a5d0e881156141254915160621b604482015290519081900360640190fd5b6006546001600160a01b0380891660008181526007602090815260408083208054600180820190925582517f6e71edae12b1b97f4d1f60370fef10105fa2faae0126114a169c64845d6126c98186015280840196909652958d166060860152608085018c905260a085019590955260c08085018b90528151808603909101815260e08501825280519083012061190160f01b6101008601526101028501969096526101228085019690965280518085039096018652610142840180825286519683019690962095839052610162840180825286905260ff89166101828501526101a284018890526101c28401879052519193926101e280820193601f1981019281900390910190855afa15801561211c573d6000803e3d6000fd5b5050604051601f1901519150506001600160a01b038116158015906121525750886001600160a01b0316816001600160a01b0316145b6121a3576040805162461bcd60e51b815260206004820152601e60248201527f45524332305065726d69743a20494e56414c49445f5349474e41545552450000604482015290519081900360640190fd5b6121ae898989612873565b505050505050505050565b600f546010546001600160701b0380831692600160701b808204831693838116939190041690600090600160e01b900463ffffffff16612710811415612200578593508492505b600061220b4361310e565b905061221f61221982613222565b836133d5565b925050509091929394565b6001600160a01b03918216600090815260016020908152604080832093909416825291909152205490565b60065481565b600260085414156122a1576040805162461bcd60e51b815260206004820152601f6024820152600080516020613b93833981519152604482015290519081900360640190fd5b600260085560006122b0613b47565b6122b8612492565b9150915060006122c88383612bf1565b90506122d2613b47565b600d54604080516370a0823160e01b815230600482015290516001600160a01b03909216916370a0823191602480820192602092909190829003018186803b15801561231d57600080fd5b505afa158015612331573d6000803e3d6000fd5b505050506040513d602081101561234757600080fd5b50518152600e54604080516370a0823160e01b815230600482015290516001600160a01b03909216916370a0823191602480820192602092909190829003018186803b15801561239657600080fd5b505afa1580156123aa573d6000803e3d6000fd5b505050506040513d60208110156123c057600080fd5b5051602082015283156124695760006123d7611080565b84518351919250600091612412916123f3916114449086612d39565b6114ca8760200151611444868860200151612d3990919063ffffffff16565b905061243961243283611444848960400151612d3990919063ffffffff16565b8451612f50565b60408401526060850151612461906124579084906114449085612d39565b8460200151612f50565b606084015250505b612473848261272d565b8115612487576124838482612f60565b6011555b505060016008555050565b600061249c613b47565b600f546001600160701b038082168352600160701b820416602083015263ffffffff600160e01b9091041661271014801592506124f5576010546001600160701b038082166040840152600160701b9091041660608201525b9091565b604080516001600160a01b038416602482015260448082018490528251808303909101815260649091019091526020810180516001600160e01b031663a9059cbb60e01b17905261254b908490613443565b505050565b600082820183811015611107576040805162461bcd60e51b815260206004820152601b60248201527f536166654d6174683a206164646974696f6e206f766572666c6f770000000000604482015290519081900360640190fd5b600082821115612601576040805162461bcd60e51b815260206004820152601e60248201527f536166654d6174683a207375627472616374696f6e206f766572666c6f770000604482015290519081900360640190fd5b50900390565b6000806126228861261c876114448a8c612d39565b90612550565b9050600061263043836134f4565b905061265361263e82613222565b600f54600160e01b900463ffffffff166133d5565b9250600061266986670de0b6b3a7640000612d39565b905061267f6126788b86612d39565b82906125aa565b905061269381670de0b6b3a7640000612d92565b905060006126a986670de0b6b3a7640000612d39565b90506126b86126788b87612d39565b90506126cc81670de0b6b3a7640000612d92565b90506126d88989612d39565b6126e28383612d39565b101561271f576040805162461bcd60e51b815260206004820152600760248201526642554e493a204b60c81b604482015290519081900360640190fd5b505050509695505050505050565b805161273890613731565b600f80546001600160701b0319166001600160701b0392909216919091179055602081015161276690613731565b600f600e6101000a8154816001600160701b0302191690836001600160701b0316021790555081156128175780516040820151108015906127af57508060200151816060015110155b6127b557fe5b6127c28160400151613731565b601080546001600160701b0319166001600160701b039290921691909117905560608101516127f090613731565b6010600e6101000a8154816001600160701b0302191690836001600160701b031602179055505b6040808201516060808401518451602080870151865195865290850192909252838501529082015290517f2f9d55abfefdfd4c3a83e00a1b419b3c2fe4b83100c559f0e2213e57f6e0bba99181900360800190a15050565b3390565b6001600160a01b0383166128b85760405162461bcd60e51b8152600401808060200182810382526024815260200180613cf56024913960400191505060405180910390fd5b6001600160a01b0382166128fd5760405162461bcd60e51b8152600401808060200182810382526022815260200180613bd56022913960400191505060405180910390fd5b6001600160a01b03808416600081815260016020908152604080832094871680845294825291829020859055815185815291517f8c5be1e5ebec7d5bd14f71427d1e84f3dd0314c0f7b2291e5b200ac8c7c3b9259281900390910190a3505050565b6001600160a01b0383166129a45760405162461bcd60e51b8152600401808060200182810382526025815260200180613cd06025913960400191505060405180910390fd5b6001600160a01b0382166129e95760405162461bcd60e51b8152600401808060200182810382526023815260200180613b706023913960400191505060405180910390fd5b6129f483838361254b565b612a3181604051806060016040528060268152602001613bf7602691396001600160a01b0386166000908152602081905260409020549190612aba565b6001600160a01b038085166000908152602081905260408082209390935590841681522054612a609082612550565b6001600160a01b038084166000818152602081815260409182902094909455805185815290519193928716927fddf252ad1be2c89b69c2b068fc378daa952ba7f163c4a11628f55a4df523b3ef92918290030190a3505050565b60008184841115612b495760405162461bcd60e51b81526004018080602001828103825283818151815260200191508051906020019080838360005b83811015612b0e578181015183820152602001612af6565b50505050905090810190601f168015612b3b5780820380516001836020036101000a031916815260200191505b509250505060405180910390fd5b505050900390565b612b5961125a565b612ba1576040805162461bcd60e51b815260206004820152601460248201527314185d5cd8589b194e881b9bdd081c185d5cd95960621b604482015290519081900360640190fd5b600b805460ff191690557f5db9ee0a495bf2e6ff9c91a7834c1ba4fdd244a5e8aa4e537bd38aeae4b073aa612bd461286f565b604080516001600160a01b039092168252519081900360200190a1565b6000806000600c60009054906101000a90046001600160a01b03166001600160a01b031663ad5cb2e16040518163ffffffff1660e01b8152600401604080518083038186803b158015612c4357600080fd5b505afa158015612c57573d6000803e3d6000fd5b505050506040513d6040811015612c6d57600080fd5b5080516020909101516011546001600160a01b038316158015965092945090925090612d24578015612d1f576000612ca86114898888612f60565b90506000612cb583612df9565b905080821115612d1c576000612ce461ffff8616612cde612cd686866125aa565b612cde611080565b90612d39565b90506000612cf8611388612cde8686612550565b90506000612d068383612d92565b90508015612d1857612d188882612e4a565b5050505b50505b612d30565b8015612d305760006011555b50505092915050565b600082612d4857506000611042565b82820282848281612d5557fe5b04146111075760405162461bcd60e51b8152600401808060200182810382526021815260200180613c666021913960400191505060405180910390fd5b6000808211612de8576040805162461bcd60e51b815260206004820152601a60248201527f536166654d6174683a206469766973696f6e206279207a65726f000000000000604482015290519081900360640190fd5b818381612df157fe5b049392505050565b60006003821115612e3c575080600160028204015b81811015612e3657809150600281828581612e2557fe5b040181612e2e57fe5b049050612e0e565b506116ac565b81156116ac57506001919050565b6001600160a01b038216612ea5576040805162461bcd60e51b815260206004820152601f60248201527f45524332303a206d696e7420746f20746865207a65726f206164647265737300604482015290519081900360640190fd5b612eb16000838361254b565b600254612ebe9082612550565b6002556001600160a01b038216600090815260208190526040902054612ee49082612550565b6001600160a01b0383166000818152602081815260408083209490945583518581529351929391927fddf252ad1be2c89b69c2b068fc378daa952ba7f163c4a11628f55a4df523b3ef9281900390910190a35050565b6000818310612f495781611107565b5090919050565b600081831015612f495781611107565b600082612f7c5760208201518251612f7791612d39565b611107565b6060820151604083015161110791612d39565b612f9761125a565b15612fdc576040805162461bcd60e51b815260206004820152601060248201526f14185d5cd8589b194e881c185d5cd95960821b604482015290519081900360640190fd5b600b805460ff191660011790557f62e78cea01bee320cd4e420270b5ea74000d11b0c9f74754ebdbfc544b05a258612bd461286f565b6001600160a01b0382166130575760405162461bcd60e51b8152600401808060200182810382526021815260200180613caf6021913960400191505060405180910390fd5b6130638260008361254b565b6130a081604051806060016040528060228152602001613bb3602291396001600160a01b0385166000908152602081905260409020549190612aba565b6001600160a01b0383166000908152602081905260409020556002546130c690826125aa565b6002556040805182815290516000916001600160a01b038516917fddf252ad1be2c89b69c2b068fc378daa952ba7f163c4a11628f55a4df523b3ef9181900360200190a35050565b600a54600090600160801b90046001600160801b03168203806131535760095461314b906001600160801b0380821691600160801b900416613784565b9150506116ac565b600954600090613188906001600160801b0316611519671bc16d674ec800005b600a54919004906001600160801b03166137a6565b6009549091506000906131b690600160801b90046001600160801b0316612a31671bc16d674ec80000613173565b90506131e86131e16000198501611519671bc16d674ec800005b04670de0b6b3a764000003906137f5565b83906138a5565b915061320d6132066000198501612a31671bc16d674ec800006131d0565b82906138a5565b90506132198282613784565b95945050505050565b6000671480cc142da92a8482106132415750661550f7dca700006116ac565b670de0b6b3a76400008210613332576710a741a4627800008211156132d3576710a741a46277ffff19820160006132798260036137f5565b90506127106132c2613299846009680d8d726b7177a800005b04906138a5565b61261c6132b285601b69043c33c1937564800000613292565b6801fa48421ec7b1ed0990612550565b816132c957fe5b04925050506116ac565b6710a741a46278000082900360006132ec8260036137f5565b90506127106132c2613309846009680d8d726b7177a80000613292565b610aea61332285601b69043c33c1937564800000613292565b6801fa48421ec7b1ed09906125aa565b6000670b9a1192183a0000831161335457670b9a1192183a0000839003613361565b670b9a11921839ffff1983015b905061336e8160026137f5565b905060006133976133858365b5e620f48000612550565b611444674563918244f4000085612d39565b9050670b9a1192183a00008411156133bf576127106132c26801161163ae0de59a9283612550565b6127106132c26801161163ae0de59a92836125aa565b6000614e208263ffffffff16116133ed575081611042565b61c3508263ffffffff16116134135761340c601e611444856014612d39565b9050611042565b62030d408263ffffffff16116134335761340c601e61144485600a612d39565b61340c601e611444856004612d39565b6060613498826040518060400160405280602081526020017f5361666545524332303a206c6f772d6c6576656c2063616c6c206661696c6564815250856001600160a01b03166138c19092919063ffffffff16565b80519091501561254b578080602001905160208110156134b757600080fd5b505161254b5760405162461bcd60e51b815260040180806020018281038252602a815260200180613d19602a913960400191505060405180910390fd5b600a54600090600160801b90046001600160801b03168303806135a257600a546135669061352b906001600160801b031685612550565b6040518060400160405280601a81526020017f766f6c756d6520657863656564732076616c69642072616e67650000000000008152506138d8565b600a80546001600160801b0319166001600160801b0392831617905560095461359a9181811691600160801b900416613784565b915050611042565b600a546009546001600160801b03918216916000916135cd9116611519671bc16d674ec80000613173565b6009549091506000906135fb90600160801b90046001600160801b0316612a31671bc16d674ec80000613173565b90506136196131e16000198601611519671bc16d674ec800006131d0565b91506136376132066000198601612a31671bc16d674ec800006131d0565b905061364282613939565b600980546001600160801b0319166001600160801b039290921691909117905561366b81613939565b600980546001600160801b03928316600160801b02921691909117905561369186613939565b600a80546001600160801b0319166001600160801b03929092169190911790556136ba87613939565b600a80546001600160801b03928316600160801b0290831617905560408051848152602081018490529185168282015260608201869052517f96e2c334d3c0fa98c8b728ee84471864ffe5b28e05f46e52f8a469d0ab3a8b8b9181900360800190a16137268282613784565b979650505050505050565b60006001600160701b03821115613780576040805162461bcd60e51b815260206004820152600e60248201526d42554e493a204f564552464c4f5760901b604482015290519081900360640190fd5b5090565b60008161379357506000611042565b81670de0b6b3a7640000840281612df157fe5b6000670de0b6b3a764000083106137b957fe5b670de0b6b3a7640000826001600160801b03168402856001600160801b031685670de0b6b3a7640000030201816137ec57fe5b04949350505050565b6000670de0b6b3a764000083111561384d576040805162461bcd60e51b815260206004820152601660248201527526b0ba3422bc3a1d103c101f10282922a1a4a9a4a7a760511b604482015290519081900360640190fd5b6002820661386357670de0b6b3a7640000613865565b825b90506002820491505b811561104257670de0b6b3a7640000838002049250600282061561389a57670de0b6b3a7640000908302045b60028204915061386e565b6000670de0b6b3a76400006138ba8484612d39565b81612df157fe5b60606138d0848460008561398a565b949350505050565b6000816001600160801b038411156139315760405162461bcd60e51b8152602060048201818152835160248401528351909283926044909101919085019080838360008315612b0e578181015183820152602001612af6565b509192915050565b60006001600160801b03821115613780576040805162461bcd60e51b815260206004820152601060248201526f0deeccae4ccd8deee40ead2dce86264760831b604482015290519081900360640190fd5b6060824710156139cb5760405162461bcd60e51b8152600401808060200182810382526026815260200180613c1d6026913960400191505060405180910390fd5b6139d485613adb565b613a25576040805162461bcd60e51b815260206004820152601d60248201527f416464726573733a2063616c6c20746f206e6f6e2d636f6e7472616374000000604482015290519081900360640190fd5b60006060866001600160a01b031685876040518082805190602001908083835b60208310613a645780518252601f199092019160209182019101613a45565b6001836020036101000a03801982511681845116808217855250505050505090500191505060006040518083038185875af1925050503d8060008114613ac6576040519150601f19603f3d011682016040523d82523d6000602084013e613acb565b606091505b5091509150613726828286613ae1565b3b151590565b60608315613af0575081611107565b825115613b005782518084602001fd5b60405162461bcd60e51b8152602060048201818152845160248401528451859391928392604401919085019080838360008315612b0e578181015183820152602001612af6565b604051806080016040528060008152602001600081526020016000815260200160008152509056fe45524332303a207472616e7366657220746f20746865207a65726f20616464726573735265656e7472616e637947756172643a207265656e7472616e742063616c6c0045524332303a206275726e20616d6f756e7420657863656564732062616c616e636545524332303a20617070726f766520746f20746865207a65726f206164647265737345524332303a207472616e7366657220616d6f756e7420657863656564732062616c616e6365416464726573733a20696e73756666696369656e742062616c616e636520666f722063616c6c42554e493a20494e53554646494349454e545f4c49515549444954595f4d494e544544536166654d6174683a206d756c7469706c69636174696f6e206f766572666c6f7745524332303a207472616e7366657220616d6f756e74206578636565647320616c6c6f77616e636545524332303a206275726e2066726f6d20746865207a65726f206164647265737345524332303a207472616e736665722066726f6d20746865207a65726f206164647265737345524332303a20617070726f76652066726f6d20746865207a65726f20616464726573735361666545524332303a204552433230206f7065726174696f6e20646964206e6f74207375636365656445524332303a2064656372656173656420616c6c6f77616e63652062656c6f77207a65726f42554e493a20494e53554646494349454e545f4c49515549444954595f4255524e4544a2646970667358221220d7fc8de9556da15de213359837178ae52b5fd3623aa71d4b961f31011fa0496764736f6c634300060c0033",
  "linkReferences": {},
  "deployedLinkReferences": {}
}